{
  "contractName": "XYEligibleTokenSale",
  "abi": [
    {
      "constant": true,
      "inputs": [],
      "name": "minEther",
      "outputs": [
        {
          "name": "",
          "type": "uint256"
        }
      ],
      "payable": false,
      "stateMutability": "view",
      "type": "function"
    },
    {
      "constant": true,
      "inputs": [
        {
          "name": "",
          "type": "address"
        }
      ],
      "name": "approvers",
      "outputs": [
        {
          "name": "",
          "type": "bool"
        }
      ],
      "payable": false,
      "stateMutability": "view",
      "type": "function"
    },
    {
      "constant": true,
      "inputs": [
        {
          "name": "_wallet",
          "type": "address"
        }
      ],
      "name": "getEligiblity",
      "outputs": [
        {
          "name": "",
          "type": "address"
        }
      ],
      "payable": false,
      "stateMutability": "view",
      "type": "function"
    },
    {
      "constant": true,
      "inputs": [],
      "name": "endTime",
      "outputs": [
        {
          "name": "",
          "type": "uint256"
        }
      ],
      "payable": false,
      "stateMutability": "view",
      "type": "function"
    },
    {
      "constant": false,
      "inputs": [
        {
          "name": "_startTime",
          "type": "uint256"
        }
      ],
      "name": "setStartTime",
      "outputs": [],
      "payable": false,
      "stateMutability": "nonpayable",
      "type": "function"
    },
    {
      "constant": false,
      "inputs": [],
      "name": "kill",
      "outputs": [],
      "payable": false,
      "stateMutability": "nonpayable",
      "type": "function"
    },
    {
      "constant": true,
      "inputs": [
        {
          "name": "",
          "type": "address"
        }
      ],
      "name": "pending",
      "outputs": [
        {
          "name": "eth",
          "type": "uint256"
        },
        {
          "name": "tokens",
          "type": "uint256"
        }
      ],
      "payable": false,
      "stateMutability": "view",
      "type": "function"
    },
    {
      "constant": false,
      "inputs": [],
      "name": "purchase",
      "outputs": [],
      "payable": true,
      "stateMutability": "payable",
      "type": "function"
    },
    {
      "constant": true,
      "inputs": [],
      "name": "startTime",
      "outputs": [
        {
          "name": "",
          "type": "uint256"
        }
      ],
      "payable": false,
      "stateMutability": "view",
      "type": "function"
    },
    {
      "constant": false,
      "inputs": [
        {
          "name": "_minEther",
          "type": "uint256"
        }
      ],
      "name": "setMinEther",
      "outputs": [],
      "payable": false,
      "stateMutability": "nonpayable",
      "type": "function"
    },
    {
      "constant": true,
      "inputs": [],
      "name": "owner",
      "outputs": [
        {
          "name": "",
          "type": "address"
        }
      ],
      "payable": false,
      "stateMutability": "view",
      "type": "function"
    },
    {
      "constant": true,
      "inputs": [],
      "name": "isKilled",
      "outputs": [
        {
          "name": "",
          "type": "bool"
        }
      ],
      "payable": false,
      "stateMutability": "view",
      "type": "function"
    },
    {
      "constant": false,
      "inputs": [
        {
          "name": "_price",
          "type": "uint256"
        }
      ],
      "name": "setPrice",
      "outputs": [],
      "payable": false,
      "stateMutability": "nonpayable",
      "type": "function"
    },
    {
      "constant": true,
      "inputs": [],
      "name": "getPrice",
      "outputs": [
        {
          "name": "",
          "type": "uint256"
        }
      ],
      "payable": false,
      "stateMutability": "view",
      "type": "function"
    },
    {
      "constant": false,
      "inputs": [
        {
          "name": "_wallet",
          "type": "address"
        },
        {
          "name": "_proof",
          "type": "address"
        }
      ],
      "name": "setEligiblity",
      "outputs": [],
      "payable": false,
      "stateMutability": "nonpayable",
      "type": "function"
    },
    {
      "constant": false,
      "inputs": [
        {
          "name": "_address",
          "type": "address"
        }
      ],
      "name": "blockAddress",
      "outputs": [],
      "payable": false,
      "stateMutability": "nonpayable",
      "type": "function"
    },
    {
      "constant": true,
      "inputs": [],
      "name": "isLive",
      "outputs": [
        {
          "name": "",
          "type": "bool"
        }
      ],
      "payable": false,
      "stateMutability": "view",
      "type": "function"
    },
    {
      "constant": false,
      "inputs": [
        {
          "name": "_endTime",
          "type": "uint256"
        }
      ],
      "name": "setEndTime",
      "outputs": [],
      "payable": false,
      "stateMutability": "nonpayable",
      "type": "function"
    },
    {
      "constant": false,
      "inputs": [
        {
          "name": "_approver",
          "type": "address"
        },
        {
          "name": "_enabled",
          "type": "bool"
        }
      ],
      "name": "setApprover",
      "outputs": [],
      "payable": false,
      "stateMutability": "nonpayable",
      "type": "function"
    },
    {
      "constant": true,
      "inputs": [],
      "name": "getAvailableTokens",
      "outputs": [
        {
          "name": "",
          "type": "uint256"
        }
      ],
      "payable": false,
      "stateMutability": "view",
      "type": "function"
    },
    {
      "constant": false,
      "inputs": [
        {
          "name": "newOwner",
          "type": "address"
        }
      ],
      "name": "transferOwnership",
      "outputs": [],
      "payable": false,
      "stateMutability": "nonpayable",
      "type": "function"
    },
    {
      "constant": true,
      "inputs": [
        {
          "name": "_address",
          "type": "address"
        }
      ],
      "name": "isBlocked",
      "outputs": [
        {
          "name": "",
          "type": "bool"
        }
      ],
      "payable": false,
      "stateMutability": "view",
      "type": "function"
    },
    {
      "constant": true,
      "inputs": [],
      "name": "token",
      "outputs": [
        {
          "name": "",
          "type": "address"
        }
      ],
      "payable": false,
      "stateMutability": "view",
      "type": "function"
    },
    {
      "inputs": [
        {
          "name": "_token",
          "type": "address"
        },
        {
          "name": "_price",
          "type": "uint256"
        },
        {
          "name": "_minEther",
          "type": "uint256"
        },
        {
          "name": "_startTime",
          "type": "uint256"
        },
        {
          "name": "_endTime",
          "type": "uint256"
        }
      ],
      "payable": false,
      "stateMutability": "nonpayable",
      "type": "constructor"
    },
    {
      "anonymous": false,
      "inputs": [
        {
          "indexed": false,
          "name": "seller",
          "type": "address"
        },
        {
          "indexed": false,
          "name": "buyer",
          "type": "address"
        },
        {
          "indexed": false,
          "name": "amount",
          "type": "uint256"
        }
      ],
      "name": "EtherAccepted",
      "type": "event"
    },
    {
      "anonymous": false,
      "inputs": [
        {
          "indexed": false,
          "name": "seller",
          "type": "address"
        },
        {
          "indexed": false,
          "name": "buyer",
          "type": "address"
        },
        {
          "indexed": false,
          "name": "amount",
          "type": "uint256"
        }
      ],
      "name": "TokensSent",
      "type": "event"
    },
    {
      "anonymous": false,
      "inputs": [
        {
          "indexed": true,
          "name": "previousOwner",
          "type": "address"
        },
        {
          "indexed": true,
          "name": "newOwner",
          "type": "address"
        }
      ],
      "name": "OwnershipTransferred",
      "type": "event"
    },
    {
      "constant": false,
      "inputs": [
        {
          "name": "_buyer",
          "type": "address"
        },
        {
          "name": "_proofOfEligibility",
          "type": "address"
        }
      ],
      "name": "approve",
      "outputs": [],
      "payable": false,
      "stateMutability": "nonpayable",
      "type": "function"
    },
    {
      "constant": false,
      "inputs": [
        {
          "name": "_buyer",
          "type": "address"
        }
      ],
      "name": "approve",
      "outputs": [],
      "payable": false,
      "stateMutability": "nonpayable",
      "type": "function"
    }
  ],
  "bytecode": "0x6060604052341561000f57600080fd5b60405160a0806200205f8339810160405280805190602001909190805190602001909190805190602001909190805190602001909190805190602001909190505084848484848484848484848484336000806101000a81548173ffffffffffffffffffffffffffffffffffffffff021916908373ffffffffffffffffffffffffffffffffffffffff16021790555082600160006101000a81548173ffffffffffffffffffffffffffffffffffffffff021916908373ffffffffffffffffffffffffffffffffffffffff1602179055508160028190555080600381905550505050816004819055508060058190555050505050506001600660003373ffffffffffffffffffffffffffffffffffffffff1673ffffffffffffffffffffffffffffffffffffffff16815260200190815260200160002060006101000a81548160ff021916908315150217905550505050505061017d3360016101876401000000000261112b176401000000009004565b5050505050610259565b6000809054906101000a900473ffffffffffffffffffffffffffffffffffffffff1673ffffffffffffffffffffffffffffffffffffffff163373ffffffffffffffffffffffffffffffffffffffff161415156101e257600080fd5b600060149054906101000a900460ff161515156101fe57600080fd5b80600660008473ffffffffffffffffffffffffffffffffffffffff1673ffffffffffffffffffffffffffffffffffffffff16815260200190815260200160002060006101000a81548160ff0219169083151502179055505050565b611df680620002696000396000f300606060405260043610610149576000357c0100000000000000000000000000000000000000000000000000000000900463ffffffff168063051af15d1461014e5780630a144391146101775780631bbd8737146101c85780633197cbb6146102415780633e0a322d1461026a57806341c0e1b51461028d5780635eebea20146102a257806364edfbf0146102f657806378e97925146103005780637aef1d4d146103295780637e5465ba1461034c5780638da5cb5b146103a45780638fe8a101146103f957806391b7f5ed1461042657806398d5fdca146104495780639ae4b1ab14610472578063ad2bb1b3146104ca578063b8f7a66514610503578063ccb98ffc14610530578063d76fd2e714610553578063daea85c514610597578063e35568cb146105d0578063f2fde38b146105f9578063fbac395114610632578063fc0c546a14610683575b600080fd5b341561015957600080fd5b6101616106d8565b6040518082815260200191505060405180910390f35b341561018257600080fd5b6101ae600480803573ffffffffffffffffffffffffffffffffffffffff169060200190919050506106de565b604051808215151515815260200191505060405180910390f35b34156101d357600080fd5b6101ff600480803573ffffffffffffffffffffffffffffffffffffffff169060200190919050506106fe565b604051808273ffffffffffffffffffffffffffffffffffffffff1673ffffffffffffffffffffffffffffffffffffffff16815260200191505060405180910390f35b341561024c57600080fd5b610254610767565b6040518082815260200191505060405180910390f35b341561027557600080fd5b61028b600480803590602001909190505061076d565b005b341561029857600080fd5b6102a06107ee565b005b34156102ad57600080fd5b6102d9600480803573ffffffffffffffffffffffffffffffffffffffff16906020019091905050610a70565b604051808381526020018281526020019250505060405180910390f35b6102fe610a94565b005b341561030b57600080fd5b610313610c12565b6040518082815260200191505060405180910390f35b341561033457600080fd5b61034a6004808035906020019091905050610c18565b005b341561035757600080fd5b6103a2600480803573ffffffffffffffffffffffffffffffffffffffff1690602001909190803573ffffffffffffffffffffffffffffffffffffffff16906020019091905050610c99565b005b34156103af57600080fd5b6103b7610d39565b604051808273ffffffffffffffffffffffffffffffffffffffff1673ffffffffffffffffffffffffffffffffffffffff16815260200191505060405180910390f35b341561040457600080fd5b61040c610d5e565b604051808215151515815260200191505060405180910390f35b341561043157600080fd5b6104476004808035906020019091905050610d74565b005b341561045457600080fd5b61045c610df5565b6040518082815260200191505060405180910390f35b341561047d57600080fd5b6104c8600480803573ffffffffffffffffffffffffffffffffffffffff1690602001909190803573ffffffffffffffffffffffffffffffffffffffff16906020019091905050610e1a565b005b34156104d557600080fd5b610501600480803573ffffffffffffffffffffffffffffffffffffffff16906020019091905050610f78565b005b341561050e57600080fd5b61051661104a565b604051808215151515815260200191505060405180910390f35b341561053b57600080fd5b61055160048080359060200190919050506110aa565b005b341561055e57600080fd5b610595600480803573ffffffffffffffffffffffffffffffffffffffff16906020019091908035151590602001909190505061112b565b005b34156105a257600080fd5b6105ce600480803573ffffffffffffffffffffffffffffffffffffffff169060200190919050506111fd565b005b34156105db57600080fd5b6105e361135b565b6040518082815260200191505060405180910390f35b341561060457600080fd5b610630600480803573ffffffffffffffffffffffffffffffffffffffff169060200190919050506114b2565b005b341561063d57600080fd5b610669600480803573ffffffffffffffffffffffffffffffffffffffff16906020019091905050611607565b604051808215151515815260200191505060405180910390f35b341561068e57600080fd5b61069661165d565b604051808273ffffffffffffffffffffffffffffffffffffffff1673ffffffffffffffffffffffffffffffffffffffff16815260200191505060405180910390f35b60035481565b60066020528060005260406000206000915054906101000a900460ff1681565b6000600960008373ffffffffffffffffffffffffffffffffffffffff1673ffffffffffffffffffffffffffffffffffffffff16815260200190815260200160002060009054906101000a900473ffffffffffffffffffffffffffffffffffffffff169050919050565b60055481565b6000809054906101000a900473ffffffffffffffffffffffffffffffffffffffff1673ffffffffffffffffffffffffffffffffffffffff163373ffffffffffffffffffffffffffffffffffffffff161415156107c857600080fd5b600060149054906101000a900460ff161515156107e457600080fd5b8060048190555050565b6000809054906101000a900473ffffffffffffffffffffffffffffffffffffffff1673ffffffffffffffffffffffffffffffffffffffff163373ffffffffffffffffffffffffffffffffffffffff1614151561084957600080fd5b600160009054906101000a900473ffffffffffffffffffffffffffffffffffffffff1673ffffffffffffffffffffffffffffffffffffffff166323b872dd306000809054906101000a900473ffffffffffffffffffffffffffffffffffffffff16600160009054906101000a900473ffffffffffffffffffffffffffffffffffffffff1673ffffffffffffffffffffffffffffffffffffffff166370a08231306000604051602001526040518263ffffffff167c0100000000000000000000000000000000000000000000000000000000028152600401808273ffffffffffffffffffffffffffffffffffffffff1673ffffffffffffffffffffffffffffffffffffffff168152602001915050602060405180830381600087803b151561096f57600080fd5b6102c65a03f1151561098057600080fd5b505050604051805190506000604051602001526040518463ffffffff167c0100000000000000000000000000000000000000000000000000000000028152600401808473ffffffffffffffffffffffffffffffffffffffff1673ffffffffffffffffffffffffffffffffffffffff1681526020018373ffffffffffffffffffffffffffffffffffffffff1673ffffffffffffffffffffffffffffffffffffffff1681526020018281526020019350505050602060405180830381600087803b1515610a4a57600080fd5b6102c65a03f11515610a5b57600080fd5b5050506040518051905050610a6e611683565b565b60076020528060005260406000206000915090508060000154908060010154905082565b600080600060149054906101000a900460ff16151515610ab357600080fd5b349150610abf8261178f565b9050610ac961135b565b8111151515610ad757600080fd5b600160009054906101000a900473ffffffffffffffffffffffffffffffffffffffff1673ffffffffffffffffffffffffffffffffffffffff166370a082316000809054906101000a900473ffffffffffffffffffffffffffffffffffffffff166000604051602001526040518263ffffffff167c0100000000000000000000000000000000000000000000000000000000028152600401808273ffffffffffffffffffffffffffffffffffffffff1673ffffffffffffffffffffffffffffffffffffffff168152602001915050602060405180830381600087803b1515610bbd57600080fd5b6102c65a03f11515610bce57600080fd5b505050604051805190508111151515610be657600080fd5b60035482101580610bf957506000600354145b1515610c0457600080fd5b610c0e82826117d7565b5050565b60045481565b6000809054906101000a900473ffffffffffffffffffffffffffffffffffffffff1673ffffffffffffffffffffffffffffffffffffffff163373ffffffffffffffffffffffffffffffffffffffff16141515610c7357600080fd5b600060149054906101000a900460ff16151515610c8f57600080fd5b8060038190555050565b600660003373ffffffffffffffffffffffffffffffffffffffff1673ffffffffffffffffffffffffffffffffffffffff16815260200190815260200160002060009054906101000a900460ff161515610cf157600080fd5b600060149054906101000a900460ff16151515610d0d57600080fd5b610d178282610e1a565b610d2082611607565b151515610d2c57600080fd5b610d3582611876565b5050565b6000809054906101000a900473ffffffffffffffffffffffffffffffffffffffff1681565b60008060149054906101000a900460ff16905090565b6000809054906101000a900473ffffffffffffffffffffffffffffffffffffffff1673ffffffffffffffffffffffffffffffffffffffff163373ffffffffffffffffffffffffffffffffffffffff16141515610dcf57600080fd5b600060149054906101000a900460ff16151515610deb57600080fd5b8060028190555050565b60008060149054906101000a900460ff16151515610e1257600080fd5b600254905090565b600660003373ffffffffffffffffffffffffffffffffffffffff1673ffffffffffffffffffffffffffffffffffffffff16815260200190815260200160002060009054906101000a900460ff161515610e7257600080fd5b6000600960008473ffffffffffffffffffffffffffffffffffffffff1673ffffffffffffffffffffffffffffffffffffffff16815260200190815260200160002060009054906101000a900473ffffffffffffffffffffffffffffffffffffffff1673ffffffffffffffffffffffffffffffffffffffff16141515610ef657600080fd5b80600960008473ffffffffffffffffffffffffffffffffffffffff1673ffffffffffffffffffffffffffffffffffffffff16815260200190815260200160002060006101000a81548173ffffffffffffffffffffffffffffffffffffffff021916908373ffffffffffffffffffffffffffffffffffffffff1602179055505050565b6000809054906101000a900473ffffffffffffffffffffffffffffffffffffffff1673ffffffffffffffffffffffffffffffffffffffff163373ffffffffffffffffffffffffffffffffffffffff16141515610fd357600080fd5b600060149054906101000a900460ff16151515610fef57600080fd5b6001600860008373ffffffffffffffffffffffffffffffffffffffff1673ffffffffffffffffffffffffffffffffffffffff16815260200190815260200160002060006101000a81548160ff02191690831515021790555050565b60008060019050611059610d5e565b1561106757600090506110a3565b600060045411156110865742600454111561108157600090505b6110a2565b600060055411156110a1574260055410156110a057600090505b5b5b5b8091505090565b6000809054906101000a900473ffffffffffffffffffffffffffffffffffffffff1673ffffffffffffffffffffffffffffffffffffffff163373ffffffffffffffffffffffffffffffffffffffff1614151561110557600080fd5b600060149054906101000a900460ff1615151561112157600080fd5b8060058190555050565b6000809054906101000a900473ffffffffffffffffffffffffffffffffffffffff1673ffffffffffffffffffffffffffffffffffffffff163373ffffffffffffffffffffffffffffffffffffffff1614151561118657600080fd5b600060149054906101000a900460ff161515156111a257600080fd5b80600660008473ffffffffffffffffffffffffffffffffffffffff1673ffffffffffffffffffffffffffffffffffffffff16815260200190815260200160002060006101000a81548160ff0219169083151502179055505050565b600660003373ffffffffffffffffffffffffffffffffffffffff1673ffffffffffffffffffffffffffffffffffffffff16815260200190815260200160002060009054906101000a900460ff16151561125557600080fd5b600860003373ffffffffffffffffffffffffffffffffffffffff1673ffffffffffffffffffffffffffffffffffffffff16815260200190815260200160002060009054906101000a900460ff161515156112ae57600080fd5b6000600960003373ffffffffffffffffffffffffffffffffffffffff1673ffffffffffffffffffffffffffffffffffffffff16815260200190815260200160002060009054906101000a900473ffffffffffffffffffffffffffffffffffffffff1673ffffffffffffffffffffffffffffffffffffffff161415151561133357600080fd5b600060149054906101000a900460ff1615151561134f57600080fd5b61135881611876565b50565b60008060149054906101000a900460ff1615151561137857600080fd5b600160009054906101000a900473ffffffffffffffffffffffffffffffffffffffff1673ffffffffffffffffffffffffffffffffffffffff1663dd62ed3e6000809054906101000a900473ffffffffffffffffffffffffffffffffffffffff16306000604051602001526040518363ffffffff167c0100000000000000000000000000000000000000000000000000000000028152600401808373ffffffffffffffffffffffffffffffffffffffff1673ffffffffffffffffffffffffffffffffffffffff1681526020018273ffffffffffffffffffffffffffffffffffffffff1673ffffffffffffffffffffffffffffffffffffffff16815260200192505050602060405180830381600087803b151561149257600080fd5b6102c65a03f115156114a357600080fd5b50505060405180519050905090565b6000809054906101000a900473ffffffffffffffffffffffffffffffffffffffff1673ffffffffffffffffffffffffffffffffffffffff163373ffffffffffffffffffffffffffffffffffffffff1614151561150d57600080fd5b600073ffffffffffffffffffffffffffffffffffffffff168173ffffffffffffffffffffffffffffffffffffffff161415151561154957600080fd5b8073ffffffffffffffffffffffffffffffffffffffff166000809054906101000a900473ffffffffffffffffffffffffffffffffffffffff1673ffffffffffffffffffffffffffffffffffffffff167f8be0079c531659141344cd1fd0a4f28419497f9722a3daafe3b4186f6b6457e060405160405180910390a3806000806101000a81548173ffffffffffffffffffffffffffffffffffffffff021916908373ffffffffffffffffffffffffffffffffffffffff16021790555050565b6000600860008373ffffffffffffffffffffffffffffffffffffffff1673ffffffffffffffffffffffffffffffffffffffff16815260200190815260200160002060009054906101000a900460ff169050919050565b600160009054906101000a900473ffffffffffffffffffffffffffffffffffffffff1681565b6000809054906101000a900473ffffffffffffffffffffffffffffffffffffffff1673ffffffffffffffffffffffffffffffffffffffff163373ffffffffffffffffffffffffffffffffffffffff161415156116de57600080fd5b600060149054906101000a900460ff161515156116fa57600080fd5b6001600060146101000a81548160ff0219169083151502179055506000809054906101000a900473ffffffffffffffffffffffffffffffffffffffff1673ffffffffffffffffffffffffffffffffffffffff166108fc3073ffffffffffffffffffffffffffffffffffffffff16319081150290604051600060405180830381858888f19350505050151561178d57600080fd5b565b60008060149054906101000a900460ff161515156117ac57600080fd5b6117c16117b7610df5565b633b9aca006118da565b6117cf83633b9aca006118da565b029050919050565b6000600860003373ffffffffffffffffffffffffffffffffffffffff1673ffffffffffffffffffffffffffffffffffffffff16815260200190815260200160002060009054906101000a900460ff1615151561183257600080fd5b33905061183f8383611901565b600061184a826106fe565b73ffffffffffffffffffffffffffffffffffffffff16141515611871576118708161193e565b5b505050565b600660003373ffffffffffffffffffffffffffffffffffffffff1673ffffffffffffffffffffffffffffffffffffffff16815260200190815260200160002060009054906101000a900460ff1615156118ce57600080fd5b6118d78161193e565b50565b6000806000831115156118e957fe5b82848115156118f457fe5b0490508091505092915050565b61190961104a565b151561191457600080fd5b600060149054906101000a900460ff1615151561193057600080fd5b61193a8282611a9f565b5050565b6000600760008373ffffffffffffffffffffffffffffffffffffffff1673ffffffffffffffffffffffffffffffffffffffff168152602001908152602001600020600101541115611a9c573073ffffffffffffffffffffffffffffffffffffffff166108fc600760008473ffffffffffffffffffffffffffffffffffffffff1673ffffffffffffffffffffffffffffffffffffffff168152602001908152602001600020600001549081150290604051600060405180830381858888f193505050501515611a0b57600080fd5b6000600760003373ffffffffffffffffffffffffffffffffffffffff1673ffffffffffffffffffffffffffffffffffffffff168152602001908152602001600020600101819055506000600760003373ffffffffffffffffffffffffffffffffffffffff1673ffffffffffffffffffffffffffffffffffffffff168152602001908152602001600020600001819055505b50565b600060149054906101000a900460ff16151515611abb57600080fd5b611ac482611ad1565b611acd81611bfe565b5050565b80600760003373ffffffffffffffffffffffffffffffffffffffff1673ffffffffffffffffffffffffffffffffffffffff1681526020019081526020016000206000015401600760003373ffffffffffffffffffffffffffffffffffffffff1673ffffffffffffffffffffffffffffffffffffffff168152602001908152602001600020600001819055507f01a6dd555a0168dd57f865ff16599bedf1cbe954ed60757e28cf137f079c70a8303383604051808473ffffffffffffffffffffffffffffffffffffffff1673ffffffffffffffffffffffffffffffffffffffff1681526020018373ffffffffffffffffffffffffffffffffffffffff1673ffffffffffffffffffffffffffffffffffffffff168152602001828152602001935050505060405180910390a150565b80600760003373ffffffffffffffffffffffffffffffffffffffff1673ffffffffffffffffffffffffffffffffffffffff1681526020019081526020016000206001015401600760003373ffffffffffffffffffffffffffffffffffffffff1673ffffffffffffffffffffffffffffffffffffffff16815260200190815260200160002060010181905550600160009054906101000a900473ffffffffffffffffffffffffffffffffffffffff1673ffffffffffffffffffffffffffffffffffffffff166323b872dd6000809054906101000a900473ffffffffffffffffffffffffffffffffffffffff1630846000604051602001526040518463ffffffff167c0100000000000000000000000000000000000000000000000000000000028152600401808473ffffffffffffffffffffffffffffffffffffffff1673ffffffffffffffffffffffffffffffffffffffff1681526020018373ffffffffffffffffffffffffffffffffffffffff1673ffffffffffffffffffffffffffffffffffffffff1681526020018281526020019350505050602060405180830381600087803b1515611dab57600080fd5b6102c65a03f11515611dbc57600080fd5b5050506040518051905050505600a165627a7a723058204c0c53487c031ac2014b84776cca2d0a57ad9fd69244ff4269900ae57b4a897c0029",
  "source": "pragma solidity ^0.4.19;\n\nimport \"./XYPendingTokenSale.sol\";\nimport \"./XYProofOfEligibility.sol\";\n\ncontract XYEligibleTokenSale is XYPendingTokenSale, XYProofOfEligibility {\n\n  function XYEligibleTokenSale(address _token, uint _price, uint _minEther, uint _startTime, uint _endTime)\n  public XYPendingTokenSale(_token, _price, _minEther, _startTime, _endTime) {}\n\n  function approve(address _buyer, address _proofOfEligibility) public onlyApprovers notKilled {\n    setEligiblity(_buyer, _proofOfEligibility);\n    require(!isBlocked(_buyer));\n    super.approve(_buyer);\n  }\n\n  //this should never be used, but it prevents a call-around\n  function approve(address _buyer) public onlyApprovers onlyNotBlocked onlyEligible notKilled {\n    super.approve(_buyer);\n  }\n\n  function _purchase(uint _ethAmount, uint _tokenAmount) internal onlyNotBlocked {\n    address buyer = msg.sender;\n    super._purchase(_ethAmount, _tokenAmount);\n\n    //if the buyer is eligible, auto approve\n    if (getEligiblity(buyer) != 0) {\n      _approve(buyer);\n    }\n  }\n}\n",
  "sourcePath": "/Users/arietrouw/xyoraclenetwork/xyo-solidity/src/contracts/TokenSale/XYEligibleTokenSale.sol",
  "compiler": {
    "name": "solc",
    "version": "0.4.19+commit.c4cbbb05.Emscripten.clang"
  },
  "schemaVersion": "2.0.0",
  "updatedAt": "2018-03-17T21:53:36.021Z"
}