{
  "contractName": "XYKillable",
  "abi": [
    {
      "constant": true,
      "inputs": [],
      "name": "owner",
      "outputs": [
        {
          "name": "",
          "type": "address"
        }
      ],
      "payable": false,
      "stateMutability": "view",
      "type": "function"
    },
    {
      "constant": false,
      "inputs": [
        {
          "name": "newOwner",
          "type": "address"
        }
      ],
      "name": "transferOwnership",
      "outputs": [],
      "payable": false,
      "stateMutability": "nonpayable",
      "type": "function"
    },
    {
      "anonymous": false,
      "inputs": [
        {
          "indexed": true,
          "name": "previousOwner",
          "type": "address"
        },
        {
          "indexed": true,
          "name": "newOwner",
          "type": "address"
        }
      ],
      "name": "OwnershipTransferred",
      "type": "event"
    },
    {
      "constant": false,
      "inputs": [],
      "name": "kill",
      "outputs": [],
      "payable": false,
      "stateMutability": "nonpayable",
      "type": "function"
    },
    {
      "constant": true,
      "inputs": [],
      "name": "isKilled",
      "outputs": [
        {
          "name": "",
          "type": "bool"
        }
      ],
      "payable": false,
      "stateMutability": "view",
      "type": "function"
    }
  ],
  "bytecode": "0x6060604052336000806101000a81548173ffffffffffffffffffffffffffffffffffffffff021916908373ffffffffffffffffffffffffffffffffffffffff1602179055506103ff806100536000396000f300606060405260043610610062576000357c0100000000000000000000000000000000000000000000000000000000900463ffffffff16806341c0e1b5146100675780638da5cb5b1461007c5780638fe8a101146100d1578063f2fde38b146100fe575b600080fd5b341561007257600080fd5b61007a610137565b005b341561008757600080fd5b61008f610243565b604051808273ffffffffffffffffffffffffffffffffffffffff1673ffffffffffffffffffffffffffffffffffffffff16815260200191505060405180910390f35b34156100dc57600080fd5b6100e4610268565b604051808215151515815260200191505060405180910390f35b341561010957600080fd5b610135600480803573ffffffffffffffffffffffffffffffffffffffff1690602001909190505061027e565b005b6000809054906101000a900473ffffffffffffffffffffffffffffffffffffffff1673ffffffffffffffffffffffffffffffffffffffff163373ffffffffffffffffffffffffffffffffffffffff1614151561019257600080fd5b600060149054906101000a900460ff161515156101ae57600080fd5b6001600060146101000a81548160ff0219169083151502179055506000809054906101000a900473ffffffffffffffffffffffffffffffffffffffff1673ffffffffffffffffffffffffffffffffffffffff166108fc3073ffffffffffffffffffffffffffffffffffffffff16319081150290604051600060405180830381858888f19350505050151561024157600080fd5b565b6000809054906101000a900473ffffffffffffffffffffffffffffffffffffffff1681565b60008060149054906101000a900460ff16905090565b6000809054906101000a900473ffffffffffffffffffffffffffffffffffffffff1673ffffffffffffffffffffffffffffffffffffffff163373ffffffffffffffffffffffffffffffffffffffff161415156102d957600080fd5b600073ffffffffffffffffffffffffffffffffffffffff168173ffffffffffffffffffffffffffffffffffffffff161415151561031557600080fd5b8073ffffffffffffffffffffffffffffffffffffffff166000809054906101000a900473ffffffffffffffffffffffffffffffffffffffff1673ffffffffffffffffffffffffffffffffffffffff167f8be0079c531659141344cd1fd0a4f28419497f9722a3daafe3b4186f6b6457e060405160405180910390a3806000806101000a81548173ffffffffffffffffffffffffffffffffffffffff021916908373ffffffffffffffffffffffffffffffffffffffff160217905550505600a165627a7a72305820ba752b1c23dc987320225cd5115052278c398c798888fc821dfdcce5024fc8c30029",
  "source": "pragma solidity ^0.4.19;\n\nimport \"./Ownable.sol\";\n\ncontract XYKillable is Ownable {\n  bool private _isKilled;\n\n  // this marks the contract dead forever - no more transactions\n  // flushes all ETH from the contract to the seller\n  function kill() public onlyOwner notKilled {\n    _isKilled = true;\n    owner.transfer(address(this).balance);\n  }\n\n  function isKilled() public view returns (bool) {\n    return _isKilled;\n  }\n\n  modifier killed() {\n    require(_isKilled);\n    _;\n  }\n\n  modifier notKilled() {\n    require(!_isKilled);\n    _;\n  }\n}\n",
  "sourcePath": "/Users/arietrouw/xyoraclenetwork/xyo-solidity/src/contracts/TokenSale/XYKillable.sol",
  "compiler": {
    "name": "solc",
    "version": "0.4.19+commit.c4cbbb05.Emscripten.clang"
  },
  "schemaVersion": "2.0.0",
  "updatedAt": "2018-03-17T21:53:36.022Z"
}