{
  "contractName": "XYOfficialTokenSale",
  "abi": [
    {
      "constant": true,
      "inputs": [],
      "name": "minEther",
      "outputs": [
        {
          "name": "",
          "type": "uint256"
        }
      ],
      "payable": false,
      "stateMutability": "view",
      "type": "function"
    },
    {
      "constant": true,
      "inputs": [
        {
          "name": "",
          "type": "address"
        }
      ],
      "name": "eligible",
      "outputs": [
        {
          "name": "",
          "type": "address"
        }
      ],
      "payable": false,
      "stateMutability": "view",
      "type": "function"
    },
    {
      "constant": true,
      "inputs": [
        {
          "name": "",
          "type": "address"
        }
      ],
      "name": "approvers",
      "outputs": [
        {
          "name": "",
          "type": "bool"
        }
      ],
      "payable": false,
      "stateMutability": "view",
      "type": "function"
    },
    {
      "constant": true,
      "inputs": [],
      "name": "killed",
      "outputs": [
        {
          "name": "",
          "type": "bool"
        }
      ],
      "payable": false,
      "stateMutability": "view",
      "type": "function"
    },
    {
      "constant": true,
      "inputs": [],
      "name": "endTime",
      "outputs": [
        {
          "name": "",
          "type": "uint256"
        }
      ],
      "payable": false,
      "stateMutability": "view",
      "type": "function"
    },
    {
      "constant": false,
      "inputs": [
        {
          "name": "_startTime",
          "type": "uint256"
        }
      ],
      "name": "setStartTime",
      "outputs": [],
      "payable": false,
      "stateMutability": "nonpayable",
      "type": "function"
    },
    {
      "constant": false,
      "inputs": [],
      "name": "kill",
      "outputs": [],
      "payable": false,
      "stateMutability": "nonpayable",
      "type": "function"
    },
    {
      "constant": true,
      "inputs": [
        {
          "name": "",
          "type": "address"
        }
      ],
      "name": "pending",
      "outputs": [
        {
          "name": "eth",
          "type": "uint256"
        },
        {
          "name": "tokens",
          "type": "uint256"
        }
      ],
      "payable": false,
      "stateMutability": "view",
      "type": "function"
    },
    {
      "constant": false,
      "inputs": [],
      "name": "purchase",
      "outputs": [],
      "payable": true,
      "stateMutability": "payable",
      "type": "function"
    },
    {
      "constant": true,
      "inputs": [],
      "name": "numberSold",
      "outputs": [
        {
          "name": "",
          "type": "uint256"
        }
      ],
      "payable": false,
      "stateMutability": "view",
      "type": "function"
    },
    {
      "constant": true,
      "inputs": [],
      "name": "startTime",
      "outputs": [
        {
          "name": "",
          "type": "uint256"
        }
      ],
      "payable": false,
      "stateMutability": "view",
      "type": "function"
    },
    {
      "constant": false,
      "inputs": [
        {
          "name": "_minEther",
          "type": "uint256"
        }
      ],
      "name": "setMinEther",
      "outputs": [],
      "payable": false,
      "stateMutability": "nonpayable",
      "type": "function"
    },
    {
      "constant": false,
      "inputs": [
        {
          "name": "_buyer",
          "type": "address"
        },
        {
          "name": "_proofOfEligibility",
          "type": "address"
        }
      ],
      "name": "approve",
      "outputs": [],
      "payable": false,
      "stateMutability": "nonpayable",
      "type": "function"
    },
    {
      "constant": true,
      "inputs": [],
      "name": "totalVariableTokens",
      "outputs": [
        {
          "name": "",
          "type": "uint256"
        }
      ],
      "payable": false,
      "stateMutability": "view",
      "type": "function"
    },
    {
      "constant": true,
      "inputs": [],
      "name": "owner",
      "outputs": [
        {
          "name": "",
          "type": "address"
        }
      ],
      "payable": false,
      "stateMutability": "view",
      "type": "function"
    },
    {
      "constant": false,
      "inputs": [
        {
          "name": "_wallet",
          "type": "address"
        },
        {
          "name": "_proof",
          "type": "address"
        }
      ],
      "name": "setEligiblity",
      "outputs": [],
      "payable": false,
      "stateMutability": "nonpayable",
      "type": "function"
    },
    {
      "constant": false,
      "inputs": [
        {
          "name": "_address",
          "type": "address"
        }
      ],
      "name": "blockAddress",
      "outputs": [],
      "payable": false,
      "stateMutability": "nonpayable",
      "type": "function"
    },
    {
      "constant": true,
      "inputs": [],
      "name": "endPrice",
      "outputs": [
        {
          "name": "",
          "type": "uint256"
        }
      ],
      "payable": false,
      "stateMutability": "view",
      "type": "function"
    },
    {
      "constant": true,
      "inputs": [],
      "name": "isLive",
      "outputs": [
        {
          "name": "",
          "type": "bool"
        }
      ],
      "payable": false,
      "stateMutability": "view",
      "type": "function"
    },
    {
      "constant": false,
      "inputs": [
        {
          "name": "_endTime",
          "type": "uint256"
        }
      ],
      "name": "setEndTime",
      "outputs": [],
      "payable": false,
      "stateMutability": "nonpayable",
      "type": "function"
    },
    {
      "constant": true,
      "inputs": [],
      "name": "totalFixedTokens",
      "outputs": [
        {
          "name": "",
          "type": "uint256"
        }
      ],
      "payable": false,
      "stateMutability": "view",
      "type": "function"
    },
    {
      "constant": false,
      "inputs": [
        {
          "name": "_approver",
          "type": "address"
        },
        {
          "name": "_enabled",
          "type": "bool"
        }
      ],
      "name": "setApprover",
      "outputs": [],
      "payable": false,
      "stateMutability": "nonpayable",
      "type": "function"
    },
    {
      "constant": false,
      "inputs": [
        {
          "name": "_buyer",
          "type": "address"
        }
      ],
      "name": "approve",
      "outputs": [],
      "payable": false,
      "stateMutability": "nonpayable",
      "type": "function"
    },
    {
      "constant": true,
      "inputs": [],
      "name": "getAvailableTokens",
      "outputs": [
        {
          "name": "",
          "type": "uint256"
        }
      ],
      "payable": false,
      "stateMutability": "view",
      "type": "function"
    },
    {
      "constant": true,
      "inputs": [
        {
          "name": "",
          "type": "address"
        }
      ],
      "name": "blocked",
      "outputs": [
        {
          "name": "",
          "type": "bool"
        }
      ],
      "payable": false,
      "stateMutability": "view",
      "type": "function"
    },
    {
      "constant": true,
      "inputs": [],
      "name": "startPrice",
      "outputs": [
        {
          "name": "",
          "type": "uint256"
        }
      ],
      "payable": false,
      "stateMutability": "view",
      "type": "function"
    },
    {
      "constant": false,
      "inputs": [
        {
          "name": "newOwner",
          "type": "address"
        }
      ],
      "name": "transferOwnership",
      "outputs": [],
      "payable": false,
      "stateMutability": "nonpayable",
      "type": "function"
    },
    {
      "constant": true,
      "inputs": [],
      "name": "token",
      "outputs": [
        {
          "name": "",
          "type": "address"
        }
      ],
      "payable": false,
      "stateMutability": "view",
      "type": "function"
    },
    {
      "inputs": [
        {
          "name": "_token",
          "type": "address"
        },
        {
          "name": "_minEther",
          "type": "uint256"
        },
        {
          "name": "_startTime",
          "type": "uint256"
        },
        {
          "name": "_endTime",
          "type": "uint256"
        },
        {
          "name": "_startPrice",
          "type": "uint256"
        },
        {
          "name": "_endPrice",
          "type": "uint256"
        },
        {
          "name": "_totalVariableTokens",
          "type": "uint256"
        },
        {
          "name": "_totalFixedTokens",
          "type": "uint256"
        }
      ],
      "payable": false,
      "stateMutability": "nonpayable",
      "type": "constructor"
    },
    {
      "payable": true,
      "stateMutability": "payable",
      "type": "fallback"
    },
    {
      "anonymous": false,
      "inputs": [
        {
          "indexed": false,
          "name": "seller",
          "type": "address"
        },
        {
          "indexed": false,
          "name": "buyer",
          "type": "address"
        },
        {
          "indexed": false,
          "name": "amount",
          "type": "uint256"
        }
      ],
      "name": "EtherAccepted",
      "type": "event"
    },
    {
      "anonymous": false,
      "inputs": [
        {
          "indexed": false,
          "name": "seller",
          "type": "address"
        },
        {
          "indexed": false,
          "name": "buyer",
          "type": "address"
        },
        {
          "indexed": false,
          "name": "amount",
          "type": "uint256"
        }
      ],
      "name": "TokensSent",
      "type": "event"
    },
    {
      "anonymous": false,
      "inputs": [
        {
          "indexed": true,
          "name": "previousOwner",
          "type": "address"
        },
        {
          "indexed": true,
          "name": "newOwner",
          "type": "address"
        }
      ],
      "name": "OwnershipTransferred",
      "type": "event"
    },
    {
      "constant": false,
      "inputs": [
        {
          "name": "",
          "type": "uint256"
        }
      ],
      "name": "setPrice",
      "outputs": [],
      "payable": false,
      "stateMutability": "nonpayable",
      "type": "function"
    },
    {
      "constant": true,
      "inputs": [],
      "name": "getPrice",
      "outputs": [
        {
          "name": "",
          "type": "uint256"
        }
      ],
      "payable": false,
      "stateMutability": "view",
      "type": "function"
    },
    {
      "constant": true,
      "inputs": [
        {
          "name": "_ethAmount",
          "type": "uint256"
        }
      ],
      "name": "predictTokensForEther",
      "outputs": [
        {
          "name": "",
          "type": "uint256"
        }
      ],
      "payable": false,
      "stateMutability": "view",
      "type": "function"
    },
    {
      "constant": true,
      "inputs": [
        {
          "name": "_ethAmount",
          "type": "uint256"
        },
        {
          "name": "_numberSold",
          "type": "uint256"
        }
      ],
      "name": "predictTokensForEther",
      "outputs": [
        {
          "name": "",
          "type": "uint256"
        }
      ],
      "payable": false,
      "stateMutability": "view",
      "type": "function"
    }
  ],
  "bytecode": "0x6060604052341561000f57600080fd5b6040516101008061263483398101604052808051906020019091908051906020019091908051906020019091908051906020019091908051906020019091908051906020019091908051906020019091908051906020019091905050878488888884848484848484848484848484336000806101000a81548173ffffffffffffffffffffffffffffffffffffffff021916908373ffffffffffffffffffffffffffffffffffffffff16021790555082600160006101000a81548173ffffffffffffffffffffffffffffffffffffffff021916908373ffffffffffffffffffffffffffffffffffffffff1602179055508160028190555080600381905550505050816004819055508060058190555050505050506001600660003373ffffffffffffffffffffffffffffffffffffffff1673ffffffffffffffffffffffffffffffffffffffff16815260200190815260200160002060006101000a81548160ff0219169083151502179055505050505050505050505083600b8190555082600c8190555081600d8190555080600e81905550505050505050505061247d806101b76000396000f300606060405260043610610196576000357c0100000000000000000000000000000000000000000000000000000000900463ffffffff168063051af15d146101bc5780630713b139146101e55780630a1443911461025e5780631f3a0e41146102af5780633197cbb6146102dc5780633e0a322d1461030557806341c0e1b5146103285780635eebea201461033d57806364edfbf0146103915780636ab77f231461039b57806378e97925146103c45780637aef1d4d146103ed5780637e5465ba146104105780637f92527c146104685780638da5cb5b1461049157806391b7f5ed146104e657806398d5fdca146105095780639ae4b1ab14610532578063ad2bb1b31461058a578063b868723e146105c3578063b8f7a665146105ec578063c70aa62f14610619578063ccb98ffc14610650578063ceb67a6114610673578063d76fd2e71461069c578063daea85c5146106e0578063e35568cb14610719578063e596219514610742578063efda7b6914610793578063f1a9af89146107d3578063f2fde38b146107fc578063fc0c546a14610835575b600060149054906101000a900460ff161515156101b257600080fd5b6101ba61088a565b005b34156101c757600080fd5b6101cf610a08565b6040518082815260200191505060405180910390f35b34156101f057600080fd5b61021c600480803573ffffffffffffffffffffffffffffffffffffffff16906020019091905050610a0e565b604051808273ffffffffffffffffffffffffffffffffffffffff1673ffffffffffffffffffffffffffffffffffffffff16815260200191505060405180910390f35b341561026957600080fd5b610295600480803573ffffffffffffffffffffffffffffffffffffffff16906020019091905050610a41565b604051808215151515815260200191505060405180910390f35b34156102ba57600080fd5b6102c2610a61565b604051808215151515815260200191505060405180910390f35b34156102e757600080fd5b6102ef610a74565b6040518082815260200191505060405180910390f35b341561031057600080fd5b6103266004808035906020019091905050610a7a565b005b341561033357600080fd5b61033b610afb565b005b341561034857600080fd5b610374600480803573ffffffffffffffffffffffffffffffffffffffff16906020019091905050610d7d565b604051808381526020018281526020019250505060405180910390f35b61039961088a565b005b34156103a657600080fd5b6103ae610da1565b6040518082815260200191505060405180910390f35b34156103cf57600080fd5b6103d7610da7565b6040518082815260200191505060405180910390f35b34156103f857600080fd5b61040e6004808035906020019091905050610dad565b005b341561041b57600080fd5b610466600480803573ffffffffffffffffffffffffffffffffffffffff1690602001909190803573ffffffffffffffffffffffffffffffffffffffff16906020019091905050610e2e565b005b341561047357600080fd5b61047b610f12565b6040518082815260200191505060405180910390f35b341561049c57600080fd5b6104a4610f18565b604051808273ffffffffffffffffffffffffffffffffffffffff1673ffffffffffffffffffffffffffffffffffffffff16815260200191505060405180910390f35b34156104f157600080fd5b6105076004808035906020019091905050610f3d565b005b341561051457600080fd5b61051c610fb9565b6040518082815260200191505060405180910390f35b341561053d57600080fd5b610588600480803573ffffffffffffffffffffffffffffffffffffffff1690602001909190803573ffffffffffffffffffffffffffffffffffffffff16906020019091905050610fec565b005b341561059557600080fd5b6105c1600480803573ffffffffffffffffffffffffffffffffffffffff1690602001909190505061114a565b005b34156105ce57600080fd5b6105d6611200565b6040518082815260200191505060405180910390f35b34156105f757600080fd5b6105ff611206565b604051808215151515815260200191505060405180910390f35b341561062457600080fd5b61063a600480803590602001909190505061126e565b6040518082815260200191505060405180910390f35b341561065b57600080fd5b610671600480803590602001909190505061129e565b005b341561067e57600080fd5b61068661131f565b6040518082815260200191505060405180910390f35b34156106a757600080fd5b6106de600480803573ffffffffffffffffffffffffffffffffffffffff169060200190919080351515906020019091905050611325565b005b34156106eb57600080fd5b610717600480803573ffffffffffffffffffffffffffffffffffffffff169060200190919050506113f7565b005b341561072457600080fd5b61072c611454565b6040518082815260200191505060405180910390f35b341561074d57600080fd5b610779600480803573ffffffffffffffffffffffffffffffffffffffff169060200190919050506115ab565b604051808215151515815260200191505060405180910390f35b341561079e57600080fd5b6107bd60048080359060200190919080359060200190919050506115cb565b6040518082815260200191505060405180910390f35b34156107de57600080fd5b6107e6611606565b6040518082815260200191505060405180910390f35b341561080757600080fd5b610833600480803573ffffffffffffffffffffffffffffffffffffffff1690602001909190505061160c565b005b341561084057600080fd5b610848611761565b604051808273ffffffffffffffffffffffffffffffffffffffff1673ffffffffffffffffffffffffffffffffffffffff16815260200191505060405180910390f35b600080600060149054906101000a900460ff161515156108a957600080fd5b3491506108b582611787565b90506108bf611454565b81111515156108cd57600080fd5b600160009054906101000a900473ffffffffffffffffffffffffffffffffffffffff1673ffffffffffffffffffffffffffffffffffffffff166370a082316000809054906101000a900473ffffffffffffffffffffffffffffffffffffffff166000604051602001526040518263ffffffff167c0100000000000000000000000000000000000000000000000000000000028152600401808273ffffffffffffffffffffffffffffffffffffffff1673ffffffffffffffffffffffffffffffffffffffff168152602001915050602060405180830381600087803b15156109b357600080fd5b6102c65a03f115156109c457600080fd5b5050506040518051905081111515156109dc57600080fd5b600354821015806109ef57506000600354145b15156109fa57600080fd5b610a0482826117c3565b5050565b60035481565b60096020528060005260406000206000915054906101000a900473ffffffffffffffffffffffffffffffffffffffff1681565b60066020528060005260406000206000915054906101000a900460ff1681565b600060149054906101000a900460ff1681565b60055481565b6000809054906101000a900473ffffffffffffffffffffffffffffffffffffffff1673ffffffffffffffffffffffffffffffffffffffff163373ffffffffffffffffffffffffffffffffffffffff16141515610ad557600080fd5b600060149054906101000a900460ff16151515610af157600080fd5b8060048190555050565b6000809054906101000a900473ffffffffffffffffffffffffffffffffffffffff1673ffffffffffffffffffffffffffffffffffffffff163373ffffffffffffffffffffffffffffffffffffffff16141515610b5657600080fd5b600160009054906101000a900473ffffffffffffffffffffffffffffffffffffffff1673ffffffffffffffffffffffffffffffffffffffff166323b872dd306000809054906101000a900473ffffffffffffffffffffffffffffffffffffffff16600160009054906101000a900473ffffffffffffffffffffffffffffffffffffffff1673ffffffffffffffffffffffffffffffffffffffff166370a08231306000604051602001526040518263ffffffff167c0100000000000000000000000000000000000000000000000000000000028152600401808273ffffffffffffffffffffffffffffffffffffffff1673ffffffffffffffffffffffffffffffffffffffff168152602001915050602060405180830381600087803b1515610c7c57600080fd5b6102c65a03f11515610c8d57600080fd5b505050604051805190506000604051602001526040518463ffffffff167c0100000000000000000000000000000000000000000000000000000000028152600401808473ffffffffffffffffffffffffffffffffffffffff1673ffffffffffffffffffffffffffffffffffffffff1681526020018373ffffffffffffffffffffffffffffffffffffffff1673ffffffffffffffffffffffffffffffffffffffff1681526020018281526020019350505050602060405180830381600087803b1515610d5757600080fd5b6102c65a03f11515610d6857600080fd5b5050506040518051905050610d7b6118b9565b565b60086020528060005260406000206000915090508060000154908060010154905082565b600a5481565b60045481565b6000809054906101000a900473ffffffffffffffffffffffffffffffffffffffff1673ffffffffffffffffffffffffffffffffffffffff163373ffffffffffffffffffffffffffffffffffffffff16141515610e0857600080fd5b600060149054906101000a900460ff16151515610e2457600080fd5b8060038190555050565b600660003373ffffffffffffffffffffffffffffffffffffffff1673ffffffffffffffffffffffffffffffffffffffff16815260200190815260200160002060009054906101000a900460ff161515610e8657600080fd5b600060149054906101000a900460ff16151515610ea257600080fd5b600760008373ffffffffffffffffffffffffffffffffffffffff1673ffffffffffffffffffffffffffffffffffffffff16815260200190815260200160002060009054906101000a900460ff16151515610efb57600080fd5b610f058282610fec565b610f0e826119c5565b5050565b600d5481565b6000809054906101000a900473ffffffffffffffffffffffffffffffffffffffff1681565b6000809054906101000a900473ffffffffffffffffffffffffffffffffffffffff1673ffffffffffffffffffffffffffffffffffffffff163373ffffffffffffffffffffffffffffffffffffffff16141515610f9857600080fd5b600060149054906101000a900460ff16151515610fb457600080fd5b600080fd5b60008060149054906101000a900460ff16151515610fd657600080fd5b610fe7670de0b6b3a7640000611787565b905090565b600660003373ffffffffffffffffffffffffffffffffffffffff1673ffffffffffffffffffffffffffffffffffffffff16815260200190815260200160002060009054906101000a900460ff16151561104457600080fd5b6000600960008473ffffffffffffffffffffffffffffffffffffffff1673ffffffffffffffffffffffffffffffffffffffff16815260200190815260200160002060009054906101000a900473ffffffffffffffffffffffffffffffffffffffff1673ffffffffffffffffffffffffffffffffffffffff161415156110c857600080fd5b80600960008473ffffffffffffffffffffffffffffffffffffffff1673ffffffffffffffffffffffffffffffffffffffff16815260200190815260200160002060006101000a81548173ffffffffffffffffffffffffffffffffffffffff021916908373ffffffffffffffffffffffffffffffffffffffff1602179055505050565b6000809054906101000a900473ffffffffffffffffffffffffffffffffffffffff1673ffffffffffffffffffffffffffffffffffffffff163373ffffffffffffffffffffffffffffffffffffffff161415156111a557600080fd5b6001600760008373ffffffffffffffffffffffffffffffffffffffff1673ffffffffffffffffffffffffffffffffffffffff16815260200190815260200160002060006101000a81548160ff02191690831515021790555050565b600c5481565b60008060019050600060149054906101000a900460ff161561122b5760009050611267565b6000600454111561124a5742600454111561124557600090505b611266565b600060055411156112655742600554101561126457600090505b5b5b5b8091505090565b60008060149054906101000a900460ff1615151561128b57600080fd5b61129782600a546115cb565b9050919050565b6000809054906101000a900473ffffffffffffffffffffffffffffffffffffffff1673ffffffffffffffffffffffffffffffffffffffff163373ffffffffffffffffffffffffffffffffffffffff161415156112f957600080fd5b600060149054906101000a900460ff1615151561131557600080fd5b8060058190555050565b600e5481565b6000809054906101000a900473ffffffffffffffffffffffffffffffffffffffff1673ffffffffffffffffffffffffffffffffffffffff163373ffffffffffffffffffffffffffffffffffffffff1614151561138057600080fd5b600060149054906101000a900460ff1615151561139c57600080fd5b80600660008473ffffffffffffffffffffffffffffffffffffffff1673ffffffffffffffffffffffffffffffffffffffff16815260200190815260200160002060006101000a81548160ff0219169083151502179055505050565b600660003373ffffffffffffffffffffffffffffffffffffffff1673ffffffffffffffffffffffffffffffffffffffff16815260200190815260200160002060009054906101000a900460ff16151561144f57600080fd5b600080fd5b60008060149054906101000a900460ff1615151561147157600080fd5b600160009054906101000a900473ffffffffffffffffffffffffffffffffffffffff1673ffffffffffffffffffffffffffffffffffffffff1663dd62ed3e6000809054906101000a900473ffffffffffffffffffffffffffffffffffffffff16306000604051602001526040518363ffffffff167c0100000000000000000000000000000000000000000000000000000000028152600401808373ffffffffffffffffffffffffffffffffffffffff1673ffffffffffffffffffffffffffffffffffffffff1681526020018273ffffffffffffffffffffffffffffffffffffffff1673ffffffffffffffffffffffffffffffffffffffff16815260200192505050602060405180830381600087803b151561158b57600080fd5b6102c65a03f1151561159c57600080fd5b50505060405180519050905090565b60076020528060005260406000206000915054906101000a900460ff1681565b60008060149054906101000a900460ff161515156115e857600080fd5b6115fe8284600b54600c54600d54600e54611c40565b905092915050565b600b5481565b6000809054906101000a900473ffffffffffffffffffffffffffffffffffffffff1673ffffffffffffffffffffffffffffffffffffffff163373ffffffffffffffffffffffffffffffffffffffff1614151561166757600080fd5b600073ffffffffffffffffffffffffffffffffffffffff168173ffffffffffffffffffffffffffffffffffffffff16141515156116a357600080fd5b8073ffffffffffffffffffffffffffffffffffffffff166000809054906101000a900473ffffffffffffffffffffffffffffffffffffffff1673ffffffffffffffffffffffffffffffffffffffff167f8be0079c531659141344cd1fd0a4f28419497f9722a3daafe3b4186f6b6457e060405160405180910390a3806000806101000a81548173ffffffffffffffffffffffffffffffffffffffff021916908373ffffffffffffffffffffffffffffffffffffffff16021790555050565b600160009054906101000a900473ffffffffffffffffffffffffffffffffffffffff1681565b60008060149054906101000a900460ff161515156117a457600080fd5b6117bc600a5483600b54600c54600d54600e54611c40565b9050919050565b6000600760003373ffffffffffffffffffffffffffffffffffffffff1673ffffffffffffffffffffffffffffffffffffffff16815260200190815260200160002060009054906101000a900460ff1615151561181e57600080fd5b33905061182b8383611d46565b6000600960008373ffffffffffffffffffffffffffffffffffffffff1673ffffffffffffffffffffffffffffffffffffffff16815260200190815260200160002060009054906101000a900473ffffffffffffffffffffffffffffffffffffffff1673ffffffffffffffffffffffffffffffffffffffff161415156118b4576118b3816119c5565b5b505050565b6000809054906101000a900473ffffffffffffffffffffffffffffffffffffffff1673ffffffffffffffffffffffffffffffffffffffff163373ffffffffffffffffffffffffffffffffffffffff1614151561191457600080fd5b600060149054906101000a900460ff1615151561193057600080fd5b6001600060146101000a81548160ff0219169083151502179055506000809054906101000a900473ffffffffffffffffffffffffffffffffffffffff1673ffffffffffffffffffffffffffffffffffffffff166108fc3073ffffffffffffffffffffffffffffffffffffffff16319081150290604051600060405180830381858888f1935050505015156119c357600080fd5b565b6000600860008373ffffffffffffffffffffffffffffffffffffffff1673ffffffffffffffffffffffffffffffffffffffff168152602001908152602001600020600101541115611c3d578073ffffffffffffffffffffffffffffffffffffffff166108fc600860008473ffffffffffffffffffffffffffffffffffffffff1673ffffffffffffffffffffffffffffffffffffffff168152602001908152602001600020600001549081150290604051600060405180830381858888f193505050501515611a9257600080fd5b600160009054906101000a900473ffffffffffffffffffffffffffffffffffffffff1673ffffffffffffffffffffffffffffffffffffffff1663a9059cbb82600860008573ffffffffffffffffffffffffffffffffffffffff1673ffffffffffffffffffffffffffffffffffffffff168152602001908152602001600020600101546040518363ffffffff167c0100000000000000000000000000000000000000000000000000000000028152600401808373ffffffffffffffffffffffffffffffffffffffff1673ffffffffffffffffffffffffffffffffffffffff16815260200182815260200192505050600060405180830381600087803b1515611b9857600080fd5b6102c65a03f11515611ba957600080fd5b5050506000600860008373ffffffffffffffffffffffffffffffffffffffff1673ffffffffffffffffffffffffffffffffffffffff168152602001908152602001600020600101819055506000600860008373ffffffffffffffffffffffffffffffffffffffff1673ffffffffffffffffffffffffffffffffffffffff168152602001908152602001600020600001819055505b50565b600080600080600080600080670de0b6b3a76400008a029650670de0b6b3a7640000890295508587018e101515611c7a5760009750611d35565b611c848e88611d83565b15611cb657611c948e8888611d91565b15611ca25760009750611d35565b611caf8e8e8d8a8a611da9565b9750611d35565b611cc28e8d8d8a611e05565b9450611cd18e8e8e8e8b611e61565b93508c851115611ce357839750611d35565b848d039250611cf48e8c8989611edd565b9150611d038e848d8a8a611da9565b90508c611d108387611f49565b1015611d2857611d218e8888611f67565b9750611d35565b611d328482611f49565b97505b505050505050509695505050505050565b611d4e611206565b1515611d5957600080fd5b600060149054906101000a900460ff16151515611d7557600080fd5b611d7f8282611f9f565b5050565b600081831015905092915050565b6000611d9d8383611f49565b84101590509392505050565b6000806000611db9888686611fd1565b9150611de3633b9aca0088811515611dcd57fe5b04633b9aca0088811515611ddd57fe5b0461201f565b90508181111515611df657809250611dfa565b8192505b505095945050505050565b600080600086841015611e1b5760009250611e57565b611e25848861205a565b9150611e3387878787612073565b9050611e54633b9aca008302633b9aca0083811515611e4e57fe5b046120f0565b92505b5050949350505050565b6000806000808489101515611e795760009350611ed1565b611e8589888888612073565b9250633b9aca00611ea589633b9aca0086811515611e9f57fe5b0461201f565b811515611eae57fe5b049150611ebb8986612117565b905080821115611ecd57809350611ed1565b8193505b50505095945050505050565b600084831115611ef1578382029050611f41565b84611efc8484611f49565b111515611f0c5760009050611f41565b611f3e633b9aca0085811515611f1e57fe5b04633b9aca00611f2f888787611fd1565b811515611f3857fe5b0461201f565b90505b949350505050565b6000808284019050838110151515611f5d57fe5b8091505092915050565b6000611f74848484611d91565b15611f825760009050611f98565b611f95611f8f8484611f49565b8561205a565b90505b9392505050565b600060149054906101000a900460ff16151515611fbb57600080fd5b611fc48261213d565b611fcd8161226a565b5050565b600080611fde8484611f49565b851115611fee5760009150612017565b83851015611ffe57829150612017565b612008858561205a565b9050612014838261205a565b91505b509392505050565b60008060008414156120345760009150612053565b828402905082848281151561204557fe5b0414151561204f57fe5b8091505b5092915050565b600082821115151561206857fe5b818303905092915050565b600080600080848810151561208a578593506120e5565b612094878761205a565b92506120ac633b9aca008902633b9aca0087026120f0565b91506120d6633b9aca00838115156120c057fe5b04633b9aca00858115156120d057fe5b0461201f565b90506120e2878261205a565b93505b505050949350505050565b6000806000831115156120ff57fe5b828481151561210a57fe5b0490508091505092915050565b6000828211156121325761212b828461205a565b9050612137565b600090505b92915050565b80600860003373ffffffffffffffffffffffffffffffffffffffff1673ffffffffffffffffffffffffffffffffffffffff1681526020019081526020016000206000015401600860003373ffffffffffffffffffffffffffffffffffffffff1673ffffffffffffffffffffffffffffffffffffffff168152602001908152602001600020600001819055507f01a6dd555a0168dd57f865ff16599bedf1cbe954ed60757e28cf137f079c70a8303383604051808473ffffffffffffffffffffffffffffffffffffffff1673ffffffffffffffffffffffffffffffffffffffff1681526020018373ffffffffffffffffffffffffffffffffffffffff1673ffffffffffffffffffffffffffffffffffffffff168152602001828152602001935050505060405180910390a150565b61227381612285565b6103e88102600a5401600a8190555050565b80600860003373ffffffffffffffffffffffffffffffffffffffff1673ffffffffffffffffffffffffffffffffffffffff1681526020019081526020016000206001015401600860003373ffffffffffffffffffffffffffffffffffffffff1673ffffffffffffffffffffffffffffffffffffffff16815260200190815260200160002060010181905550600160009054906101000a900473ffffffffffffffffffffffffffffffffffffffff1673ffffffffffffffffffffffffffffffffffffffff166323b872dd6000809054906101000a900473ffffffffffffffffffffffffffffffffffffffff1630846000604051602001526040518463ffffffff167c0100000000000000000000000000000000000000000000000000000000028152600401808473ffffffffffffffffffffffffffffffffffffffff1673ffffffffffffffffffffffffffffffffffffffff1681526020018373ffffffffffffffffffffffffffffffffffffffff1673ffffffffffffffffffffffffffffffffffffffff1681526020018281526020019350505050602060405180830381600087803b151561243257600080fd5b6102c65a03f1151561244357600080fd5b5050506040518051905050505600a165627a7a723058202f5667a5c9f2cd1c392edb38f7ce8f22f332c6be9803413c03493ddf5744a0b80029",
  "source": "pragma solidity ^0.4.19;\n\nimport \"./XYEligibleTokenSale.sol\";\nimport \"./lib/XYVariablePrice.sol\";\n\ncontract XYOfficialTokenSale is XYEligibleTokenSale {\n\n  uint public numberSold;\n  uint public startPrice; // 18 places\n  uint public endPrice; // 18 places\n  uint public totalVariableTokens; // 0 places\n  uint public totalFixedTokens; // 0 places\n\n  function XYOfficialTokenSale(\n      address _token,\n      uint _minEther,\n      uint _startTime,\n      uint _endTime,\n      uint _startPrice,\n      uint _endPrice,\n      uint _totalVariableTokens,\n      uint _totalFixedTokens)\n  public XYEligibleTokenSale(_token, _startPrice, _minEther, _startTime, _endTime) {\n    startPrice = _startPrice; //18 places\n    endPrice = _endPrice; //18 places\n    totalVariableTokens = _totalVariableTokens; //0 places\n    totalFixedTokens = _totalFixedTokens; //0 places\n  }\n\n  function _sendTokens(uint _amount) internal {\n    super._sendTokens(_amount);\n    numberSold = numberSold + _amount * 1000;\n  }\n\n  function setPrice(uint) public onlyOwner onlyNotKilled {\n    //price is not settable from outside\n    revert();\n  }\n\n  function getPrice() public view onlyNotKilled returns(uint) {\n    return _tokensFromEther(1000000000000000000);\n  }\n\n  function predictTokensForEther(uint _ethAmount) public view onlyNotKilled returns(uint) {\n    return predictTokensForEther(_ethAmount, numberSold);\n  }\n\n  function predictTokensForEther(uint _ethAmount, uint _numberSold) public view onlyNotKilled returns(uint) {\n    return XYVariablePrice.getTokensForEther(_numberSold, _ethAmount, startPrice, endPrice, totalVariableTokens, totalFixedTokens);\n  }\n\n  function _tokensFromEther(uint _ethAmount) internal view onlyNotKilled returns(uint){\n    return XYVariablePrice.getTokensForEther(numberSold, _ethAmount, startPrice, endPrice, totalVariableTokens, totalFixedTokens);\n  }\n\n}\n",
  "sourcePath": "/Users/arietrouw/xyoraclenetwork/xyo-solidity/contracts/XYOfficialTokenSale.sol",
  "compiler": {
    "name": "solc",
    "version": "0.4.19+commit.c4cbbb05.Emscripten.clang"
  },
  "schemaVersion": "2.0.0",
  "updatedAt": "2018-03-18T22:38:15.302Z"
}