{
  "contractName": "XYOfficialTokenSale",
  "abi": [
    {
      "constant": true,
      "inputs": [],
      "name": "minEther",
      "outputs": [
        {
          "name": "",
          "type": "uint256"
        }
      ],
      "payable": false,
      "stateMutability": "view",
      "type": "function"
    },
    {
      "constant": true,
      "inputs": [
        {
          "name": "",
          "type": "address"
        }
      ],
      "name": "approvers",
      "outputs": [
        {
          "name": "",
          "type": "bool"
        }
      ],
      "payable": false,
      "stateMutability": "view",
      "type": "function"
    },
    {
      "constant": true,
      "inputs": [
        {
          "name": "_wallet",
          "type": "address"
        }
      ],
      "name": "getEligiblity",
      "outputs": [
        {
          "name": "",
          "type": "address"
        }
      ],
      "payable": false,
      "stateMutability": "view",
      "type": "function"
    },
    {
      "constant": true,
      "inputs": [],
      "name": "endTime",
      "outputs": [
        {
          "name": "",
          "type": "uint256"
        }
      ],
      "payable": false,
      "stateMutability": "view",
      "type": "function"
    },
    {
      "constant": false,
      "inputs": [
        {
          "name": "_startTime",
          "type": "uint256"
        }
      ],
      "name": "setStartTime",
      "outputs": [],
      "payable": false,
      "stateMutability": "nonpayable",
      "type": "function"
    },
    {
      "constant": false,
      "inputs": [],
      "name": "kill",
      "outputs": [],
      "payable": false,
      "stateMutability": "nonpayable",
      "type": "function"
    },
    {
      "constant": true,
      "inputs": [
        {
          "name": "",
          "type": "address"
        }
      ],
      "name": "pending",
      "outputs": [
        {
          "name": "eth",
          "type": "uint256"
        },
        {
          "name": "tokens",
          "type": "uint256"
        }
      ],
      "payable": false,
      "stateMutability": "view",
      "type": "function"
    },
    {
      "constant": false,
      "inputs": [],
      "name": "purchase",
      "outputs": [],
      "payable": true,
      "stateMutability": "payable",
      "type": "function"
    },
    {
      "constant": true,
      "inputs": [],
      "name": "numberSold",
      "outputs": [
        {
          "name": "",
          "type": "uint256"
        }
      ],
      "payable": false,
      "stateMutability": "view",
      "type": "function"
    },
    {
      "constant": true,
      "inputs": [],
      "name": "startTime",
      "outputs": [
        {
          "name": "",
          "type": "uint256"
        }
      ],
      "payable": false,
      "stateMutability": "view",
      "type": "function"
    },
    {
      "constant": false,
      "inputs": [
        {
          "name": "_minEther",
          "type": "uint256"
        }
      ],
      "name": "setMinEther",
      "outputs": [],
      "payable": false,
      "stateMutability": "nonpayable",
      "type": "function"
    },
    {
      "constant": false,
      "inputs": [
        {
          "name": "_buyer",
          "type": "address"
        },
        {
          "name": "_proofOfEligibility",
          "type": "address"
        }
      ],
      "name": "approve",
      "outputs": [],
      "payable": false,
      "stateMutability": "nonpayable",
      "type": "function"
    },
    {
      "constant": true,
      "inputs": [],
      "name": "totalVariableTokens",
      "outputs": [
        {
          "name": "",
          "type": "uint256"
        }
      ],
      "payable": false,
      "stateMutability": "view",
      "type": "function"
    },
    {
      "constant": true,
      "inputs": [],
      "name": "owner",
      "outputs": [
        {
          "name": "",
          "type": "address"
        }
      ],
      "payable": false,
      "stateMutability": "view",
      "type": "function"
    },
    {
      "constant": true,
      "inputs": [],
      "name": "isKilled",
      "outputs": [
        {
          "name": "",
          "type": "bool"
        }
      ],
      "payable": false,
      "stateMutability": "view",
      "type": "function"
    },
    {
      "constant": false,
      "inputs": [
        {
          "name": "_wallet",
          "type": "address"
        },
        {
          "name": "_proof",
          "type": "address"
        }
      ],
      "name": "setEligiblity",
      "outputs": [],
      "payable": false,
      "stateMutability": "nonpayable",
      "type": "function"
    },
    {
      "constant": false,
      "inputs": [
        {
          "name": "_address",
          "type": "address"
        }
      ],
      "name": "blockAddress",
      "outputs": [],
      "payable": false,
      "stateMutability": "nonpayable",
      "type": "function"
    },
    {
      "constant": true,
      "inputs": [],
      "name": "endPrice",
      "outputs": [
        {
          "name": "",
          "type": "uint256"
        }
      ],
      "payable": false,
      "stateMutability": "view",
      "type": "function"
    },
    {
      "constant": true,
      "inputs": [],
      "name": "isLive",
      "outputs": [
        {
          "name": "",
          "type": "bool"
        }
      ],
      "payable": false,
      "stateMutability": "view",
      "type": "function"
    },
    {
      "constant": false,
      "inputs": [
        {
          "name": "_endTime",
          "type": "uint256"
        }
      ],
      "name": "setEndTime",
      "outputs": [],
      "payable": false,
      "stateMutability": "nonpayable",
      "type": "function"
    },
    {
      "constant": true,
      "inputs": [],
      "name": "totalFixedTokens",
      "outputs": [
        {
          "name": "",
          "type": "uint256"
        }
      ],
      "payable": false,
      "stateMutability": "view",
      "type": "function"
    },
    {
      "constant": false,
      "inputs": [
        {
          "name": "_approver",
          "type": "address"
        },
        {
          "name": "_enabled",
          "type": "bool"
        }
      ],
      "name": "setApprover",
      "outputs": [],
      "payable": false,
      "stateMutability": "nonpayable",
      "type": "function"
    },
    {
      "constant": false,
      "inputs": [
        {
          "name": "_buyer",
          "type": "address"
        }
      ],
      "name": "approve",
      "outputs": [],
      "payable": false,
      "stateMutability": "nonpayable",
      "type": "function"
    },
    {
      "constant": true,
      "inputs": [],
      "name": "getAvailableTokens",
      "outputs": [
        {
          "name": "",
          "type": "uint256"
        }
      ],
      "payable": false,
      "stateMutability": "view",
      "type": "function"
    },
    {
      "constant": true,
      "inputs": [],
      "name": "startPrice",
      "outputs": [
        {
          "name": "",
          "type": "uint256"
        }
      ],
      "payable": false,
      "stateMutability": "view",
      "type": "function"
    },
    {
      "constant": false,
      "inputs": [
        {
          "name": "newOwner",
          "type": "address"
        }
      ],
      "name": "transferOwnership",
      "outputs": [],
      "payable": false,
      "stateMutability": "nonpayable",
      "type": "function"
    },
    {
      "constant": true,
      "inputs": [
        {
          "name": "_address",
          "type": "address"
        }
      ],
      "name": "isBlocked",
      "outputs": [
        {
          "name": "",
          "type": "bool"
        }
      ],
      "payable": false,
      "stateMutability": "view",
      "type": "function"
    },
    {
      "constant": true,
      "inputs": [],
      "name": "token",
      "outputs": [
        {
          "name": "",
          "type": "address"
        }
      ],
      "payable": false,
      "stateMutability": "view",
      "type": "function"
    },
    {
      "inputs": [
        {
          "name": "_token",
          "type": "address"
        },
        {
          "name": "_minEther",
          "type": "uint256"
        },
        {
          "name": "_startTime",
          "type": "uint256"
        },
        {
          "name": "_endTime",
          "type": "uint256"
        },
        {
          "name": "_startPrice",
          "type": "uint256"
        },
        {
          "name": "_endPrice",
          "type": "uint256"
        },
        {
          "name": "_totalVariableTokens",
          "type": "uint256"
        },
        {
          "name": "_totalFixedTokens",
          "type": "uint256"
        }
      ],
      "payable": false,
      "stateMutability": "nonpayable",
      "type": "constructor"
    },
    {
      "anonymous": false,
      "inputs": [
        {
          "indexed": false,
          "name": "seller",
          "type": "address"
        },
        {
          "indexed": false,
          "name": "buyer",
          "type": "address"
        },
        {
          "indexed": false,
          "name": "amount",
          "type": "uint256"
        }
      ],
      "name": "EtherAccepted",
      "type": "event"
    },
    {
      "anonymous": false,
      "inputs": [
        {
          "indexed": false,
          "name": "seller",
          "type": "address"
        },
        {
          "indexed": false,
          "name": "buyer",
          "type": "address"
        },
        {
          "indexed": false,
          "name": "amount",
          "type": "uint256"
        }
      ],
      "name": "TokensSent",
      "type": "event"
    },
    {
      "anonymous": false,
      "inputs": [
        {
          "indexed": true,
          "name": "previousOwner",
          "type": "address"
        },
        {
          "indexed": true,
          "name": "newOwner",
          "type": "address"
        }
      ],
      "name": "OwnershipTransferred",
      "type": "event"
    },
    {
      "constant": false,
      "inputs": [
        {
          "name": "",
          "type": "uint256"
        }
      ],
      "name": "setPrice",
      "outputs": [],
      "payable": false,
      "stateMutability": "nonpayable",
      "type": "function"
    },
    {
      "constant": true,
      "inputs": [],
      "name": "getPrice",
      "outputs": [
        {
          "name": "",
          "type": "uint256"
        }
      ],
      "payable": false,
      "stateMutability": "view",
      "type": "function"
    },
    {
      "constant": true,
      "inputs": [
        {
          "name": "_ethAmount",
          "type": "uint256"
        }
      ],
      "name": "predictTokensForEther",
      "outputs": [
        {
          "name": "",
          "type": "uint256"
        }
      ],
      "payable": false,
      "stateMutability": "view",
      "type": "function"
    }
  ],
  "bytecode": "0x60606040526000600a5534156200001557600080fd5b60405161010080620026e783398101604052808051906020019091908051906020019091908051906020019091908051906020019091908051906020019091908051906020019091908051906020019091908051906020019091905050878488888884848484848484848484848484336000806101000a81548173ffffffffffffffffffffffffffffffffffffffff021916908373ffffffffffffffffffffffffffffffffffffffff16021790555082600160006101000a81548173ffffffffffffffffffffffffffffffffffffffff021916908373ffffffffffffffffffffffffffffffffffffffff1602179055508160028190555080600381905550505050816004819055508060058190555050505050506001600660003373ffffffffffffffffffffffffffffffffffffffff1673ffffffffffffffffffffffffffffffffffffffff16815260200190815260200160002060006101000a81548160ff0219169083151502179055505050505050620001a7336001620001d664010000000002620012b8176401000000009004565b505050505083600b8190555082600c8190555081600d8190555080600e819055505050505050505050620002aa565b6000809054906101000a900473ffffffffffffffffffffffffffffffffffffffff1673ffffffffffffffffffffffffffffffffffffffff163373ffffffffffffffffffffffffffffffffffffffff161415156200023257600080fd5b600060149054906101000a900460ff161515156200024f57600080fd5b80600660008473ffffffffffffffffffffffffffffffffffffffff1673ffffffffffffffffffffffffffffffffffffffff16815260200190815260200160002060006101000a81548160ff0219169083151502179055505050565b61242d80620002ba6000396000f30060606040526004361061018b576000357c0100000000000000000000000000000000000000000000000000000000900463ffffffff168063051af15d146101905780630a144391146101b95780631bbd87371461020a5780633197cbb6146102835780633e0a322d146102ac57806341c0e1b5146102cf5780635eebea20146102e457806364edfbf0146103385780636ab77f231461034257806378e979251461036b5780637aef1d4d146103945780637e5465ba146103b75780637f92527c1461040f5780638da5cb5b146104385780638fe8a1011461048d57806391b7f5ed146104ba57806398d5fdca146104dd5780639ae4b1ab14610506578063ad2bb1b31461055e578063b868723e14610597578063b8f7a665146105c0578063c70aa62f146105ed578063ccb98ffc14610624578063ceb67a6114610647578063d76fd2e714610670578063daea85c5146106b4578063e35568cb146106ed578063f1a9af8914610716578063f2fde38b1461073f578063fbac395114610778578063fc0c546a146107c9575b600080fd5b341561019b57600080fd5b6101a361081e565b6040518082815260200191505060405180910390f35b34156101c457600080fd5b6101f0600480803573ffffffffffffffffffffffffffffffffffffffff16906020019091905050610824565b604051808215151515815260200191505060405180910390f35b341561021557600080fd5b610241600480803573ffffffffffffffffffffffffffffffffffffffff16906020019091905050610844565b604051808273ffffffffffffffffffffffffffffffffffffffff1673ffffffffffffffffffffffffffffffffffffffff16815260200191505060405180910390f35b341561028e57600080fd5b6102966108ad565b6040518082815260200191505060405180910390f35b34156102b757600080fd5b6102cd60048080359060200190919050506108b3565b005b34156102da57600080fd5b6102e2610934565b005b34156102ef57600080fd5b61031b600480803573ffffffffffffffffffffffffffffffffffffffff16906020019091905050610bb6565b604051808381526020018281526020019250505060405180910390f35b610340610bda565b005b341561034d57600080fd5b610355610d58565b6040518082815260200191505060405180910390f35b341561037657600080fd5b61037e610d5e565b6040518082815260200191505060405180910390f35b341561039f57600080fd5b6103b56004808035906020019091905050610d64565b005b34156103c257600080fd5b61040d600480803573ffffffffffffffffffffffffffffffffffffffff1690602001909190803573ffffffffffffffffffffffffffffffffffffffff16906020019091905050610de5565b005b341561041a57600080fd5b610422610e85565b6040518082815260200191505060405180910390f35b341561044357600080fd5b61044b610e8b565b604051808273ffffffffffffffffffffffffffffffffffffffff1673ffffffffffffffffffffffffffffffffffffffff16815260200191505060405180910390f35b341561049857600080fd5b6104a0610eb0565b604051808215151515815260200191505060405180910390f35b34156104c557600080fd5b6104db6004808035906020019091905050610ec6565b005b34156104e857600080fd5b6104f0610f42565b6040518082815260200191505060405180910390f35b341561051157600080fd5b61055c600480803573ffffffffffffffffffffffffffffffffffffffff1690602001909190803573ffffffffffffffffffffffffffffffffffffffff16906020019091905050610f6e565b005b341561056957600080fd5b610595600480803573ffffffffffffffffffffffffffffffffffffffff169060200190919050506110cc565b005b34156105a257600080fd5b6105aa61119e565b6040518082815260200191505060405180910390f35b34156105cb57600080fd5b6105d36111a4565b604051808215151515815260200191505060405180910390f35b34156105f857600080fd5b61060e6004808035906020019091905050611204565b6040518082815260200191505060405180910390f35b341561062f57600080fd5b6106456004808035906020019091905050611231565b005b341561065257600080fd5b61065a6112b2565b6040518082815260200191505060405180910390f35b341561067b57600080fd5b6106b2600480803573ffffffffffffffffffffffffffffffffffffffff1690602001909190803515159060200190919050506112b8565b005b34156106bf57600080fd5b6106eb600480803573ffffffffffffffffffffffffffffffffffffffff1690602001909190505061138a565b005b34156106f857600080fd5b6107006114e8565b6040518082815260200191505060405180910390f35b341561072157600080fd5b61072961163f565b6040518082815260200191505060405180910390f35b341561074a57600080fd5b610776600480803573ffffffffffffffffffffffffffffffffffffffff16906020019091905050611645565b005b341561078357600080fd5b6107af600480803573ffffffffffffffffffffffffffffffffffffffff1690602001909190505061179a565b604051808215151515815260200191505060405180910390f35b34156107d457600080fd5b6107dc6117f0565b604051808273ffffffffffffffffffffffffffffffffffffffff1673ffffffffffffffffffffffffffffffffffffffff16815260200191505060405180910390f35b60035481565b60066020528060005260406000206000915054906101000a900460ff1681565b6000600960008373ffffffffffffffffffffffffffffffffffffffff1673ffffffffffffffffffffffffffffffffffffffff16815260200190815260200160002060009054906101000a900473ffffffffffffffffffffffffffffffffffffffff169050919050565b60055481565b6000809054906101000a900473ffffffffffffffffffffffffffffffffffffffff1673ffffffffffffffffffffffffffffffffffffffff163373ffffffffffffffffffffffffffffffffffffffff1614151561090e57600080fd5b600060149054906101000a900460ff1615151561092a57600080fd5b8060048190555050565b6000809054906101000a900473ffffffffffffffffffffffffffffffffffffffff1673ffffffffffffffffffffffffffffffffffffffff163373ffffffffffffffffffffffffffffffffffffffff1614151561098f57600080fd5b600160009054906101000a900473ffffffffffffffffffffffffffffffffffffffff1673ffffffffffffffffffffffffffffffffffffffff166323b872dd306000809054906101000a900473ffffffffffffffffffffffffffffffffffffffff16600160009054906101000a900473ffffffffffffffffffffffffffffffffffffffff1673ffffffffffffffffffffffffffffffffffffffff166370a08231306000604051602001526040518263ffffffff167c0100000000000000000000000000000000000000000000000000000000028152600401808273ffffffffffffffffffffffffffffffffffffffff1673ffffffffffffffffffffffffffffffffffffffff168152602001915050602060405180830381600087803b1515610ab557600080fd5b6102c65a03f11515610ac657600080fd5b505050604051805190506000604051602001526040518463ffffffff167c0100000000000000000000000000000000000000000000000000000000028152600401808473ffffffffffffffffffffffffffffffffffffffff1673ffffffffffffffffffffffffffffffffffffffff1681526020018373ffffffffffffffffffffffffffffffffffffffff1673ffffffffffffffffffffffffffffffffffffffff1681526020018281526020019350505050602060405180830381600087803b1515610b9057600080fd5b6102c65a03f11515610ba157600080fd5b5050506040518051905050610bb4611816565b565b60076020528060005260406000206000915090508060000154908060010154905082565b600080600060149054906101000a900460ff16151515610bf957600080fd5b349150610c0582611922565b9050610c0f6114e8565b8111151515610c1d57600080fd5b600160009054906101000a900473ffffffffffffffffffffffffffffffffffffffff1673ffffffffffffffffffffffffffffffffffffffff166370a082316000809054906101000a900473ffffffffffffffffffffffffffffffffffffffff166000604051602001526040518263ffffffff167c0100000000000000000000000000000000000000000000000000000000028152600401808273ffffffffffffffffffffffffffffffffffffffff1673ffffffffffffffffffffffffffffffffffffffff168152602001915050602060405180830381600087803b1515610d0357600080fd5b6102c65a03f11515610d1457600080fd5b505050604051805190508111151515610d2c57600080fd5b60035482101580610d3f57506000600354145b1515610d4a57600080fd5b610d54828261195e565b5050565b600a5481565b60045481565b6000809054906101000a900473ffffffffffffffffffffffffffffffffffffffff1673ffffffffffffffffffffffffffffffffffffffff163373ffffffffffffffffffffffffffffffffffffffff16141515610dbf57600080fd5b600060149054906101000a900460ff16151515610ddb57600080fd5b8060038190555050565b600660003373ffffffffffffffffffffffffffffffffffffffff1673ffffffffffffffffffffffffffffffffffffffff16815260200190815260200160002060009054906101000a900460ff161515610e3d57600080fd5b600060149054906101000a900460ff16151515610e5957600080fd5b610e638282610f6e565b610e6c8261179a565b151515610e7857600080fd5b610e81826119fd565b5050565b600d5481565b6000809054906101000a900473ffffffffffffffffffffffffffffffffffffffff1681565b60008060149054906101000a900460ff16905090565b6000809054906101000a900473ffffffffffffffffffffffffffffffffffffffff1673ffffffffffffffffffffffffffffffffffffffff163373ffffffffffffffffffffffffffffffffffffffff16141515610f2157600080fd5b600060149054906101000a900460ff16151515610f3d57600080fd5b600080fd5b60008060149054906101000a900460ff16151515610f5f57600080fd5b610f696001611922565b905090565b600660003373ffffffffffffffffffffffffffffffffffffffff1673ffffffffffffffffffffffffffffffffffffffff16815260200190815260200160002060009054906101000a900460ff161515610fc657600080fd5b6000600960008473ffffffffffffffffffffffffffffffffffffffff1673ffffffffffffffffffffffffffffffffffffffff16815260200190815260200160002060009054906101000a900473ffffffffffffffffffffffffffffffffffffffff1673ffffffffffffffffffffffffffffffffffffffff1614151561104a57600080fd5b80600960008473ffffffffffffffffffffffffffffffffffffffff1673ffffffffffffffffffffffffffffffffffffffff16815260200190815260200160002060006101000a81548173ffffffffffffffffffffffffffffffffffffffff021916908373ffffffffffffffffffffffffffffffffffffffff1602179055505050565b6000809054906101000a900473ffffffffffffffffffffffffffffffffffffffff1673ffffffffffffffffffffffffffffffffffffffff163373ffffffffffffffffffffffffffffffffffffffff1614151561112757600080fd5b600060149054906101000a900460ff1615151561114357600080fd5b6001600860008373ffffffffffffffffffffffffffffffffffffffff1673ffffffffffffffffffffffffffffffffffffffff16815260200190815260200160002060006101000a81548160ff02191690831515021790555050565b600c5481565b600080600190506111b3610eb0565b156111c157600090506111fd565b600060045411156111e0574260045411156111db57600090505b6111fc565b600060055411156111fb574260055410156111fa57600090505b5b5b5b8091505090565b60008060149054906101000a900460ff1615151561122157600080fd5b61122a82611922565b9050919050565b6000809054906101000a900473ffffffffffffffffffffffffffffffffffffffff1673ffffffffffffffffffffffffffffffffffffffff163373ffffffffffffffffffffffffffffffffffffffff1614151561128c57600080fd5b600060149054906101000a900460ff161515156112a857600080fd5b8060058190555050565b600e5481565b6000809054906101000a900473ffffffffffffffffffffffffffffffffffffffff1673ffffffffffffffffffffffffffffffffffffffff163373ffffffffffffffffffffffffffffffffffffffff1614151561131357600080fd5b600060149054906101000a900460ff1615151561132f57600080fd5b80600660008473ffffffffffffffffffffffffffffffffffffffff1673ffffffffffffffffffffffffffffffffffffffff16815260200190815260200160002060006101000a81548160ff0219169083151502179055505050565b600660003373ffffffffffffffffffffffffffffffffffffffff1673ffffffffffffffffffffffffffffffffffffffff16815260200190815260200160002060009054906101000a900460ff1615156113e257600080fd5b600860003373ffffffffffffffffffffffffffffffffffffffff1673ffffffffffffffffffffffffffffffffffffffff16815260200190815260200160002060009054906101000a900460ff1615151561143b57600080fd5b6000600960003373ffffffffffffffffffffffffffffffffffffffff1673ffffffffffffffffffffffffffffffffffffffff16815260200190815260200160002060009054906101000a900473ffffffffffffffffffffffffffffffffffffffff1673ffffffffffffffffffffffffffffffffffffffff16141515156114c057600080fd5b600060149054906101000a900460ff161515156114dc57600080fd5b6114e5816119fd565b50565b60008060149054906101000a900460ff1615151561150557600080fd5b600160009054906101000a900473ffffffffffffffffffffffffffffffffffffffff1673ffffffffffffffffffffffffffffffffffffffff1663dd62ed3e6000809054906101000a900473ffffffffffffffffffffffffffffffffffffffff16306000604051602001526040518363ffffffff167c0100000000000000000000000000000000000000000000000000000000028152600401808373ffffffffffffffffffffffffffffffffffffffff1673ffffffffffffffffffffffffffffffffffffffff1681526020018273ffffffffffffffffffffffffffffffffffffffff1673ffffffffffffffffffffffffffffffffffffffff16815260200192505050602060405180830381600087803b151561161f57600080fd5b6102c65a03f1151561163057600080fd5b50505060405180519050905090565b600b5481565b6000809054906101000a900473ffffffffffffffffffffffffffffffffffffffff1673ffffffffffffffffffffffffffffffffffffffff163373ffffffffffffffffffffffffffffffffffffffff161415156116a057600080fd5b600073ffffffffffffffffffffffffffffffffffffffff168173ffffffffffffffffffffffffffffffffffffffff16141515156116dc57600080fd5b8073ffffffffffffffffffffffffffffffffffffffff166000809054906101000a900473ffffffffffffffffffffffffffffffffffffffff1673ffffffffffffffffffffffffffffffffffffffff167f8be0079c531659141344cd1fd0a4f28419497f9722a3daafe3b4186f6b6457e060405160405180910390a3806000806101000a81548173ffffffffffffffffffffffffffffffffffffffff021916908373ffffffffffffffffffffffffffffffffffffffff16021790555050565b6000600860008373ffffffffffffffffffffffffffffffffffffffff1673ffffffffffffffffffffffffffffffffffffffff16815260200190815260200160002060009054906101000a900460ff169050919050565b600160009054906101000a900473ffffffffffffffffffffffffffffffffffffffff1681565b6000809054906101000a900473ffffffffffffffffffffffffffffffffffffffff1673ffffffffffffffffffffffffffffffffffffffff163373ffffffffffffffffffffffffffffffffffffffff1614151561187157600080fd5b600060149054906101000a900460ff1615151561188d57600080fd5b6001600060146101000a81548160ff0219169083151502179055506000809054906101000a900473ffffffffffffffffffffffffffffffffffffffff1673ffffffffffffffffffffffffffffffffffffffff166108fc3073ffffffffffffffffffffffffffffffffffffffff16319081150290604051600060405180830381858888f19350505050151561192057600080fd5b565b60008060149054906101000a900460ff1615151561193f57600080fd5b611957600a5483600b54600c54600d54600e54611a61565b9050919050565b6000600860003373ffffffffffffffffffffffffffffffffffffffff1673ffffffffffffffffffffffffffffffffffffffff16815260200190815260200160002060009054906101000a900460ff161515156119b957600080fd5b3390506119c68383611b67565b60006119d182610844565b73ffffffffffffffffffffffffffffffffffffffff161415156119f8576119f781611ba4565b5b505050565b600660003373ffffffffffffffffffffffffffffffffffffffff1673ffffffffffffffffffffffffffffffffffffffff16815260200190815260200160002060009054906101000a900460ff161515611a5557600080fd5b611a5e81611ba4565b50565b600080600080600080600080670de0b6b3a76400008a029650670de0b6b3a7640000890295508587018e101515611a9b5760009750611b56565b611aa58e88611d05565b15611ad757611ab58e8888611d13565b15611ac35760009750611b56565b611ad08e8e8d8a8a611d2b565b9750611b56565b611ae38e8d8d8a611d87565b9450611af28e8e8e8e8b611dd8565b93508c851115611b0457839750611b56565b848d039250611b158e8c8989611e54565b9150611b248e848d8a8a611d2b565b90508c611b318387611ec0565b1015611b4957611b428e8888611ede565b9750611b56565b611b538482611ec0565b97505b505050505050509695505050505050565b611b6f6111a4565b1515611b7a57600080fd5b600060149054906101000a900460ff16151515611b9657600080fd5b611ba08282611f16565b5050565b6000600760008373ffffffffffffffffffffffffffffffffffffffff1673ffffffffffffffffffffffffffffffffffffffff168152602001908152602001600020600101541115611d02573073ffffffffffffffffffffffffffffffffffffffff166108fc600760008473ffffffffffffffffffffffffffffffffffffffff1673ffffffffffffffffffffffffffffffffffffffff168152602001908152602001600020600001549081150290604051600060405180830381858888f193505050501515611c7157600080fd5b6000600760003373ffffffffffffffffffffffffffffffffffffffff1673ffffffffffffffffffffffffffffffffffffffff168152602001908152602001600020600101819055506000600760003373ffffffffffffffffffffffffffffffffffffffff1673ffffffffffffffffffffffffffffffffffffffff168152602001908152602001600020600001819055505b50565b600081831015905092915050565b6000611d1f8383611ec0565b84101590509392505050565b6000806000611d3b888686611f48565b9150611d65633b9aca0088811515611d4f57fe5b04633b9aca0088811515611d5f57fe5b04611f96565b90508181111515611d7857809250611d7c565b8192505b505095945050505050565b600080600086841015611d9d5760009250611dce565b611da78488611fd1565b9150611db587878787611fea565b9050611dcb670de0b6b3a7640000830282612070565b92505b5050949350505050565b6000806000808489101515611df05760009350611e48565b611dfc89888888611fea565b9250611e26633b9aca0089811515611e1057fe5b04633b9aca0085811515611e2057fe5b04611f96565b9150611e328986612097565b905080821115611e4457809350611e48565b8193505b50505095945050505050565b600084831115611e68578382029050611eb8565b84611e738484611ec0565b111515611e835760009050611eb8565b611eb5633b9aca0085811515611e9557fe5b04633b9aca00611ea68887876120bd565b811515611eaf57fe5b04611f96565b90505b949350505050565b6000808284019050838110151515611ed457fe5b8091505092915050565b6000611eeb848484611d13565b15611ef95760009050611f0f565b611f0c611f068484611ec0565b85611fd1565b90505b9392505050565b600060149054906101000a900460ff16151515611f3257600080fd5b611f3b82612108565b611f4481612235565b5050565b600080611f558484611ec0565b851115611f655760009150611f8e565b83851015611f7557829150611f8e565b611f7f8585611fd1565b9050611f8b8382611fd1565b91505b509392505050565b6000806000841415611fab5760009150611fca565b8284029050828482811515611fbc57fe5b04141515611fc657fe5b8091505b5092915050565b6000828211151515611fdf57fe5b818303905092915050565b600080600080848810151561200157859350612065565b61200b8787611fd1565b9250633b9aca0061202b89633b9aca008881151561202557fe5b04612070565b029150612056633b9aca008381151561204057fe5b04633b9aca008581151561205057fe5b04611f96565b90506120628782611ec0565b93505b505050949350505050565b60008060008311151561207f57fe5b828481151561208a57fe5b0490508091505092915050565b6000828211156120b2576120ab8284611fd1565b90506120b7565b600090505b92915050565b60006120c98284611ec0565b841015156120da5760009050612101565b82841015156120eb57819050612101565b6120fe826120f98686611fd1565b611fd1565b90505b9392505050565b80600760003373ffffffffffffffffffffffffffffffffffffffff1673ffffffffffffffffffffffffffffffffffffffff1681526020019081526020016000206000015401600760003373ffffffffffffffffffffffffffffffffffffffff1673ffffffffffffffffffffffffffffffffffffffff168152602001908152602001600020600001819055507f01a6dd555a0168dd57f865ff16599bedf1cbe954ed60757e28cf137f079c70a8303383604051808473ffffffffffffffffffffffffffffffffffffffff1673ffffffffffffffffffffffffffffffffffffffff1681526020018373ffffffffffffffffffffffffffffffffffffffff1673ffffffffffffffffffffffffffffffffffffffff168152602001828152602001935050505060405180910390a150565b80600760003373ffffffffffffffffffffffffffffffffffffffff1673ffffffffffffffffffffffffffffffffffffffff1681526020019081526020016000206001015401600760003373ffffffffffffffffffffffffffffffffffffffff1673ffffffffffffffffffffffffffffffffffffffff16815260200190815260200160002060010181905550600160009054906101000a900473ffffffffffffffffffffffffffffffffffffffff1673ffffffffffffffffffffffffffffffffffffffff166323b872dd6000809054906101000a900473ffffffffffffffffffffffffffffffffffffffff1630846000604051602001526040518463ffffffff167c0100000000000000000000000000000000000000000000000000000000028152600401808473ffffffffffffffffffffffffffffffffffffffff1673ffffffffffffffffffffffffffffffffffffffff1681526020018373ffffffffffffffffffffffffffffffffffffffff1673ffffffffffffffffffffffffffffffffffffffff1681526020018281526020019350505050602060405180830381600087803b15156123e257600080fd5b6102c65a03f115156123f357600080fd5b5050506040518051905050505600a165627a7a72305820f631fc3de62052a7a421acdbaeddedbebd3cc2d79e2d4eaea1961fee2d23e2540029",
  "source": "pragma solidity ^0.4.19;\n\nimport \"./XYEligibleTokenSale.sol\";\nimport \"./lib/XYVariablePrice.sol\";\n\ncontract XYOfficialTokenSale is XYEligibleTokenSale {\n\n  uint public numberSold = 0;\n  uint public startPrice; // 18 places\n  uint public endPrice; // 18 places\n  uint public totalVariableTokens; // 0 places\n  uint public totalFixedTokens; // 0 places\n\n  function XYOfficialTokenSale(\n      address _token,\n      uint _minEther,\n      uint _startTime,\n      uint _endTime,\n      uint _startPrice,\n      uint _endPrice,\n      uint _totalVariableTokens,\n      uint _totalFixedTokens)\n  public XYEligibleTokenSale(_token, _startPrice, _minEther, _startTime, _endTime) {\n    startPrice = _startPrice; //18 places\n    endPrice = _endPrice; //18 places\n    totalVariableTokens = _totalVariableTokens; //0 places\n    totalFixedTokens = _totalFixedTokens; //0 places\n  }\n\n  function setPrice(uint) public onlyOwner notKilled {\n    //price is not settable from outside\n    revert();\n  }\n\n  function getPrice() public view notKilled returns(uint) {\n    return _tokensFromEther(1);\n  }\n\n  function predictTokensForEther(uint _ethAmount) public view notKilled returns(uint) {\n    return _tokensFromEther(_ethAmount);\n  }\n\n  function _tokensFromEther(uint _ethAmount) internal view notKilled returns(uint){\n    return XYVariablePrice.getTokensForEther(numberSold, _ethAmount, startPrice, endPrice, totalVariableTokens, totalFixedTokens);\n  }\n\n}\n",
  "sourcePath": "/Users/arietrouw/xyoraclenetwork/xyo-solidity/src/contracts/TokenSale/XYOfficialTokenSale.sol",
  "compiler": {
    "name": "solc",
    "version": "0.4.19+commit.c4cbbb05.Emscripten.clang"
  },
  "schemaVersion": "2.0.0",
  "updatedAt": "2018-03-17T21:53:36.026Z"
}