{
  "contractName": "XYPendingTokenSale",
  "abi": [
    {
      "constant": true,
      "inputs": [],
      "name": "minEther",
      "outputs": [
        {
          "name": "",
          "type": "uint256"
        }
      ],
      "payable": false,
      "stateMutability": "view",
      "type": "function"
    },
    {
      "constant": true,
      "inputs": [
        {
          "name": "",
          "type": "address"
        }
      ],
      "name": "approvers",
      "outputs": [
        {
          "name": "",
          "type": "bool"
        }
      ],
      "payable": false,
      "stateMutability": "view",
      "type": "function"
    },
    {
      "constant": true,
      "inputs": [],
      "name": "killed",
      "outputs": [
        {
          "name": "",
          "type": "bool"
        }
      ],
      "payable": false,
      "stateMutability": "view",
      "type": "function"
    },
    {
      "constant": true,
      "inputs": [],
      "name": "endTime",
      "outputs": [
        {
          "name": "",
          "type": "uint256"
        }
      ],
      "payable": false,
      "stateMutability": "view",
      "type": "function"
    },
    {
      "constant": false,
      "inputs": [
        {
          "name": "_startTime",
          "type": "uint256"
        }
      ],
      "name": "setStartTime",
      "outputs": [],
      "payable": false,
      "stateMutability": "nonpayable",
      "type": "function"
    },
    {
      "constant": false,
      "inputs": [],
      "name": "kill",
      "outputs": [],
      "payable": false,
      "stateMutability": "nonpayable",
      "type": "function"
    },
    {
      "constant": true,
      "inputs": [
        {
          "name": "",
          "type": "address"
        }
      ],
      "name": "pending",
      "outputs": [
        {
          "name": "eth",
          "type": "uint256"
        },
        {
          "name": "tokens",
          "type": "uint256"
        }
      ],
      "payable": false,
      "stateMutability": "view",
      "type": "function"
    },
    {
      "constant": false,
      "inputs": [],
      "name": "purchase",
      "outputs": [],
      "payable": true,
      "stateMutability": "payable",
      "type": "function"
    },
    {
      "constant": true,
      "inputs": [],
      "name": "startTime",
      "outputs": [
        {
          "name": "",
          "type": "uint256"
        }
      ],
      "payable": false,
      "stateMutability": "view",
      "type": "function"
    },
    {
      "constant": false,
      "inputs": [
        {
          "name": "_minEther",
          "type": "uint256"
        }
      ],
      "name": "setMinEther",
      "outputs": [],
      "payable": false,
      "stateMutability": "nonpayable",
      "type": "function"
    },
    {
      "constant": true,
      "inputs": [],
      "name": "owner",
      "outputs": [
        {
          "name": "",
          "type": "address"
        }
      ],
      "payable": false,
      "stateMutability": "view",
      "type": "function"
    },
    {
      "constant": false,
      "inputs": [
        {
          "name": "_price",
          "type": "uint256"
        }
      ],
      "name": "setPrice",
      "outputs": [],
      "payable": false,
      "stateMutability": "nonpayable",
      "type": "function"
    },
    {
      "constant": true,
      "inputs": [],
      "name": "getPrice",
      "outputs": [
        {
          "name": "",
          "type": "uint256"
        }
      ],
      "payable": false,
      "stateMutability": "view",
      "type": "function"
    },
    {
      "constant": false,
      "inputs": [
        {
          "name": "_address",
          "type": "address"
        }
      ],
      "name": "blockAddress",
      "outputs": [],
      "payable": false,
      "stateMutability": "nonpayable",
      "type": "function"
    },
    {
      "constant": true,
      "inputs": [],
      "name": "isLive",
      "outputs": [
        {
          "name": "",
          "type": "bool"
        }
      ],
      "payable": false,
      "stateMutability": "view",
      "type": "function"
    },
    {
      "constant": false,
      "inputs": [
        {
          "name": "_endTime",
          "type": "uint256"
        }
      ],
      "name": "setEndTime",
      "outputs": [],
      "payable": false,
      "stateMutability": "nonpayable",
      "type": "function"
    },
    {
      "constant": false,
      "inputs": [
        {
          "name": "_approver",
          "type": "address"
        },
        {
          "name": "_enabled",
          "type": "bool"
        }
      ],
      "name": "setApprover",
      "outputs": [],
      "payable": false,
      "stateMutability": "nonpayable",
      "type": "function"
    },
    {
      "constant": true,
      "inputs": [],
      "name": "getAvailableTokens",
      "outputs": [
        {
          "name": "",
          "type": "uint256"
        }
      ],
      "payable": false,
      "stateMutability": "view",
      "type": "function"
    },
    {
      "constant": true,
      "inputs": [
        {
          "name": "",
          "type": "address"
        }
      ],
      "name": "blocked",
      "outputs": [
        {
          "name": "",
          "type": "bool"
        }
      ],
      "payable": false,
      "stateMutability": "view",
      "type": "function"
    },
    {
      "constant": false,
      "inputs": [
        {
          "name": "newOwner",
          "type": "address"
        }
      ],
      "name": "transferOwnership",
      "outputs": [],
      "payable": false,
      "stateMutability": "nonpayable",
      "type": "function"
    },
    {
      "constant": true,
      "inputs": [],
      "name": "token",
      "outputs": [
        {
          "name": "",
          "type": "address"
        }
      ],
      "payable": false,
      "stateMutability": "view",
      "type": "function"
    },
    {
      "inputs": [
        {
          "name": "_token",
          "type": "address"
        },
        {
          "name": "_price",
          "type": "uint256"
        },
        {
          "name": "_minEther",
          "type": "uint256"
        },
        {
          "name": "_startTime",
          "type": "uint256"
        },
        {
          "name": "_endTime",
          "type": "uint256"
        }
      ],
      "payable": false,
      "stateMutability": "nonpayable",
      "type": "constructor"
    },
    {
      "payable": true,
      "stateMutability": "payable",
      "type": "fallback"
    },
    {
      "anonymous": false,
      "inputs": [
        {
          "indexed": false,
          "name": "seller",
          "type": "address"
        },
        {
          "indexed": false,
          "name": "buyer",
          "type": "address"
        },
        {
          "indexed": false,
          "name": "amount",
          "type": "uint256"
        }
      ],
      "name": "EtherAccepted",
      "type": "event"
    },
    {
      "anonymous": false,
      "inputs": [
        {
          "indexed": false,
          "name": "seller",
          "type": "address"
        },
        {
          "indexed": false,
          "name": "buyer",
          "type": "address"
        },
        {
          "indexed": false,
          "name": "amount",
          "type": "uint256"
        }
      ],
      "name": "TokensSent",
      "type": "event"
    },
    {
      "anonymous": false,
      "inputs": [
        {
          "indexed": true,
          "name": "previousOwner",
          "type": "address"
        },
        {
          "indexed": true,
          "name": "newOwner",
          "type": "address"
        }
      ],
      "name": "OwnershipTransferred",
      "type": "event"
    },
    {
      "constant": false,
      "inputs": [
        {
          "name": "_buyer",
          "type": "address"
        }
      ],
      "name": "approve",
      "outputs": [],
      "payable": false,
      "stateMutability": "nonpayable",
      "type": "function"
    }
  ],
  "bytecode": "0x6060604052341561000f57600080fd5b60405160a080611a9e833981016040528080519060200190919080519060200190919080519060200190919080519060200190919080519060200190919050508484848484848484336000806101000a81548173ffffffffffffffffffffffffffffffffffffffff021916908373ffffffffffffffffffffffffffffffffffffffff16021790555082600160006101000a81548173ffffffffffffffffffffffffffffffffffffffff021916908373ffffffffffffffffffffffffffffffffffffffff1602179055508160028190555080600381905550505050816004819055508060058190555050505050506001600660003373ffffffffffffffffffffffffffffffffffffffff1673ffffffffffffffffffffffffffffffffffffffff16815260200190815260200160002060006101000a81548160ff0219169083151502179055505050505050611936806101686000396000f300606060405260043610610128576000357c0100000000000000000000000000000000000000000000000000000000900463ffffffff168063051af15d1461014e5780630a144391146101775780631f3a0e41146101c85780633197cbb6146101f55780633e0a322d1461021e57806341c0e1b5146102415780635eebea201461025657806364edfbf0146102aa57806378e97925146102b45780637aef1d4d146102dd5780638da5cb5b1461030057806391b7f5ed1461035557806398d5fdca14610378578063ad2bb1b3146103a1578063b8f7a665146103da578063ccb98ffc14610407578063d76fd2e71461042a578063daea85c51461046e578063e35568cb146104a7578063e5962195146104d0578063f2fde38b14610521578063fc0c546a1461055a575b600060149054906101000a900460ff1615151561014457600080fd5b61014c6105af565b005b341561015957600080fd5b61016161072d565b6040518082815260200191505060405180910390f35b341561018257600080fd5b6101ae600480803573ffffffffffffffffffffffffffffffffffffffff16906020019091905050610733565b604051808215151515815260200191505060405180910390f35b34156101d357600080fd5b6101db610753565b604051808215151515815260200191505060405180910390f35b341561020057600080fd5b610208610766565b6040518082815260200191505060405180910390f35b341561022957600080fd5b61023f600480803590602001909190505061076c565b005b341561024c57600080fd5b6102546107ed565b005b341561026157600080fd5b61028d600480803573ffffffffffffffffffffffffffffffffffffffff16906020019091905050610a6f565b604051808381526020018281526020019250505060405180910390f35b6102b26105af565b005b34156102bf57600080fd5b6102c7610a93565b6040518082815260200191505060405180910390f35b34156102e857600080fd5b6102fe6004808035906020019091905050610a99565b005b341561030b57600080fd5b610313610b1a565b604051808273ffffffffffffffffffffffffffffffffffffffff1673ffffffffffffffffffffffffffffffffffffffff16815260200191505060405180910390f35b341561036057600080fd5b6103766004808035906020019091905050610b3f565b005b341561038357600080fd5b61038b610bc0565b6040518082815260200191505060405180910390f35b34156103ac57600080fd5b6103d8600480803573ffffffffffffffffffffffffffffffffffffffff16906020019091905050610be5565b005b34156103e557600080fd5b6103ed610c9b565b604051808215151515815260200191505060405180910390f35b341561041257600080fd5b6104286004808035906020019091905050610d03565b005b341561043557600080fd5b61046c600480803573ffffffffffffffffffffffffffffffffffffffff169060200190919080351515906020019091905050610d84565b005b341561047957600080fd5b6104a5600480803573ffffffffffffffffffffffffffffffffffffffff16906020019091905050610e56565b005b34156104b257600080fd5b6104ba610eba565b6040518082815260200191505060405180910390f35b34156104db57600080fd5b610507600480803573ffffffffffffffffffffffffffffffffffffffff16906020019091905050611011565b604051808215151515815260200191505060405180910390f35b341561052c57600080fd5b610558600480803573ffffffffffffffffffffffffffffffffffffffff16906020019091905050611031565b005b341561056557600080fd5b61056d611186565b604051808273ffffffffffffffffffffffffffffffffffffffff1673ffffffffffffffffffffffffffffffffffffffff16815260200191505060405180910390f35b600080600060149054906101000a900460ff161515156105ce57600080fd5b3491506105da826111ac565b90506105e4610eba565b81111515156105f257600080fd5b600160009054906101000a900473ffffffffffffffffffffffffffffffffffffffff1673ffffffffffffffffffffffffffffffffffffffff166370a082316000809054906101000a900473ffffffffffffffffffffffffffffffffffffffff166000604051602001526040518263ffffffff167c0100000000000000000000000000000000000000000000000000000000028152600401808273ffffffffffffffffffffffffffffffffffffffff1673ffffffffffffffffffffffffffffffffffffffff168152602001915050602060405180830381600087803b15156106d857600080fd5b6102c65a03f115156106e957600080fd5b50505060405180519050811115151561070157600080fd5b6003548210158061071457506000600354145b151561071f57600080fd5b61072982826111f4565b5050565b60035481565b60066020528060005260406000206000915054906101000a900460ff1681565b600060149054906101000a900460ff1681565b60055481565b6000809054906101000a900473ffffffffffffffffffffffffffffffffffffffff1673ffffffffffffffffffffffffffffffffffffffff163373ffffffffffffffffffffffffffffffffffffffff161415156107c757600080fd5b600060149054906101000a900460ff161515156107e357600080fd5b8060048190555050565b6000809054906101000a900473ffffffffffffffffffffffffffffffffffffffff1673ffffffffffffffffffffffffffffffffffffffff163373ffffffffffffffffffffffffffffffffffffffff1614151561084857600080fd5b600160009054906101000a900473ffffffffffffffffffffffffffffffffffffffff1673ffffffffffffffffffffffffffffffffffffffff166323b872dd306000809054906101000a900473ffffffffffffffffffffffffffffffffffffffff16600160009054906101000a900473ffffffffffffffffffffffffffffffffffffffff1673ffffffffffffffffffffffffffffffffffffffff166370a08231306000604051602001526040518263ffffffff167c0100000000000000000000000000000000000000000000000000000000028152600401808273ffffffffffffffffffffffffffffffffffffffff1673ffffffffffffffffffffffffffffffffffffffff168152602001915050602060405180830381600087803b151561096e57600080fd5b6102c65a03f1151561097f57600080fd5b505050604051805190506000604051602001526040518463ffffffff167c0100000000000000000000000000000000000000000000000000000000028152600401808473ffffffffffffffffffffffffffffffffffffffff1673ffffffffffffffffffffffffffffffffffffffff1681526020018373ffffffffffffffffffffffffffffffffffffffff1673ffffffffffffffffffffffffffffffffffffffff1681526020018281526020019350505050602060405180830381600087803b1515610a4957600080fd5b6102c65a03f11515610a5a57600080fd5b5050506040518051905050610a6d611231565b565b60086020528060005260406000206000915090508060000154908060010154905082565b60045481565b6000809054906101000a900473ffffffffffffffffffffffffffffffffffffffff1673ffffffffffffffffffffffffffffffffffffffff163373ffffffffffffffffffffffffffffffffffffffff16141515610af457600080fd5b600060149054906101000a900460ff16151515610b1057600080fd5b8060038190555050565b6000809054906101000a900473ffffffffffffffffffffffffffffffffffffffff1681565b6000809054906101000a900473ffffffffffffffffffffffffffffffffffffffff1673ffffffffffffffffffffffffffffffffffffffff163373ffffffffffffffffffffffffffffffffffffffff16141515610b9a57600080fd5b600060149054906101000a900460ff16151515610bb657600080fd5b8060028190555050565b60008060149054906101000a900460ff16151515610bdd57600080fd5b600254905090565b6000809054906101000a900473ffffffffffffffffffffffffffffffffffffffff1673ffffffffffffffffffffffffffffffffffffffff163373ffffffffffffffffffffffffffffffffffffffff16141515610c4057600080fd5b6001600760008373ffffffffffffffffffffffffffffffffffffffff1673ffffffffffffffffffffffffffffffffffffffff16815260200190815260200160002060006101000a81548160ff02191690831515021790555050565b60008060019050600060149054906101000a900460ff1615610cc05760009050610cfc565b60006004541115610cdf57426004541115610cda57600090505b610cfb565b60006005541115610cfa57426005541015610cf957600090505b5b5b5b8091505090565b6000809054906101000a900473ffffffffffffffffffffffffffffffffffffffff1673ffffffffffffffffffffffffffffffffffffffff163373ffffffffffffffffffffffffffffffffffffffff16141515610d5e57600080fd5b600060149054906101000a900460ff16151515610d7a57600080fd5b8060058190555050565b6000809054906101000a900473ffffffffffffffffffffffffffffffffffffffff1673ffffffffffffffffffffffffffffffffffffffff163373ffffffffffffffffffffffffffffffffffffffff16141515610ddf57600080fd5b600060149054906101000a900460ff16151515610dfb57600080fd5b80600660008473ffffffffffffffffffffffffffffffffffffffff1673ffffffffffffffffffffffffffffffffffffffff16815260200190815260200160002060006101000a81548160ff0219169083151502179055505050565b600660003373ffffffffffffffffffffffffffffffffffffffff1673ffffffffffffffffffffffffffffffffffffffff16815260200190815260200160002060009054906101000a900460ff161515610eae57600080fd5b610eb78161133d565b50565b60008060149054906101000a900460ff16151515610ed757600080fd5b600160009054906101000a900473ffffffffffffffffffffffffffffffffffffffff1673ffffffffffffffffffffffffffffffffffffffff1663dd62ed3e6000809054906101000a900473ffffffffffffffffffffffffffffffffffffffff16306000604051602001526040518363ffffffff167c0100000000000000000000000000000000000000000000000000000000028152600401808373ffffffffffffffffffffffffffffffffffffffff1673ffffffffffffffffffffffffffffffffffffffff1681526020018273ffffffffffffffffffffffffffffffffffffffff1673ffffffffffffffffffffffffffffffffffffffff16815260200192505050602060405180830381600087803b1515610ff157600080fd5b6102c65a03f1151561100257600080fd5b50505060405180519050905090565b60076020528060005260406000206000915054906101000a900460ff1681565b6000809054906101000a900473ffffffffffffffffffffffffffffffffffffffff1673ffffffffffffffffffffffffffffffffffffffff163373ffffffffffffffffffffffffffffffffffffffff1614151561108c57600080fd5b600073ffffffffffffffffffffffffffffffffffffffff168173ffffffffffffffffffffffffffffffffffffffff16141515156110c857600080fd5b8073ffffffffffffffffffffffffffffffffffffffff166000809054906101000a900473ffffffffffffffffffffffffffffffffffffffff1673ffffffffffffffffffffffffffffffffffffffff167f8be0079c531659141344cd1fd0a4f28419497f9722a3daafe3b4186f6b6457e060405160405180910390a3806000806101000a81548173ffffffffffffffffffffffffffffffffffffffff021916908373ffffffffffffffffffffffffffffffffffffffff16021790555050565b600160009054906101000a900473ffffffffffffffffffffffffffffffffffffffff1681565b60008060149054906101000a900460ff161515156111c957600080fd5b6111de6111d4610bc0565b633b9aca006115b8565b6111ec83633b9aca006115b8565b029050919050565b6111fc610c9b565b151561120757600080fd5b600060149054906101000a900460ff1615151561122357600080fd5b61122d82826115df565b5050565b6000809054906101000a900473ffffffffffffffffffffffffffffffffffffffff1673ffffffffffffffffffffffffffffffffffffffff163373ffffffffffffffffffffffffffffffffffffffff1614151561128c57600080fd5b600060149054906101000a900460ff161515156112a857600080fd5b6001600060146101000a81548160ff0219169083151502179055506000809054906101000a900473ffffffffffffffffffffffffffffffffffffffff1673ffffffffffffffffffffffffffffffffffffffff166108fc3073ffffffffffffffffffffffffffffffffffffffff16319081150290604051600060405180830381858888f19350505050151561133b57600080fd5b565b6000600860008373ffffffffffffffffffffffffffffffffffffffff1673ffffffffffffffffffffffffffffffffffffffff1681526020019081526020016000206001015411156115b5578073ffffffffffffffffffffffffffffffffffffffff166108fc600860008473ffffffffffffffffffffffffffffffffffffffff1673ffffffffffffffffffffffffffffffffffffffff168152602001908152602001600020600001549081150290604051600060405180830381858888f19350505050151561140a57600080fd5b600160009054906101000a900473ffffffffffffffffffffffffffffffffffffffff1673ffffffffffffffffffffffffffffffffffffffff1663a9059cbb82600860008573ffffffffffffffffffffffffffffffffffffffff1673ffffffffffffffffffffffffffffffffffffffff168152602001908152602001600020600101546040518363ffffffff167c0100000000000000000000000000000000000000000000000000000000028152600401808373ffffffffffffffffffffffffffffffffffffffff1673ffffffffffffffffffffffffffffffffffffffff16815260200182815260200192505050600060405180830381600087803b151561151057600080fd5b6102c65a03f1151561152157600080fd5b5050506000600860008373ffffffffffffffffffffffffffffffffffffffff1673ffffffffffffffffffffffffffffffffffffffff168152602001908152602001600020600101819055506000600860008373ffffffffffffffffffffffffffffffffffffffff1673ffffffffffffffffffffffffffffffffffffffff168152602001908152602001600020600001819055505b50565b6000806000831115156115c757fe5b82848115156115d257fe5b0490508091505092915050565b600060149054906101000a900460ff161515156115fb57600080fd5b61160482611611565b61160d8161173e565b5050565b80600860003373ffffffffffffffffffffffffffffffffffffffff1673ffffffffffffffffffffffffffffffffffffffff1681526020019081526020016000206000015401600860003373ffffffffffffffffffffffffffffffffffffffff1673ffffffffffffffffffffffffffffffffffffffff168152602001908152602001600020600001819055507f01a6dd555a0168dd57f865ff16599bedf1cbe954ed60757e28cf137f079c70a8303383604051808473ffffffffffffffffffffffffffffffffffffffff1673ffffffffffffffffffffffffffffffffffffffff1681526020018373ffffffffffffffffffffffffffffffffffffffff1673ffffffffffffffffffffffffffffffffffffffff168152602001828152602001935050505060405180910390a150565b80600860003373ffffffffffffffffffffffffffffffffffffffff1673ffffffffffffffffffffffffffffffffffffffff1681526020019081526020016000206001015401600860003373ffffffffffffffffffffffffffffffffffffffff1673ffffffffffffffffffffffffffffffffffffffff16815260200190815260200160002060010181905550600160009054906101000a900473ffffffffffffffffffffffffffffffffffffffff1673ffffffffffffffffffffffffffffffffffffffff166323b872dd6000809054906101000a900473ffffffffffffffffffffffffffffffffffffffff1630846000604051602001526040518463ffffffff167c0100000000000000000000000000000000000000000000000000000000028152600401808473ffffffffffffffffffffffffffffffffffffffff1673ffffffffffffffffffffffffffffffffffffffff1681526020018373ffffffffffffffffffffffffffffffffffffffff1673ffffffffffffffffffffffffffffffffffffffff1681526020018281526020019350505050602060405180830381600087803b15156118eb57600080fd5b6102c65a03f115156118fc57600080fd5b5050506040518051905050505600a165627a7a7230582043bd22108f2cebe778d30e987c108f24788fa5e6cf7f0aec121ab6df0111bdf70029",
  "source": "pragma solidity ^0.4.19;\n\nimport \"./XYTimedTokenSale.sol\";\nimport \"./XYBlockable.sol\";\nimport \"./XYApprovable.sol\";\n\ncontract XYPendingTokenSale is XYTimedTokenSale, XYApprovable, XYBlockable {\n\n    struct Pending {\n      uint eth;\n      uint tokens;\n    }\n\n    mapping (address => Pending) public pending;\n\n    function XYPendingTokenSale (address _token, uint _price, uint _minEther, uint _startTime, uint _endTime)\n      XYTimedTokenSale(_token, _price, _minEther, _startTime, _endTime)\n    public {\n    }\n\n    function approve(address _buyer) public onlyApprovers {\n      _approve(_buyer);\n    }\n\n    //we store the pending eth in the contract\n    function _acceptEther(uint _amount) internal {\n      pending[msg.sender].eth = pending[msg.sender].eth + _amount;\n      EtherAccepted(this, msg.sender, _amount);\n    }\n\n    //we store the pending tokens in the contracts\n    function _sendTokens(uint _amount) internal {\n      pending[msg.sender].tokens = pending[msg.sender].tokens + _amount;\n      token.transferFrom(owner, this, _amount);\n    }\n\n    //broke this out so that we can call it internally for auto-approve\n    function _approve(address _buyer) internal {\n      if (pending[_buyer].tokens > 0) {\n        _buyer.transfer(pending[_buyer].eth);\n        token.transfer(_buyer, pending[_buyer].tokens);\n        pending[_buyer].tokens = 0;\n        pending[_buyer].eth = 0;\n      }\n    }\n\n}\n",
  "sourcePath": "/Users/arietrouw/xyoraclenetwork/xyo-solidity/contracts/XYPendingTokenSale.sol",
  "compiler": {
    "name": "solc",
    "version": "0.4.19+commit.c4cbbb05.Emscripten.clang"
  },
  "schemaVersion": "2.0.0",
  "updatedAt": "2018-03-18T22:38:15.306Z"
}