{
  "contractName": "XYProofOfEligibility",
  "abi": [
    {
      "constant": true,
      "inputs": [
        {
          "name": "",
          "type": "address"
        }
      ],
      "name": "approvers",
      "outputs": [
        {
          "name": "",
          "type": "bool"
        }
      ],
      "payable": false,
      "stateMutability": "view",
      "type": "function"
    },
    {
      "constant": false,
      "inputs": [],
      "name": "kill",
      "outputs": [],
      "payable": false,
      "stateMutability": "nonpayable",
      "type": "function"
    },
    {
      "constant": true,
      "inputs": [],
      "name": "owner",
      "outputs": [
        {
          "name": "",
          "type": "address"
        }
      ],
      "payable": false,
      "stateMutability": "view",
      "type": "function"
    },
    {
      "constant": true,
      "inputs": [],
      "name": "isKilled",
      "outputs": [
        {
          "name": "",
          "type": "bool"
        }
      ],
      "payable": false,
      "stateMutability": "view",
      "type": "function"
    },
    {
      "constant": false,
      "inputs": [
        {
          "name": "_address",
          "type": "address"
        }
      ],
      "name": "blockAddress",
      "outputs": [],
      "payable": false,
      "stateMutability": "nonpayable",
      "type": "function"
    },
    {
      "constant": false,
      "inputs": [
        {
          "name": "_approver",
          "type": "address"
        },
        {
          "name": "_enabled",
          "type": "bool"
        }
      ],
      "name": "setApprover",
      "outputs": [],
      "payable": false,
      "stateMutability": "nonpayable",
      "type": "function"
    },
    {
      "constant": false,
      "inputs": [
        {
          "name": "newOwner",
          "type": "address"
        }
      ],
      "name": "transferOwnership",
      "outputs": [],
      "payable": false,
      "stateMutability": "nonpayable",
      "type": "function"
    },
    {
      "constant": true,
      "inputs": [
        {
          "name": "_address",
          "type": "address"
        }
      ],
      "name": "isBlocked",
      "outputs": [
        {
          "name": "",
          "type": "bool"
        }
      ],
      "payable": false,
      "stateMutability": "view",
      "type": "function"
    },
    {
      "anonymous": false,
      "inputs": [
        {
          "indexed": true,
          "name": "previousOwner",
          "type": "address"
        },
        {
          "indexed": true,
          "name": "newOwner",
          "type": "address"
        }
      ],
      "name": "OwnershipTransferred",
      "type": "event"
    },
    {
      "constant": true,
      "inputs": [
        {
          "name": "_wallet",
          "type": "address"
        }
      ],
      "name": "getEligiblity",
      "outputs": [
        {
          "name": "",
          "type": "address"
        }
      ],
      "payable": false,
      "stateMutability": "view",
      "type": "function"
    },
    {
      "constant": false,
      "inputs": [
        {
          "name": "_wallet",
          "type": "address"
        },
        {
          "name": "_proof",
          "type": "address"
        }
      ],
      "name": "setEligiblity",
      "outputs": [],
      "payable": false,
      "stateMutability": "nonpayable",
      "type": "function"
    }
  ],
  "bytecode": "0x6060604052336000806101000a81548173ffffffffffffffffffffffffffffffffffffffff021916908373ffffffffffffffffffffffffffffffffffffffff16021790555060018060003373ffffffffffffffffffffffffffffffffffffffff1673ffffffffffffffffffffffffffffffffffffffff16815260200190815260200160002060006101000a81548160ff0219169083151502179055506100b93360016100be64010000000002610769176401000000009004565b610190565b6000809054906101000a900473ffffffffffffffffffffffffffffffffffffffff1673ffffffffffffffffffffffffffffffffffffffff163373ffffffffffffffffffffffffffffffffffffffff1614151561011957600080fd5b600060149054906101000a900460ff1615151561013557600080fd5b80600160008473ffffffffffffffffffffffffffffffffffffffff1673ffffffffffffffffffffffffffffffffffffffff16815260200190815260200160002060006101000a81548160ff0219169083151502179055505050565b610a128061019f6000396000f3006060604052600436106100a4576000357c0100000000000000000000000000000000000000000000000000000000900463ffffffff1680630a144391146100a95780631bbd8737146100fa57806341c0e1b5146101735780638da5cb5b146101885780638fe8a101146101dd5780639ae4b1ab1461020a578063ad2bb1b314610262578063d76fd2e71461029b578063f2fde38b146102df578063fbac395114610318575b600080fd5b34156100b457600080fd5b6100e0600480803573ffffffffffffffffffffffffffffffffffffffff16906020019091905050610369565b604051808215151515815260200191505060405180910390f35b341561010557600080fd5b610131600480803573ffffffffffffffffffffffffffffffffffffffff16906020019091905050610389565b604051808273ffffffffffffffffffffffffffffffffffffffff1673ffffffffffffffffffffffffffffffffffffffff16815260200191505060405180910390f35b341561017e57600080fd5b6101866103f2565b005b341561019357600080fd5b61019b6104fe565b604051808273ffffffffffffffffffffffffffffffffffffffff1673ffffffffffffffffffffffffffffffffffffffff16815260200191505060405180910390f35b34156101e857600080fd5b6101f0610523565b604051808215151515815260200191505060405180910390f35b341561021557600080fd5b610260600480803573ffffffffffffffffffffffffffffffffffffffff1690602001909190803573ffffffffffffffffffffffffffffffffffffffff16906020019091905050610539565b005b341561026d57600080fd5b610299600480803573ffffffffffffffffffffffffffffffffffffffff16906020019091905050610697565b005b34156102a657600080fd5b6102dd600480803573ffffffffffffffffffffffffffffffffffffffff169060200190919080351515906020019091905050610769565b005b34156102ea57600080fd5b610316600480803573ffffffffffffffffffffffffffffffffffffffff1690602001909190505061083b565b005b341561032357600080fd5b61034f600480803573ffffffffffffffffffffffffffffffffffffffff16906020019091905050610990565b604051808215151515815260200191505060405180910390f35b60016020528060005260406000206000915054906101000a900460ff1681565b6000600360008373ffffffffffffffffffffffffffffffffffffffff1673ffffffffffffffffffffffffffffffffffffffff16815260200190815260200160002060009054906101000a900473ffffffffffffffffffffffffffffffffffffffff169050919050565b6000809054906101000a900473ffffffffffffffffffffffffffffffffffffffff1673ffffffffffffffffffffffffffffffffffffffff163373ffffffffffffffffffffffffffffffffffffffff1614151561044d57600080fd5b600060149054906101000a900460ff1615151561046957600080fd5b6001600060146101000a81548160ff0219169083151502179055506000809054906101000a900473ffffffffffffffffffffffffffffffffffffffff1673ffffffffffffffffffffffffffffffffffffffff166108fc3073ffffffffffffffffffffffffffffffffffffffff16319081150290604051600060405180830381858888f1935050505015156104fc57600080fd5b565b6000809054906101000a900473ffffffffffffffffffffffffffffffffffffffff1681565b60008060149054906101000a900460ff16905090565b600160003373ffffffffffffffffffffffffffffffffffffffff1673ffffffffffffffffffffffffffffffffffffffff16815260200190815260200160002060009054906101000a900460ff16151561059157600080fd5b6000600360008473ffffffffffffffffffffffffffffffffffffffff1673ffffffffffffffffffffffffffffffffffffffff16815260200190815260200160002060009054906101000a900473ffffffffffffffffffffffffffffffffffffffff1673ffffffffffffffffffffffffffffffffffffffff1614151561061557600080fd5b80600360008473ffffffffffffffffffffffffffffffffffffffff1673ffffffffffffffffffffffffffffffffffffffff16815260200190815260200160002060006101000a81548173ffffffffffffffffffffffffffffffffffffffff021916908373ffffffffffffffffffffffffffffffffffffffff1602179055505050565b6000809054906101000a900473ffffffffffffffffffffffffffffffffffffffff1673ffffffffffffffffffffffffffffffffffffffff163373ffffffffffffffffffffffffffffffffffffffff161415156106f257600080fd5b600060149054906101000a900460ff1615151561070e57600080fd5b6001600260008373ffffffffffffffffffffffffffffffffffffffff1673ffffffffffffffffffffffffffffffffffffffff16815260200190815260200160002060006101000a81548160ff02191690831515021790555050565b6000809054906101000a900473ffffffffffffffffffffffffffffffffffffffff1673ffffffffffffffffffffffffffffffffffffffff163373ffffffffffffffffffffffffffffffffffffffff161415156107c457600080fd5b600060149054906101000a900460ff161515156107e057600080fd5b80600160008473ffffffffffffffffffffffffffffffffffffffff1673ffffffffffffffffffffffffffffffffffffffff16815260200190815260200160002060006101000a81548160ff0219169083151502179055505050565b6000809054906101000a900473ffffffffffffffffffffffffffffffffffffffff1673ffffffffffffffffffffffffffffffffffffffff163373ffffffffffffffffffffffffffffffffffffffff1614151561089657600080fd5b600073ffffffffffffffffffffffffffffffffffffffff168173ffffffffffffffffffffffffffffffffffffffff16141515156108d257600080fd5b8073ffffffffffffffffffffffffffffffffffffffff166000809054906101000a900473ffffffffffffffffffffffffffffffffffffffff1673ffffffffffffffffffffffffffffffffffffffff167f8be0079c531659141344cd1fd0a4f28419497f9722a3daafe3b4186f6b6457e060405160405180910390a3806000806101000a81548173ffffffffffffffffffffffffffffffffffffffff021916908373ffffffffffffffffffffffffffffffffffffffff16021790555050565b6000600260008373ffffffffffffffffffffffffffffffffffffffff1673ffffffffffffffffffffffffffffffffffffffff16815260200190815260200160002060009054906101000a900460ff1690509190505600a165627a7a723058204b2e7a48a34884e655d8db5d8c8a3237d0f4e9cb59a863c25374c928072992330029",
  "source": "pragma solidity ^0.4.19;\n\nimport \"./XYBlockable.sol\";\n\ncontract XYProofOfEligibility is XYBlockable {\n\n  // Stores a mapping of wallet eligibility state\n  // The address can be whatever the caller wants\n  // 0 = Not yet XYEligible\n  // setting eligibility is permanent\n  mapping(address => address) private eligible;\n\n  function getEligiblity(address _wallet) public view returns (address) {\n    return eligible[_wallet];\n  }\n\n  function setEligiblity(address _wallet, address _proof) public onlyApprovers {\n    require(eligible[_wallet] == 0);\n    eligible[_wallet] = _proof;\n  }\n\n  modifier onlyEligible() {\n    require(eligible[msg.sender] != 0);\n    _;\n  }\n\n  modifier onlyIneligible() {\n    require(eligible[msg.sender] == 0);\n    _;\n  }\n\n}\n",
  "sourcePath": "/Users/arietrouw/xyoraclenetwork/xyo-solidity/src/contracts/TokenSale/XYProofOfEligibility.sol",
  "compiler": {
    "name": "solc",
    "version": "0.4.19+commit.c4cbbb05.Emscripten.clang"
  },
  "schemaVersion": "2.0.0",
  "updatedAt": "2018-03-17T21:53:36.023Z"
}