{
  "contractName": "XYRelativeQuery",
  "abi": [
    {
      "constant": true,
      "inputs": [
        {
          "name": "",
          "type": "address"
        }
      ],
      "name": "answeredQueries",
      "outputs": [
        {
          "name": "xyoAddress",
          "type": "address"
        },
        {
          "name": "range",
          "type": "uint256"
        },
        {
          "name": "accuracy",
          "type": "uint256"
        },
        {
          "name": "certainty",
          "type": "uint256"
        },
        {
          "name": "epoch",
          "type": "uint256"
        }
      ],
      "payable": false,
      "stateMutability": "view",
      "type": "function"
    },
    {
      "constant": true,
      "inputs": [
        {
          "name": "",
          "type": "address"
        }
      ],
      "name": "pendingQueries",
      "outputs": [
        {
          "name": "xyoValue",
          "type": "uint256"
        },
        {
          "name": "xyoAddress",
          "type": "address"
        },
        {
          "name": "accuracyThreshold",
          "type": "uint256"
        },
        {
          "name": "certaintyThresold",
          "type": "uint256"
        },
        {
          "name": "minimumDelay",
          "type": "uint256"
        },
        {
          "name": "epoch",
          "type": "uint256"
        },
        {
          "name": "relativeAddress",
          "type": "address"
        },
        {
          "name": "xynotify",
          "type": "address"
        }
      ],
      "payable": false,
      "stateMutability": "view",
      "type": "function"
    },
    {
      "constant": true,
      "inputs": [
        {
          "name": "",
          "type": "uint256"
        }
      ],
      "name": "answerList",
      "outputs": [
        {
          "name": "",
          "type": "address"
        }
      ],
      "payable": false,
      "stateMutability": "view",
      "type": "function"
    },
    {
      "anonymous": false,
      "inputs": [
        {
          "indexed": false,
          "name": "xyoValue",
          "type": "uint256"
        },
        {
          "indexed": false,
          "name": "xyoAddress",
          "type": "address"
        },
        {
          "indexed": false,
          "name": "accuracy",
          "type": "uint256"
        },
        {
          "indexed": false,
          "name": "certainty",
          "type": "uint256"
        },
        {
          "indexed": false,
          "name": "delay",
          "type": "uint256"
        },
        {
          "indexed": false,
          "name": "epoch",
          "type": "uint256"
        },
        {
          "indexed": false,
          "name": "relativeAddress",
          "type": "address"
        }
      ],
      "name": "QueryReceived",
      "type": "event"
    },
    {
      "anonymous": false,
      "inputs": [
        {
          "indexed": false,
          "name": "xyoAddress",
          "type": "address"
        },
        {
          "indexed": false,
          "name": "range",
          "type": "uint256"
        },
        {
          "indexed": false,
          "name": "accuracy",
          "type": "uint256"
        },
        {
          "indexed": false,
          "name": "certainty",
          "type": "uint256"
        },
        {
          "indexed": false,
          "name": "epoch",
          "type": "uint256"
        }
      ],
      "name": "AnswerReceived",
      "type": "event"
    },
    {
      "constant": false,
      "inputs": [
        {
          "name": "_xyoValue",
          "type": "uint256"
        },
        {
          "name": "_xyoAddress",
          "type": "address"
        },
        {
          "name": "_accuracy",
          "type": "uint256"
        },
        {
          "name": "_certainty",
          "type": "uint256"
        },
        {
          "name": "_delay",
          "type": "uint256"
        },
        {
          "name": "_epoch",
          "type": "uint256"
        },
        {
          "name": "_relativeAddress",
          "type": "address"
        },
        {
          "name": "_xynotify",
          "type": "address"
        }
      ],
      "name": "publishQuery",
      "outputs": [
        {
          "name": "",
          "type": "bool"
        }
      ],
      "payable": false,
      "stateMutability": "nonpayable",
      "type": "function"
    },
    {
      "constant": false,
      "inputs": [
        {
          "name": "_xyoAddress",
          "type": "address"
        },
        {
          "name": "_range",
          "type": "uint256"
        },
        {
          "name": "_accuracy",
          "type": "uint256"
        },
        {
          "name": "_certainty",
          "type": "uint256"
        },
        {
          "name": "_epoch",
          "type": "uint256"
        }
      ],
      "name": "publishAnswer",
      "outputs": [
        {
          "name": "",
          "type": "bool"
        }
      ],
      "payable": false,
      "stateMutability": "nonpayable",
      "type": "function"
    },
    {
      "constant": true,
      "inputs": [],
      "name": "hasPendingQuery",
      "outputs": [
        {
          "name": "",
          "type": "bool"
        }
      ],
      "payable": false,
      "stateMutability": "view",
      "type": "function"
    }
  ],
  "bytecode": "0x6060604052341561000f57600080fd5b610c6b8061001e6000396000f300606060405260043610610078576000357c0100000000000000000000000000000000000000000000000000000000900463ffffffff1680632afe70fd1461007d5780637fc4077e146101125780638b09220b14610214578063c9930ee014610289578063e491650e146102ec578063f8cd575014610319575b600080fd5b341561008857600080fd5b6100b4600480803573ffffffffffffffffffffffffffffffffffffffff169060200190919050506103d5565b604051808673ffffffffffffffffffffffffffffffffffffffff1673ffffffffffffffffffffffffffffffffffffffff1681526020018581526020018481526020018381526020018281526020019550505050505060405180910390f35b341561011d57600080fd5b610149600480803573ffffffffffffffffffffffffffffffffffffffff1690602001909190505061042b565b604051808981526020018873ffffffffffffffffffffffffffffffffffffffff1673ffffffffffffffffffffffffffffffffffffffff1681526020018781526020018681526020018581526020018481526020018373ffffffffffffffffffffffffffffffffffffffff1673ffffffffffffffffffffffffffffffffffffffff1681526020018273ffffffffffffffffffffffffffffffffffffffff1673ffffffffffffffffffffffffffffffffffffffff1681526020019850505050505050505060405180910390f35b341561021f57600080fd5b61026f600480803573ffffffffffffffffffffffffffffffffffffffff169060200190919080359060200190919080359060200190919080359060200190919080359060200190919050506104d3565b604051808215151515815260200191505060405180910390f35b341561029457600080fd5b6102aa60048080359060200190919050506108af565b604051808273ffffffffffffffffffffffffffffffffffffffff1673ffffffffffffffffffffffffffffffffffffffff16815260200191505060405180910390f35b34156102f757600080fd5b6102ff6108ee565b604051808215151515815260200191505060405180910390f35b341561032457600080fd5b6103bb600480803590602001909190803573ffffffffffffffffffffffffffffffffffffffff1690602001909190803590602001909190803590602001909190803590602001909190803590602001909190803573ffffffffffffffffffffffffffffffffffffffff1690602001909190803573ffffffffffffffffffffffffffffffffffffffff1690602001909190505061094a565b604051808215151515815260200191505060405180910390f35b60016020528060005260406000206000915090508060000160009054906101000a900473ffffffffffffffffffffffffffffffffffffffff16908060010154908060020154908060030154908060040154905085565b60006020528060005260406000206000915090508060000154908060010160009054906101000a900473ffffffffffffffffffffffffffffffffffffffff16908060020154908060030154908060040154908060050154908060060160009054906101000a900473ffffffffffffffffffffffffffffffffffffffff16908060070160009054906101000a900473ffffffffffffffffffffffffffffffffffffffff16905088565b600060a0604051908101604052808773ffffffffffffffffffffffffffffffffffffffff16815260200186815260200185815260200184815260200183815250600160008873ffffffffffffffffffffffffffffffffffffffff1673ffffffffffffffffffffffffffffffffffffffff16815260200190815260200160002060008201518160000160006101000a81548173ffffffffffffffffffffffffffffffffffffffff021916908373ffffffffffffffffffffffffffffffffffffffff16021790555060208201518160010155604082015181600201556060820151816003015560808201518160040155905050600280548060010182816105d89190610bee565b9160005260206000209001600088909190916101000a81548173ffffffffffffffffffffffffffffffffffffffff021916908373ffffffffffffffffffffffffffffffffffffffff1602179055505060008060003373ffffffffffffffffffffffffffffffffffffffff1673ffffffffffffffffffffffffffffffffffffffff1681526020019081526020016000206000018190555060008060003373ffffffffffffffffffffffffffffffffffffffff1673ffffffffffffffffffffffffffffffffffffffff16815260200190815260200160002060070160009054906101000a900473ffffffffffffffffffffffffffffffffffffffff1673ffffffffffffffffffffffffffffffffffffffff1614151561081f576000803373ffffffffffffffffffffffffffffffffffffffff1673ffffffffffffffffffffffffffffffffffffffff16815260200190815260200160002060070160009054906101000a900473ffffffffffffffffffffffffffffffffffffffff1673ffffffffffffffffffffffffffffffffffffffff1663da89638287878787876040518663ffffffff167c0100000000000000000000000000000000000000000000000000000000028152600401808673ffffffffffffffffffffffffffffffffffffffff1673ffffffffffffffffffffffffffffffffffffffff16815260200185815260200184815260200183815260200182815260200195505050505050600060405180830381600087803b151561080a57600080fd5b6102c65a03f1151561081b57600080fd5b5050505b7f2bdcfe8371fe6f6a47ea4c6aa3ea43822faf74e157c1c2b818bd2c45b9931cb68686868686604051808673ffffffffffffffffffffffffffffffffffffffff1673ffffffffffffffffffffffffffffffffffffffff1681526020018581526020018481526020018381526020018281526020019550505050505060405180910390a16001905095945050505050565b6002818154811015156108be57fe5b90600052602060002090016000915054906101000a900473ffffffffffffffffffffffffffffffffffffffff1681565b6000806000803373ffffffffffffffffffffffffffffffffffffffff1673ffffffffffffffffffffffffffffffffffffffff1681526020019081526020016000206000015411156109425760019050610947565b600090505b90565b6000808911151561095a57600080fd5b610100604051908101604052808a81526020018973ffffffffffffffffffffffffffffffffffffffff1681526020018881526020018781526020018681526020018581526020018473ffffffffffffffffffffffffffffffffffffffff1681526020018373ffffffffffffffffffffffffffffffffffffffff168152506000803373ffffffffffffffffffffffffffffffffffffffff1673ffffffffffffffffffffffffffffffffffffffff1681526020019081526020016000206000820151816000015560208201518160010160006101000a81548173ffffffffffffffffffffffffffffffffffffffff021916908373ffffffffffffffffffffffffffffffffffffffff16021790555060408201518160020155606082015181600301556080820151816004015560a0820151816005015560c08201518160060160006101000a81548173ffffffffffffffffffffffffffffffffffffffff021916908373ffffffffffffffffffffffffffffffffffffffff16021790555060e08201518160070160006101000a81548173ffffffffffffffffffffffffffffffffffffffff021916908373ffffffffffffffffffffffffffffffffffffffff1602179055509050507f1e5f1ae2728ee198908fa3eb2f1648d868c071c290c230709b701c79f58d893e89898989898989604051808881526020018773ffffffffffffffffffffffffffffffffffffffff1673ffffffffffffffffffffffffffffffffffffffff1681526020018681526020018581526020018481526020018381526020018273ffffffffffffffffffffffffffffffffffffffff1673ffffffffffffffffffffffffffffffffffffffff16815260200197505050505050505060405180910390a16001905098975050505050505050565b815481835581811511610c1557818360005260206000209182019101610c149190610c1a565b5b505050565b610c3c91905b80821115610c38576000816000905550600101610c20565b5090565b905600a165627a7a72305820c23f66f3b2c023945b7a16a510ec71ba2a18960a846d10de7318dc466052bb4e0029",
  "source": "pragma solidity ^0.4.19;\n\nimport './SafeMath.sol';\n\n\ninterface XYRelativeQueryNotify {\n    function answer(\n        address xyoAddress,\n        uint range,\n        uint accuracy,\n        uint certainty,\n        uint epoch) external;\n}\n\n\ncontract XYRelativeQuery {\n    using SafeMath for *;\n\n    struct PendingQuery {\n        uint xyoValue;\n        address xyoAddress;\n        uint accuracyThreshold;\n        uint certaintyThresold;\n        uint minimumDelay;\n        uint epoch;\n        address relativeAddress;\n        address xynotify;\n    }\n\n    struct Answer {\n        address xyoAddress;\n        uint range;\n        uint accuracy;\n        uint certainty;\n        uint epoch;\n    }\n\n    // Stores a mapping of pending queries\n    mapping (address => PendingQuery) public pendingQueries;\n    // Stores a mapping of xyoAddresses to answers\n    mapping (address => Answer) public answeredQueries;\n    address[] public answerList;\n\n    event QueryReceived(\n        uint xyoValue,\n        address xyoAddress,\n        uint accuracy,\n        uint certainty,\n        uint delay,\n        uint epoch,\n        address relativeAddress\n        );\n\n    event AnswerReceived(\n        address xyoAddress,\n        uint range,\n        uint accuracy,\n        uint certainty,\n        uint epoch\n        );\n\n    function publishQuery(\n        uint _xyoValue,\n        address _xyoAddress,\n        uint _accuracy,\n        uint _certainty,\n        uint _delay,\n        uint _epoch,\n        address _relativeAddress,\n        address _xynotify) public returns(bool) {\n\n        require(_xyoValue > 0);\n        pendingQueries[msg.sender] = PendingQuery(\n            _xyoValue,\n            _xyoAddress,\n            _accuracy,\n            _certainty,\n            _delay,\n            _epoch,\n            _relativeAddress,\n            _xynotify);\n\n        QueryReceived(\n            _xyoValue,\n            _xyoAddress,\n            _accuracy,\n            _certainty,\n            _delay,\n            _epoch,\n            _relativeAddress);\n\n        return true;\n    }\n\n    // this is how a diviner sets the answer.  Need to implement the origin proof\n    function publishAnswer(\n        address _xyoAddress,\n        uint _range,\n        uint _accuracy,\n        uint _certainty,\n        uint _epoch) public returns(bool) {\n        // TODO: Have to verify before returning\n        answeredQueries[_xyoAddress] = Answer(\n            _xyoAddress, _range, _accuracy, _certainty, _epoch);\n        answerList.push(_xyoAddress);\n        pendingQueries[msg.sender].xyoValue = 0;\n        if (pendingQueries[msg.sender].xynotify != 0) {\n            XYRelativeQueryNotify(pendingQueries[msg.sender].xynotify).answer(\n                _xyoAddress, _range, _accuracy, _certainty, _epoch);\n        }\n        AnswerReceived(_xyoAddress, _range, _accuracy, _certainty, _epoch);\n        return true;\n    }\n\n    function hasPendingQuery() view public returns(bool) {\n       if(pendingQueries[msg.sender].xyoValue > 0) {\n           return true;\n       }\n       return false;\n    }\n\n}\n",
  "sourcePath": "/Users/arietrouw/xyoraclenetwork/xyo-solidity/src/contracts/XYRelativeQuery.sol",
  "compiler": {
    "name": "solc",
    "version": "0.4.19+commit.c4cbbb05.Emscripten.clang"
  },
  "schemaVersion": "2.0.0",
  "updatedAt": "2018-03-17T20:24:04.893Z"
}