{
  "contractName": "XYTimedTokenSale",
  "abi": [
    {
      "constant": true,
      "inputs": [],
      "name": "minEther",
      "outputs": [
        {
          "name": "",
          "type": "uint256"
        }
      ],
      "payable": false,
      "stateMutability": "view",
      "type": "function"
    },
    {
      "constant": true,
      "inputs": [],
      "name": "endTime",
      "outputs": [
        {
          "name": "",
          "type": "uint256"
        }
      ],
      "payable": false,
      "stateMutability": "view",
      "type": "function"
    },
    {
      "constant": false,
      "inputs": [],
      "name": "kill",
      "outputs": [],
      "payable": false,
      "stateMutability": "nonpayable",
      "type": "function"
    },
    {
      "constant": false,
      "inputs": [],
      "name": "purchase",
      "outputs": [],
      "payable": true,
      "stateMutability": "payable",
      "type": "function"
    },
    {
      "constant": true,
      "inputs": [],
      "name": "startTime",
      "outputs": [
        {
          "name": "",
          "type": "uint256"
        }
      ],
      "payable": false,
      "stateMutability": "view",
      "type": "function"
    },
    {
      "constant": false,
      "inputs": [
        {
          "name": "_minEther",
          "type": "uint256"
        }
      ],
      "name": "setMinEther",
      "outputs": [],
      "payable": false,
      "stateMutability": "nonpayable",
      "type": "function"
    },
    {
      "constant": true,
      "inputs": [],
      "name": "owner",
      "outputs": [
        {
          "name": "",
          "type": "address"
        }
      ],
      "payable": false,
      "stateMutability": "view",
      "type": "function"
    },
    {
      "constant": true,
      "inputs": [],
      "name": "isKilled",
      "outputs": [
        {
          "name": "",
          "type": "bool"
        }
      ],
      "payable": false,
      "stateMutability": "view",
      "type": "function"
    },
    {
      "constant": false,
      "inputs": [
        {
          "name": "_price",
          "type": "uint256"
        }
      ],
      "name": "setPrice",
      "outputs": [],
      "payable": false,
      "stateMutability": "nonpayable",
      "type": "function"
    },
    {
      "constant": true,
      "inputs": [],
      "name": "getPrice",
      "outputs": [
        {
          "name": "",
          "type": "uint256"
        }
      ],
      "payable": false,
      "stateMutability": "view",
      "type": "function"
    },
    {
      "constant": true,
      "inputs": [],
      "name": "getAvailableTokens",
      "outputs": [
        {
          "name": "",
          "type": "uint256"
        }
      ],
      "payable": false,
      "stateMutability": "view",
      "type": "function"
    },
    {
      "constant": false,
      "inputs": [
        {
          "name": "newOwner",
          "type": "address"
        }
      ],
      "name": "transferOwnership",
      "outputs": [],
      "payable": false,
      "stateMutability": "nonpayable",
      "type": "function"
    },
    {
      "constant": true,
      "inputs": [],
      "name": "token",
      "outputs": [
        {
          "name": "",
          "type": "address"
        }
      ],
      "payable": false,
      "stateMutability": "view",
      "type": "function"
    },
    {
      "inputs": [
        {
          "name": "_token",
          "type": "address"
        },
        {
          "name": "_price",
          "type": "uint256"
        },
        {
          "name": "_minEther",
          "type": "uint256"
        },
        {
          "name": "_startTime",
          "type": "uint256"
        },
        {
          "name": "_endTime",
          "type": "uint256"
        }
      ],
      "payable": false,
      "stateMutability": "nonpayable",
      "type": "constructor"
    },
    {
      "anonymous": false,
      "inputs": [
        {
          "indexed": false,
          "name": "seller",
          "type": "address"
        },
        {
          "indexed": false,
          "name": "buyer",
          "type": "address"
        },
        {
          "indexed": false,
          "name": "amount",
          "type": "uint256"
        }
      ],
      "name": "EtherAccepted",
      "type": "event"
    },
    {
      "anonymous": false,
      "inputs": [
        {
          "indexed": false,
          "name": "seller",
          "type": "address"
        },
        {
          "indexed": false,
          "name": "buyer",
          "type": "address"
        },
        {
          "indexed": false,
          "name": "amount",
          "type": "uint256"
        }
      ],
      "name": "TokensSent",
      "type": "event"
    },
    {
      "anonymous": false,
      "inputs": [
        {
          "indexed": true,
          "name": "previousOwner",
          "type": "address"
        },
        {
          "indexed": true,
          "name": "newOwner",
          "type": "address"
        }
      ],
      "name": "OwnershipTransferred",
      "type": "event"
    },
    {
      "constant": false,
      "inputs": [
        {
          "name": "_startTime",
          "type": "uint256"
        }
      ],
      "name": "setStartTime",
      "outputs": [],
      "payable": false,
      "stateMutability": "nonpayable",
      "type": "function"
    },
    {
      "constant": false,
      "inputs": [
        {
          "name": "_endTime",
          "type": "uint256"
        }
      ],
      "name": "setEndTime",
      "outputs": [],
      "payable": false,
      "stateMutability": "nonpayable",
      "type": "function"
    },
    {
      "constant": true,
      "inputs": [],
      "name": "isLive",
      "outputs": [
        {
          "name": "",
          "type": "bool"
        }
      ],
      "payable": false,
      "stateMutability": "view",
      "type": "function"
    }
  ],
  "bytecode": "0x6060604052341561000f57600080fd5b60405160a0806113c183398101604052808051906020019091908051906020019091908051906020019091908051906020019091908051906020019091905050848484336000806101000a81548173ffffffffffffffffffffffffffffffffffffffff021916908373ffffffffffffffffffffffffffffffffffffffff16021790555082600160006101000a81548173ffffffffffffffffffffffffffffffffffffffff021916908373ffffffffffffffffffffffffffffffffffffffff1602179055508160028190555080600381905550505050816004819055508060058190555050505050506112bb806101066000396000f3006060604052600436106100e6576000357c0100000000000000000000000000000000000000000000000000000000900463ffffffff168063051af15d146100eb5780633197cbb6146101145780633e0a322d1461013d57806341c0e1b51461016057806364edfbf01461017557806378e979251461017f5780637aef1d4d146101a85780638da5cb5b146101cb5780638fe8a1011461022057806391b7f5ed1461024d57806398d5fdca14610270578063b8f7a66514610299578063ccb98ffc146102c6578063e35568cb146102e9578063f2fde38b14610312578063fc0c546a1461034b575b600080fd5b34156100f657600080fd5b6100fe6103a0565b6040518082815260200191505060405180910390f35b341561011f57600080fd5b6101276103a6565b6040518082815260200191505060405180910390f35b341561014857600080fd5b61015e60048080359060200190919050506103ac565b005b341561016b57600080fd5b61017361042d565b005b61017d6106af565b005b341561018a57600080fd5b61019261082d565b6040518082815260200191505060405180910390f35b34156101b357600080fd5b6101c96004808035906020019091905050610833565b005b34156101d657600080fd5b6101de6108b4565b604051808273ffffffffffffffffffffffffffffffffffffffff1673ffffffffffffffffffffffffffffffffffffffff16815260200191505060405180910390f35b341561022b57600080fd5b6102336108d9565b604051808215151515815260200191505060405180910390f35b341561025857600080fd5b61026e60048080359060200190919050506108ef565b005b341561027b57600080fd5b610283610970565b6040518082815260200191505060405180910390f35b34156102a457600080fd5b6102ac610995565b604051808215151515815260200191505060405180910390f35b34156102d157600080fd5b6102e760048080359060200190919050506109f5565b005b34156102f457600080fd5b6102fc610a76565b6040518082815260200191505060405180910390f35b341561031d57600080fd5b610349600480803573ffffffffffffffffffffffffffffffffffffffff16906020019091905050610bcd565b005b341561035657600080fd5b61035e610d22565b604051808273ffffffffffffffffffffffffffffffffffffffff1673ffffffffffffffffffffffffffffffffffffffff16815260200191505060405180910390f35b60035481565b60055481565b6000809054906101000a900473ffffffffffffffffffffffffffffffffffffffff1673ffffffffffffffffffffffffffffffffffffffff163373ffffffffffffffffffffffffffffffffffffffff1614151561040757600080fd5b600060149054906101000a900460ff1615151561042357600080fd5b8060048190555050565b6000809054906101000a900473ffffffffffffffffffffffffffffffffffffffff1673ffffffffffffffffffffffffffffffffffffffff163373ffffffffffffffffffffffffffffffffffffffff1614151561048857600080fd5b600160009054906101000a900473ffffffffffffffffffffffffffffffffffffffff1673ffffffffffffffffffffffffffffffffffffffff166323b872dd306000809054906101000a900473ffffffffffffffffffffffffffffffffffffffff16600160009054906101000a900473ffffffffffffffffffffffffffffffffffffffff1673ffffffffffffffffffffffffffffffffffffffff166370a08231306000604051602001526040518263ffffffff167c0100000000000000000000000000000000000000000000000000000000028152600401808273ffffffffffffffffffffffffffffffffffffffff1673ffffffffffffffffffffffffffffffffffffffff168152602001915050602060405180830381600087803b15156105ae57600080fd5b6102c65a03f115156105bf57600080fd5b505050604051805190506000604051602001526040518463ffffffff167c0100000000000000000000000000000000000000000000000000000000028152600401808473ffffffffffffffffffffffffffffffffffffffff1673ffffffffffffffffffffffffffffffffffffffff1681526020018373ffffffffffffffffffffffffffffffffffffffff1673ffffffffffffffffffffffffffffffffffffffff1681526020018281526020019350505050602060405180830381600087803b151561068957600080fd5b6102c65a03f1151561069a57600080fd5b50505060405180519050506106ad610d48565b565b600080600060149054906101000a900460ff161515156106ce57600080fd5b3491506106da82610e54565b90506106e4610a76565b81111515156106f257600080fd5b600160009054906101000a900473ffffffffffffffffffffffffffffffffffffffff1673ffffffffffffffffffffffffffffffffffffffff166370a082316000809054906101000a900473ffffffffffffffffffffffffffffffffffffffff166000604051602001526040518263ffffffff167c0100000000000000000000000000000000000000000000000000000000028152600401808273ffffffffffffffffffffffffffffffffffffffff1673ffffffffffffffffffffffffffffffffffffffff168152602001915050602060405180830381600087803b15156107d857600080fd5b6102c65a03f115156107e957600080fd5b50505060405180519050811115151561080157600080fd5b6003548210158061081457506000600354145b151561081f57600080fd5b6108298282610e9c565b5050565b60045481565b6000809054906101000a900473ffffffffffffffffffffffffffffffffffffffff1673ffffffffffffffffffffffffffffffffffffffff163373ffffffffffffffffffffffffffffffffffffffff1614151561088e57600080fd5b600060149054906101000a900460ff161515156108aa57600080fd5b8060038190555050565b6000809054906101000a900473ffffffffffffffffffffffffffffffffffffffff1681565b60008060149054906101000a900460ff16905090565b6000809054906101000a900473ffffffffffffffffffffffffffffffffffffffff1673ffffffffffffffffffffffffffffffffffffffff163373ffffffffffffffffffffffffffffffffffffffff1614151561094a57600080fd5b600060149054906101000a900460ff1615151561096657600080fd5b8060028190555050565b60008060149054906101000a900460ff1615151561098d57600080fd5b600254905090565b600080600190506109a46108d9565b156109b257600090506109ee565b600060045411156109d1574260045411156109cc57600090505b6109ed565b600060055411156109ec574260055410156109eb57600090505b5b5b5b8091505090565b6000809054906101000a900473ffffffffffffffffffffffffffffffffffffffff1673ffffffffffffffffffffffffffffffffffffffff163373ffffffffffffffffffffffffffffffffffffffff16141515610a5057600080fd5b600060149054906101000a900460ff16151515610a6c57600080fd5b8060058190555050565b60008060149054906101000a900460ff16151515610a9357600080fd5b600160009054906101000a900473ffffffffffffffffffffffffffffffffffffffff1673ffffffffffffffffffffffffffffffffffffffff1663dd62ed3e6000809054906101000a900473ffffffffffffffffffffffffffffffffffffffff16306000604051602001526040518363ffffffff167c0100000000000000000000000000000000000000000000000000000000028152600401808373ffffffffffffffffffffffffffffffffffffffff1673ffffffffffffffffffffffffffffffffffffffff1681526020018273ffffffffffffffffffffffffffffffffffffffff1673ffffffffffffffffffffffffffffffffffffffff16815260200192505050602060405180830381600087803b1515610bad57600080fd5b6102c65a03f11515610bbe57600080fd5b50505060405180519050905090565b6000809054906101000a900473ffffffffffffffffffffffffffffffffffffffff1673ffffffffffffffffffffffffffffffffffffffff163373ffffffffffffffffffffffffffffffffffffffff16141515610c2857600080fd5b600073ffffffffffffffffffffffffffffffffffffffff168173ffffffffffffffffffffffffffffffffffffffff1614151515610c6457600080fd5b8073ffffffffffffffffffffffffffffffffffffffff166000809054906101000a900473ffffffffffffffffffffffffffffffffffffffff1673ffffffffffffffffffffffffffffffffffffffff167f8be0079c531659141344cd1fd0a4f28419497f9722a3daafe3b4186f6b6457e060405160405180910390a3806000806101000a81548173ffffffffffffffffffffffffffffffffffffffff021916908373ffffffffffffffffffffffffffffffffffffffff16021790555050565b600160009054906101000a900473ffffffffffffffffffffffffffffffffffffffff1681565b6000809054906101000a900473ffffffffffffffffffffffffffffffffffffffff1673ffffffffffffffffffffffffffffffffffffffff163373ffffffffffffffffffffffffffffffffffffffff16141515610da357600080fd5b600060149054906101000a900460ff16151515610dbf57600080fd5b6001600060146101000a81548160ff0219169083151502179055506000809054906101000a900473ffffffffffffffffffffffffffffffffffffffff1673ffffffffffffffffffffffffffffffffffffffff166108fc3073ffffffffffffffffffffffffffffffffffffffff16319081150290604051600060405180830381858888f193505050501515610e5257600080fd5b565b60008060149054906101000a900460ff16151515610e7157600080fd5b610e86610e7c610970565b633b9aca00610ed9565b610e9483633b9aca00610ed9565b029050919050565b610ea4610995565b1515610eaf57600080fd5b600060149054906101000a900460ff16151515610ecb57600080fd5b610ed58282610f00565b5050565b600080600083111515610ee857fe5b8284811515610ef357fe5b0490508091505092915050565b600060149054906101000a900460ff16151515610f1c57600080fd5b610f2582610f32565b610f2e81611072565b5050565b600060149054906101000a900460ff16151515610f4e57600080fd5b6000809054906101000a900473ffffffffffffffffffffffffffffffffffffffff1673ffffffffffffffffffffffffffffffffffffffff166108fc829081150290604051600060405180830381858888f193505050501515610faf57600080fd5b7f01a6dd555a0168dd57f865ff16599bedf1cbe954ed60757e28cf137f079c70a86000809054906101000a900473ffffffffffffffffffffffffffffffffffffffff163383604051808473ffffffffffffffffffffffffffffffffffffffff1673ffffffffffffffffffffffffffffffffffffffff1681526020018373ffffffffffffffffffffffffffffffffffffffff1673ffffffffffffffffffffffffffffffffffffffff168152602001828152602001935050505060405180910390a150565b600060149054906101000a900460ff1615151561108e57600080fd5b600160009054906101000a900473ffffffffffffffffffffffffffffffffffffffff1673ffffffffffffffffffffffffffffffffffffffff166323b872dd6000809054906101000a900473ffffffffffffffffffffffffffffffffffffffff1633846000604051602001526040518463ffffffff167c0100000000000000000000000000000000000000000000000000000000028152600401808473ffffffffffffffffffffffffffffffffffffffff1673ffffffffffffffffffffffffffffffffffffffff1681526020018373ffffffffffffffffffffffffffffffffffffffff1673ffffffffffffffffffffffffffffffffffffffff1681526020018281526020019350505050602060405180830381600087803b15156111b057600080fd5b6102c65a03f115156111c157600080fd5b50505060405180519050507fe607861baff3d292b19188affe88c1a72bdcb69d3015f18bb2cd0bf5349cc3e16000809054906101000a900473ffffffffffffffffffffffffffffffffffffffff163383604051808473ffffffffffffffffffffffffffffffffffffffff1673ffffffffffffffffffffffffffffffffffffffff1681526020018373ffffffffffffffffffffffffffffffffffffffff1673ffffffffffffffffffffffffffffffffffffffff168152602001828152602001935050505060405180910390a1505600a165627a7a72305820ad7345a4cb5ee2c0794cfa3a027161653b0298d35ae12dcb47004024759743a60029",
  "source": "pragma solidity ^ 0.4 .19;\n\nimport \"./XYTokenSale.sol\";\n\ncontract XYTimedTokenSale is XYTokenSale {\n\n  uint public startTime; //when the sale starts (0 = right away)\n  uint public endTime; //when the sale ends (0 = never)\n\n  function XYTimedTokenSale(address _token, uint _price, uint _minEther, uint _startTime, uint _endTime)\n  XYTokenSale(_token, _price, _minEther)\n  public {\n    startTime = _startTime;\n    endTime = _endTime;\n  }\n\n  function _purchase(uint _ethAmount, uint _tokenAmount) internal live notKilled {\n    super._purchase(_ethAmount, _tokenAmount);\n  }\n\n  function setStartTime(uint _startTime) public onlyOwner notKilled {\n    startTime = _startTime;\n  }\n\n  function setEndTime(uint _endTime) public onlyOwner notKilled {\n    endTime = _endTime;\n  }\n\n  function isLive() public view returns(bool) {\n    bool live = true;\n    if (isKilled()) {\n      live = false;\n    } else if (startTime > 0) {\n      if (startTime > now) {\n        live = false;\n      }\n    } else if (endTime > 0) {\n      if (endTime < now) {\n        live = false;\n      }\n    }\n    return live;\n  }\n\n  modifier live() {\n    require(isLive());\n    _;\n  }\n\n  modifier notLive() {\n    require(!isLive());\n    _;\n  }\n\n}\n",
  "sourcePath": "/Users/arietrouw/xyoraclenetwork/xyo-solidity/src/contracts/TokenSale/XYTimedTokenSale.sol",
  "compiler": {
    "name": "solc",
    "version": "0.4.19+commit.c4cbbb05.Emscripten.clang"
  },
  "schemaVersion": "2.0.0",
  "updatedAt": "2018-03-17T21:53:36.027Z"
}