{
  "contractName": "XYTimedTokenSale",
  "abi": [
    {
      "constant": true,
      "inputs": [],
      "name": "minEther",
      "outputs": [
        {
          "name": "",
          "type": "uint256"
        }
      ],
      "payable": false,
      "stateMutability": "view",
      "type": "function"
    },
    {
      "constant": true,
      "inputs": [],
      "name": "killed",
      "outputs": [
        {
          "name": "",
          "type": "bool"
        }
      ],
      "payable": false,
      "stateMutability": "view",
      "type": "function"
    },
    {
      "constant": true,
      "inputs": [],
      "name": "endTime",
      "outputs": [
        {
          "name": "",
          "type": "uint256"
        }
      ],
      "payable": false,
      "stateMutability": "view",
      "type": "function"
    },
    {
      "constant": false,
      "inputs": [],
      "name": "kill",
      "outputs": [],
      "payable": false,
      "stateMutability": "nonpayable",
      "type": "function"
    },
    {
      "constant": false,
      "inputs": [],
      "name": "purchase",
      "outputs": [],
      "payable": true,
      "stateMutability": "payable",
      "type": "function"
    },
    {
      "constant": true,
      "inputs": [],
      "name": "startTime",
      "outputs": [
        {
          "name": "",
          "type": "uint256"
        }
      ],
      "payable": false,
      "stateMutability": "view",
      "type": "function"
    },
    {
      "constant": false,
      "inputs": [
        {
          "name": "_minEther",
          "type": "uint256"
        }
      ],
      "name": "setMinEther",
      "outputs": [],
      "payable": false,
      "stateMutability": "nonpayable",
      "type": "function"
    },
    {
      "constant": true,
      "inputs": [],
      "name": "owner",
      "outputs": [
        {
          "name": "",
          "type": "address"
        }
      ],
      "payable": false,
      "stateMutability": "view",
      "type": "function"
    },
    {
      "constant": false,
      "inputs": [
        {
          "name": "_price",
          "type": "uint256"
        }
      ],
      "name": "setPrice",
      "outputs": [],
      "payable": false,
      "stateMutability": "nonpayable",
      "type": "function"
    },
    {
      "constant": true,
      "inputs": [],
      "name": "getPrice",
      "outputs": [
        {
          "name": "",
          "type": "uint256"
        }
      ],
      "payable": false,
      "stateMutability": "view",
      "type": "function"
    },
    {
      "constant": true,
      "inputs": [],
      "name": "getAvailableTokens",
      "outputs": [
        {
          "name": "",
          "type": "uint256"
        }
      ],
      "payable": false,
      "stateMutability": "view",
      "type": "function"
    },
    {
      "constant": false,
      "inputs": [
        {
          "name": "newOwner",
          "type": "address"
        }
      ],
      "name": "transferOwnership",
      "outputs": [],
      "payable": false,
      "stateMutability": "nonpayable",
      "type": "function"
    },
    {
      "constant": true,
      "inputs": [],
      "name": "token",
      "outputs": [
        {
          "name": "",
          "type": "address"
        }
      ],
      "payable": false,
      "stateMutability": "view",
      "type": "function"
    },
    {
      "inputs": [
        {
          "name": "_token",
          "type": "address"
        },
        {
          "name": "_price",
          "type": "uint256"
        },
        {
          "name": "_minEther",
          "type": "uint256"
        },
        {
          "name": "_startTime",
          "type": "uint256"
        },
        {
          "name": "_endTime",
          "type": "uint256"
        }
      ],
      "payable": false,
      "stateMutability": "nonpayable",
      "type": "constructor"
    },
    {
      "payable": true,
      "stateMutability": "payable",
      "type": "fallback"
    },
    {
      "anonymous": false,
      "inputs": [
        {
          "indexed": false,
          "name": "seller",
          "type": "address"
        },
        {
          "indexed": false,
          "name": "buyer",
          "type": "address"
        },
        {
          "indexed": false,
          "name": "amount",
          "type": "uint256"
        }
      ],
      "name": "EtherAccepted",
      "type": "event"
    },
    {
      "anonymous": false,
      "inputs": [
        {
          "indexed": false,
          "name": "seller",
          "type": "address"
        },
        {
          "indexed": false,
          "name": "buyer",
          "type": "address"
        },
        {
          "indexed": false,
          "name": "amount",
          "type": "uint256"
        }
      ],
      "name": "TokensSent",
      "type": "event"
    },
    {
      "anonymous": false,
      "inputs": [
        {
          "indexed": true,
          "name": "previousOwner",
          "type": "address"
        },
        {
          "indexed": true,
          "name": "newOwner",
          "type": "address"
        }
      ],
      "name": "OwnershipTransferred",
      "type": "event"
    },
    {
      "constant": false,
      "inputs": [
        {
          "name": "_startTime",
          "type": "uint256"
        }
      ],
      "name": "setStartTime",
      "outputs": [],
      "payable": false,
      "stateMutability": "nonpayable",
      "type": "function"
    },
    {
      "constant": false,
      "inputs": [
        {
          "name": "_endTime",
          "type": "uint256"
        }
      ],
      "name": "setEndTime",
      "outputs": [],
      "payable": false,
      "stateMutability": "nonpayable",
      "type": "function"
    },
    {
      "constant": true,
      "inputs": [],
      "name": "isLive",
      "outputs": [
        {
          "name": "",
          "type": "bool"
        }
      ],
      "payable": false,
      "stateMutability": "view",
      "type": "function"
    }
  ],
  "bytecode": "0x6060604052341561000f57600080fd5b60405160a0806113e783398101604052808051906020019091908051906020019091908051906020019091908051906020019091908051906020019091905050848484336000806101000a81548173ffffffffffffffffffffffffffffffffffffffff021916908373ffffffffffffffffffffffffffffffffffffffff16021790555082600160006101000a81548173ffffffffffffffffffffffffffffffffffffffff021916908373ffffffffffffffffffffffffffffffffffffffff1602179055508160028190555080600381905550505050816004819055508060058190555050505050506112e1806101066000396000f3006060604052600436106100e6576000357c0100000000000000000000000000000000000000000000000000000000900463ffffffff168063051af15d1461010c5780631f3a0e41146101355780633197cbb6146101625780633e0a322d1461018b57806341c0e1b5146101ae57806364edfbf0146101c357806378e97925146101cd5780637aef1d4d146101f65780638da5cb5b1461021957806391b7f5ed1461026e57806398d5fdca14610291578063b8f7a665146102ba578063ccb98ffc146102e7578063e35568cb1461030a578063f2fde38b14610333578063fc0c546a1461036c575b600060149054906101000a900460ff1615151561010257600080fd5b61010a6103c1565b005b341561011757600080fd5b61011f61053f565b6040518082815260200191505060405180910390f35b341561014057600080fd5b610148610545565b604051808215151515815260200191505060405180910390f35b341561016d57600080fd5b610175610558565b6040518082815260200191505060405180910390f35b341561019657600080fd5b6101ac600480803590602001909190505061055e565b005b34156101b957600080fd5b6101c16105df565b005b6101cb6103c1565b005b34156101d857600080fd5b6101e0610861565b6040518082815260200191505060405180910390f35b341561020157600080fd5b6102176004808035906020019091905050610867565b005b341561022457600080fd5b61022c6108e8565b604051808273ffffffffffffffffffffffffffffffffffffffff1673ffffffffffffffffffffffffffffffffffffffff16815260200191505060405180910390f35b341561027957600080fd5b61028f600480803590602001909190505061090d565b005b341561029c57600080fd5b6102a461098e565b6040518082815260200191505060405180910390f35b34156102c557600080fd5b6102cd6109b3565b604051808215151515815260200191505060405180910390f35b34156102f257600080fd5b6103086004808035906020019091905050610a1b565b005b341561031557600080fd5b61031d610a9c565b6040518082815260200191505060405180910390f35b341561033e57600080fd5b61036a600480803573ffffffffffffffffffffffffffffffffffffffff16906020019091905050610bf3565b005b341561037757600080fd5b61037f610d48565b604051808273ffffffffffffffffffffffffffffffffffffffff1673ffffffffffffffffffffffffffffffffffffffff16815260200191505060405180910390f35b600080600060149054906101000a900460ff161515156103e057600080fd5b3491506103ec82610d6e565b90506103f6610a9c565b811115151561040457600080fd5b600160009054906101000a900473ffffffffffffffffffffffffffffffffffffffff1673ffffffffffffffffffffffffffffffffffffffff166370a082316000809054906101000a900473ffffffffffffffffffffffffffffffffffffffff166000604051602001526040518263ffffffff167c0100000000000000000000000000000000000000000000000000000000028152600401808273ffffffffffffffffffffffffffffffffffffffff1673ffffffffffffffffffffffffffffffffffffffff168152602001915050602060405180830381600087803b15156104ea57600080fd5b6102c65a03f115156104fb57600080fd5b50505060405180519050811115151561051357600080fd5b6003548210158061052657506000600354145b151561053157600080fd5b61053b8282610db6565b5050565b60035481565b600060149054906101000a900460ff1681565b60055481565b6000809054906101000a900473ffffffffffffffffffffffffffffffffffffffff1673ffffffffffffffffffffffffffffffffffffffff163373ffffffffffffffffffffffffffffffffffffffff161415156105b957600080fd5b600060149054906101000a900460ff161515156105d557600080fd5b8060048190555050565b6000809054906101000a900473ffffffffffffffffffffffffffffffffffffffff1673ffffffffffffffffffffffffffffffffffffffff163373ffffffffffffffffffffffffffffffffffffffff1614151561063a57600080fd5b600160009054906101000a900473ffffffffffffffffffffffffffffffffffffffff1673ffffffffffffffffffffffffffffffffffffffff166323b872dd306000809054906101000a900473ffffffffffffffffffffffffffffffffffffffff16600160009054906101000a900473ffffffffffffffffffffffffffffffffffffffff1673ffffffffffffffffffffffffffffffffffffffff166370a08231306000604051602001526040518263ffffffff167c0100000000000000000000000000000000000000000000000000000000028152600401808273ffffffffffffffffffffffffffffffffffffffff1673ffffffffffffffffffffffffffffffffffffffff168152602001915050602060405180830381600087803b151561076057600080fd5b6102c65a03f1151561077157600080fd5b505050604051805190506000604051602001526040518463ffffffff167c0100000000000000000000000000000000000000000000000000000000028152600401808473ffffffffffffffffffffffffffffffffffffffff1673ffffffffffffffffffffffffffffffffffffffff1681526020018373ffffffffffffffffffffffffffffffffffffffff1673ffffffffffffffffffffffffffffffffffffffff1681526020018281526020019350505050602060405180830381600087803b151561083b57600080fd5b6102c65a03f1151561084c57600080fd5b505050604051805190505061085f610df3565b565b60045481565b6000809054906101000a900473ffffffffffffffffffffffffffffffffffffffff1673ffffffffffffffffffffffffffffffffffffffff163373ffffffffffffffffffffffffffffffffffffffff161415156108c257600080fd5b600060149054906101000a900460ff161515156108de57600080fd5b8060038190555050565b6000809054906101000a900473ffffffffffffffffffffffffffffffffffffffff1681565b6000809054906101000a900473ffffffffffffffffffffffffffffffffffffffff1673ffffffffffffffffffffffffffffffffffffffff163373ffffffffffffffffffffffffffffffffffffffff1614151561096857600080fd5b600060149054906101000a900460ff1615151561098457600080fd5b8060028190555050565b60008060149054906101000a900460ff161515156109ab57600080fd5b600254905090565b60008060019050600060149054906101000a900460ff16156109d85760009050610a14565b600060045411156109f7574260045411156109f257600090505b610a13565b60006005541115610a1257426005541015610a1157600090505b5b5b5b8091505090565b6000809054906101000a900473ffffffffffffffffffffffffffffffffffffffff1673ffffffffffffffffffffffffffffffffffffffff163373ffffffffffffffffffffffffffffffffffffffff16141515610a7657600080fd5b600060149054906101000a900460ff16151515610a9257600080fd5b8060058190555050565b60008060149054906101000a900460ff16151515610ab957600080fd5b600160009054906101000a900473ffffffffffffffffffffffffffffffffffffffff1673ffffffffffffffffffffffffffffffffffffffff1663dd62ed3e6000809054906101000a900473ffffffffffffffffffffffffffffffffffffffff16306000604051602001526040518363ffffffff167c0100000000000000000000000000000000000000000000000000000000028152600401808373ffffffffffffffffffffffffffffffffffffffff1673ffffffffffffffffffffffffffffffffffffffff1681526020018273ffffffffffffffffffffffffffffffffffffffff1673ffffffffffffffffffffffffffffffffffffffff16815260200192505050602060405180830381600087803b1515610bd357600080fd5b6102c65a03f11515610be457600080fd5b50505060405180519050905090565b6000809054906101000a900473ffffffffffffffffffffffffffffffffffffffff1673ffffffffffffffffffffffffffffffffffffffff163373ffffffffffffffffffffffffffffffffffffffff16141515610c4e57600080fd5b600073ffffffffffffffffffffffffffffffffffffffff168173ffffffffffffffffffffffffffffffffffffffff1614151515610c8a57600080fd5b8073ffffffffffffffffffffffffffffffffffffffff166000809054906101000a900473ffffffffffffffffffffffffffffffffffffffff1673ffffffffffffffffffffffffffffffffffffffff167f8be0079c531659141344cd1fd0a4f28419497f9722a3daafe3b4186f6b6457e060405160405180910390a3806000806101000a81548173ffffffffffffffffffffffffffffffffffffffff021916908373ffffffffffffffffffffffffffffffffffffffff16021790555050565b600160009054906101000a900473ffffffffffffffffffffffffffffffffffffffff1681565b60008060149054906101000a900460ff16151515610d8b57600080fd5b610da0610d9661098e565b633b9aca00610eff565b610dae83633b9aca00610eff565b029050919050565b610dbe6109b3565b1515610dc957600080fd5b600060149054906101000a900460ff16151515610de557600080fd5b610def8282610f26565b5050565b6000809054906101000a900473ffffffffffffffffffffffffffffffffffffffff1673ffffffffffffffffffffffffffffffffffffffff163373ffffffffffffffffffffffffffffffffffffffff16141515610e4e57600080fd5b600060149054906101000a900460ff16151515610e6a57600080fd5b6001600060146101000a81548160ff0219169083151502179055506000809054906101000a900473ffffffffffffffffffffffffffffffffffffffff1673ffffffffffffffffffffffffffffffffffffffff166108fc3073ffffffffffffffffffffffffffffffffffffffff16319081150290604051600060405180830381858888f193505050501515610efd57600080fd5b565b600080600083111515610f0e57fe5b8284811515610f1957fe5b0490508091505092915050565b600060149054906101000a900460ff16151515610f4257600080fd5b610f4b82610f58565b610f5481611098565b5050565b600060149054906101000a900460ff16151515610f7457600080fd5b6000809054906101000a900473ffffffffffffffffffffffffffffffffffffffff1673ffffffffffffffffffffffffffffffffffffffff166108fc829081150290604051600060405180830381858888f193505050501515610fd557600080fd5b7f01a6dd555a0168dd57f865ff16599bedf1cbe954ed60757e28cf137f079c70a86000809054906101000a900473ffffffffffffffffffffffffffffffffffffffff163383604051808473ffffffffffffffffffffffffffffffffffffffff1673ffffffffffffffffffffffffffffffffffffffff1681526020018373ffffffffffffffffffffffffffffffffffffffff1673ffffffffffffffffffffffffffffffffffffffff168152602001828152602001935050505060405180910390a150565b600060149054906101000a900460ff161515156110b457600080fd5b600160009054906101000a900473ffffffffffffffffffffffffffffffffffffffff1673ffffffffffffffffffffffffffffffffffffffff166323b872dd6000809054906101000a900473ffffffffffffffffffffffffffffffffffffffff1633846000604051602001526040518463ffffffff167c0100000000000000000000000000000000000000000000000000000000028152600401808473ffffffffffffffffffffffffffffffffffffffff1673ffffffffffffffffffffffffffffffffffffffff1681526020018373ffffffffffffffffffffffffffffffffffffffff1673ffffffffffffffffffffffffffffffffffffffff1681526020018281526020019350505050602060405180830381600087803b15156111d657600080fd5b6102c65a03f115156111e757600080fd5b50505060405180519050507fe607861baff3d292b19188affe88c1a72bdcb69d3015f18bb2cd0bf5349cc3e16000809054906101000a900473ffffffffffffffffffffffffffffffffffffffff163383604051808473ffffffffffffffffffffffffffffffffffffffff1673ffffffffffffffffffffffffffffffffffffffff1681526020018373ffffffffffffffffffffffffffffffffffffffff1673ffffffffffffffffffffffffffffffffffffffff168152602001828152602001935050505060405180910390a1505600a165627a7a723058200f350a47c369767e06b1cab1915c743ecd923e12cf5033f27e7b35549e3f60490029",
  "source": "pragma solidity ^ 0.4 .19;\n\nimport \"./XYTokenSale.sol\";\n\ncontract XYTimedTokenSale is XYTokenSale {\n\n  uint public startTime; //when the sale starts (0 = right away)\n  uint public endTime; //when the sale ends (0 = never)\n\n  function XYTimedTokenSale(address _token, uint _price, uint _minEther, uint _startTime, uint _endTime)\n  XYTokenSale(_token, _price, _minEther)\n  public {\n    startTime = _startTime;\n    endTime = _endTime;\n  }\n\n  function _purchase(uint _ethAmount, uint _tokenAmount) internal live onlyNotKilled {\n    super._purchase(_ethAmount, _tokenAmount);\n  }\n\n  function setStartTime(uint _startTime) public onlyOwner onlyNotKilled {\n    startTime = _startTime;\n  }\n\n  function setEndTime(uint _endTime) public onlyOwner onlyNotKilled {\n    endTime = _endTime;\n  }\n\n  function isLive() public view returns(bool) {\n    bool live = true;\n    if (killed) {\n      live = false;\n    } else if (startTime > 0) {\n      if (startTime > now) {\n        live = false;\n      }\n    } else if (endTime > 0) {\n      if (endTime < now) {\n        live = false;\n      }\n    }\n    return live;\n  }\n\n  modifier live() {\n    require(isLive());\n    _;\n  }\n\n  modifier notLive() {\n    require(!isLive());\n    _;\n  }\n\n}\n",
  "sourcePath": "/Users/arietrouw/xyoraclenetwork/xyo-solidity/contracts/XYTimedTokenSale.sol",
  "compiler": {
    "name": "solc",
    "version": "0.4.19+commit.c4cbbb05.Emscripten.clang"
  },
  "schemaVersion": "2.0.0",
  "updatedAt": "2018-03-18T22:38:15.310Z"
}