{
  "contractName": "XYTokenSale",
  "abi": [
    {
      "constant": true,
      "inputs": [],
      "name": "minEther",
      "outputs": [
        {
          "name": "",
          "type": "uint256"
        }
      ],
      "payable": false,
      "stateMutability": "view",
      "type": "function"
    },
    {
      "constant": true,
      "inputs": [],
      "name": "owner",
      "outputs": [
        {
          "name": "",
          "type": "address"
        }
      ],
      "payable": false,
      "stateMutability": "view",
      "type": "function"
    },
    {
      "constant": true,
      "inputs": [],
      "name": "isKilled",
      "outputs": [
        {
          "name": "",
          "type": "bool"
        }
      ],
      "payable": false,
      "stateMutability": "view",
      "type": "function"
    },
    {
      "constant": false,
      "inputs": [
        {
          "name": "newOwner",
          "type": "address"
        }
      ],
      "name": "transferOwnership",
      "outputs": [],
      "payable": false,
      "stateMutability": "nonpayable",
      "type": "function"
    },
    {
      "constant": true,
      "inputs": [],
      "name": "token",
      "outputs": [
        {
          "name": "",
          "type": "address"
        }
      ],
      "payable": false,
      "stateMutability": "view",
      "type": "function"
    },
    {
      "inputs": [
        {
          "name": "_token",
          "type": "address"
        },
        {
          "name": "_price",
          "type": "uint256"
        },
        {
          "name": "_minEther",
          "type": "uint256"
        }
      ],
      "payable": false,
      "stateMutability": "nonpayable",
      "type": "constructor"
    },
    {
      "anonymous": false,
      "inputs": [
        {
          "indexed": false,
          "name": "seller",
          "type": "address"
        },
        {
          "indexed": false,
          "name": "buyer",
          "type": "address"
        },
        {
          "indexed": false,
          "name": "amount",
          "type": "uint256"
        }
      ],
      "name": "EtherAccepted",
      "type": "event"
    },
    {
      "anonymous": false,
      "inputs": [
        {
          "indexed": false,
          "name": "seller",
          "type": "address"
        },
        {
          "indexed": false,
          "name": "buyer",
          "type": "address"
        },
        {
          "indexed": false,
          "name": "amount",
          "type": "uint256"
        }
      ],
      "name": "TokensSent",
      "type": "event"
    },
    {
      "anonymous": false,
      "inputs": [
        {
          "indexed": true,
          "name": "previousOwner",
          "type": "address"
        },
        {
          "indexed": true,
          "name": "newOwner",
          "type": "address"
        }
      ],
      "name": "OwnershipTransferred",
      "type": "event"
    },
    {
      "constant": false,
      "inputs": [],
      "name": "purchase",
      "outputs": [],
      "payable": true,
      "stateMutability": "payable",
      "type": "function"
    },
    {
      "constant": true,
      "inputs": [],
      "name": "getAvailableTokens",
      "outputs": [
        {
          "name": "",
          "type": "uint256"
        }
      ],
      "payable": false,
      "stateMutability": "view",
      "type": "function"
    },
    {
      "constant": false,
      "inputs": [
        {
          "name": "_minEther",
          "type": "uint256"
        }
      ],
      "name": "setMinEther",
      "outputs": [],
      "payable": false,
      "stateMutability": "nonpayable",
      "type": "function"
    },
    {
      "constant": false,
      "inputs": [
        {
          "name": "_price",
          "type": "uint256"
        }
      ],
      "name": "setPrice",
      "outputs": [],
      "payable": false,
      "stateMutability": "nonpayable",
      "type": "function"
    },
    {
      "constant": true,
      "inputs": [],
      "name": "getPrice",
      "outputs": [
        {
          "name": "",
          "type": "uint256"
        }
      ],
      "payable": false,
      "stateMutability": "view",
      "type": "function"
    },
    {
      "constant": false,
      "inputs": [],
      "name": "kill",
      "outputs": [],
      "payable": false,
      "stateMutability": "nonpayable",
      "type": "function"
    }
  ],
  "bytecode": "0x6060604052341561000f57600080fd5b6040516060806110f283398101604052808051906020019091908051906020019091908051906020019091905050336000806101000a81548173ffffffffffffffffffffffffffffffffffffffff021916908373ffffffffffffffffffffffffffffffffffffffff16021790555082600160006101000a81548173ffffffffffffffffffffffffffffffffffffffff021916908373ffffffffffffffffffffffffffffffffffffffff1602179055508160028190555080600381905550505050611014806100de6000396000f3006060604052600436106100af576000357c0100000000000000000000000000000000000000000000000000000000900463ffffffff168063051af15d146100b457806341c0e1b5146100dd57806364edfbf0146100f25780637aef1d4d146100fc5780638da5cb5b1461011f5780638fe8a1011461017457806391b7f5ed146101a157806398d5fdca146101c4578063e35568cb146101ed578063f2fde38b14610216578063fc0c546a1461024f575b600080fd5b34156100bf57600080fd5b6100c76102a4565b6040518082815260200191505060405180910390f35b34156100e857600080fd5b6100f06102aa565b005b6100fa61052c565b005b341561010757600080fd5b61011d60048080359060200190919050506106aa565b005b341561012a57600080fd5b61013261072b565b604051808273ffffffffffffffffffffffffffffffffffffffff1673ffffffffffffffffffffffffffffffffffffffff16815260200191505060405180910390f35b341561017f57600080fd5b610187610750565b604051808215151515815260200191505060405180910390f35b34156101ac57600080fd5b6101c26004808035906020019091905050610766565b005b34156101cf57600080fd5b6101d76107e7565b6040518082815260200191505060405180910390f35b34156101f857600080fd5b61020061080c565b6040518082815260200191505060405180910390f35b341561022157600080fd5b61024d600480803573ffffffffffffffffffffffffffffffffffffffff16906020019091905050610963565b005b341561025a57600080fd5b610262610ab8565b604051808273ffffffffffffffffffffffffffffffffffffffff1673ffffffffffffffffffffffffffffffffffffffff16815260200191505060405180910390f35b60035481565b6000809054906101000a900473ffffffffffffffffffffffffffffffffffffffff1673ffffffffffffffffffffffffffffffffffffffff163373ffffffffffffffffffffffffffffffffffffffff1614151561030557600080fd5b600160009054906101000a900473ffffffffffffffffffffffffffffffffffffffff1673ffffffffffffffffffffffffffffffffffffffff166323b872dd306000809054906101000a900473ffffffffffffffffffffffffffffffffffffffff16600160009054906101000a900473ffffffffffffffffffffffffffffffffffffffff1673ffffffffffffffffffffffffffffffffffffffff166370a08231306000604051602001526040518263ffffffff167c0100000000000000000000000000000000000000000000000000000000028152600401808273ffffffffffffffffffffffffffffffffffffffff1673ffffffffffffffffffffffffffffffffffffffff168152602001915050602060405180830381600087803b151561042b57600080fd5b6102c65a03f1151561043c57600080fd5b505050604051805190506000604051602001526040518463ffffffff167c0100000000000000000000000000000000000000000000000000000000028152600401808473ffffffffffffffffffffffffffffffffffffffff1673ffffffffffffffffffffffffffffffffffffffff1681526020018373ffffffffffffffffffffffffffffffffffffffff1673ffffffffffffffffffffffffffffffffffffffff1681526020018281526020019350505050602060405180830381600087803b151561050657600080fd5b6102c65a03f1151561051757600080fd5b505050604051805190505061052a610ade565b565b600080600060149054906101000a900460ff1615151561054b57600080fd5b34915061055782610bea565b905061056161080c565b811115151561056f57600080fd5b600160009054906101000a900473ffffffffffffffffffffffffffffffffffffffff1673ffffffffffffffffffffffffffffffffffffffff166370a082316000809054906101000a900473ffffffffffffffffffffffffffffffffffffffff166000604051602001526040518263ffffffff167c0100000000000000000000000000000000000000000000000000000000028152600401808273ffffffffffffffffffffffffffffffffffffffff1673ffffffffffffffffffffffffffffffffffffffff168152602001915050602060405180830381600087803b151561065557600080fd5b6102c65a03f1151561066657600080fd5b50505060405180519050811115151561067e57600080fd5b6003548210158061069157506000600354145b151561069c57600080fd5b6106a68282610c32565b5050565b6000809054906101000a900473ffffffffffffffffffffffffffffffffffffffff1673ffffffffffffffffffffffffffffffffffffffff163373ffffffffffffffffffffffffffffffffffffffff1614151561070557600080fd5b600060149054906101000a900460ff1615151561072157600080fd5b8060038190555050565b6000809054906101000a900473ffffffffffffffffffffffffffffffffffffffff1681565b60008060149054906101000a900460ff16905090565b6000809054906101000a900473ffffffffffffffffffffffffffffffffffffffff1673ffffffffffffffffffffffffffffffffffffffff163373ffffffffffffffffffffffffffffffffffffffff161415156107c157600080fd5b600060149054906101000a900460ff161515156107dd57600080fd5b8060028190555050565b60008060149054906101000a900460ff1615151561080457600080fd5b600254905090565b60008060149054906101000a900460ff1615151561082957600080fd5b600160009054906101000a900473ffffffffffffffffffffffffffffffffffffffff1673ffffffffffffffffffffffffffffffffffffffff1663dd62ed3e6000809054906101000a900473ffffffffffffffffffffffffffffffffffffffff16306000604051602001526040518363ffffffff167c0100000000000000000000000000000000000000000000000000000000028152600401808373ffffffffffffffffffffffffffffffffffffffff1673ffffffffffffffffffffffffffffffffffffffff1681526020018273ffffffffffffffffffffffffffffffffffffffff1673ffffffffffffffffffffffffffffffffffffffff16815260200192505050602060405180830381600087803b151561094357600080fd5b6102c65a03f1151561095457600080fd5b50505060405180519050905090565b6000809054906101000a900473ffffffffffffffffffffffffffffffffffffffff1673ffffffffffffffffffffffffffffffffffffffff163373ffffffffffffffffffffffffffffffffffffffff161415156109be57600080fd5b600073ffffffffffffffffffffffffffffffffffffffff168173ffffffffffffffffffffffffffffffffffffffff16141515156109fa57600080fd5b8073ffffffffffffffffffffffffffffffffffffffff166000809054906101000a900473ffffffffffffffffffffffffffffffffffffffff1673ffffffffffffffffffffffffffffffffffffffff167f8be0079c531659141344cd1fd0a4f28419497f9722a3daafe3b4186f6b6457e060405160405180910390a3806000806101000a81548173ffffffffffffffffffffffffffffffffffffffff021916908373ffffffffffffffffffffffffffffffffffffffff16021790555050565b600160009054906101000a900473ffffffffffffffffffffffffffffffffffffffff1681565b6000809054906101000a900473ffffffffffffffffffffffffffffffffffffffff1673ffffffffffffffffffffffffffffffffffffffff163373ffffffffffffffffffffffffffffffffffffffff16141515610b3957600080fd5b600060149054906101000a900460ff16151515610b5557600080fd5b6001600060146101000a81548160ff0219169083151502179055506000809054906101000a900473ffffffffffffffffffffffffffffffffffffffff1673ffffffffffffffffffffffffffffffffffffffff166108fc3073ffffffffffffffffffffffffffffffffffffffff16319081150290604051600060405180830381858888f193505050501515610be857600080fd5b565b60008060149054906101000a900460ff16151515610c0757600080fd5b610c1c610c126107e7565b633b9aca00610c64565b610c2a83633b9aca00610c64565b029050919050565b600060149054906101000a900460ff16151515610c4e57600080fd5b610c5782610c8b565b610c6081610dcb565b5050565b600080600083111515610c7357fe5b8284811515610c7e57fe5b0490508091505092915050565b600060149054906101000a900460ff16151515610ca757600080fd5b6000809054906101000a900473ffffffffffffffffffffffffffffffffffffffff1673ffffffffffffffffffffffffffffffffffffffff166108fc829081150290604051600060405180830381858888f193505050501515610d0857600080fd5b7f01a6dd555a0168dd57f865ff16599bedf1cbe954ed60757e28cf137f079c70a86000809054906101000a900473ffffffffffffffffffffffffffffffffffffffff163383604051808473ffffffffffffffffffffffffffffffffffffffff1673ffffffffffffffffffffffffffffffffffffffff1681526020018373ffffffffffffffffffffffffffffffffffffffff1673ffffffffffffffffffffffffffffffffffffffff168152602001828152602001935050505060405180910390a150565b600060149054906101000a900460ff16151515610de757600080fd5b600160009054906101000a900473ffffffffffffffffffffffffffffffffffffffff1673ffffffffffffffffffffffffffffffffffffffff166323b872dd6000809054906101000a900473ffffffffffffffffffffffffffffffffffffffff1633846000604051602001526040518463ffffffff167c0100000000000000000000000000000000000000000000000000000000028152600401808473ffffffffffffffffffffffffffffffffffffffff1673ffffffffffffffffffffffffffffffffffffffff1681526020018373ffffffffffffffffffffffffffffffffffffffff1673ffffffffffffffffffffffffffffffffffffffff1681526020018281526020019350505050602060405180830381600087803b1515610f0957600080fd5b6102c65a03f11515610f1a57600080fd5b50505060405180519050507fe607861baff3d292b19188affe88c1a72bdcb69d3015f18bb2cd0bf5349cc3e16000809054906101000a900473ffffffffffffffffffffffffffffffffffffffff163383604051808473ffffffffffffffffffffffffffffffffffffffff1673ffffffffffffffffffffffffffffffffffffffff1681526020018373ffffffffffffffffffffffffffffffffffffffff1673ffffffffffffffffffffffffffffffffffffffff168152602001828152602001935050505060405180910390a1505600a165627a7a72305820da45ed50139860bec13134845057e141f2e733322b0e4daf3d9450ef04b2f2500029",
  "source": "pragma solidity ^0.4.19;\n\nimport \"./ERC20.sol\";\nimport \"./XYKillable.sol\";\nimport \"./lib/SafeMath.sol\";\n\n\ncontract XYTokenSale is XYKillable {\n  using SafeMath\n  for * ;\n\n  ERC20 public token; //address of the ERC20 token\n  uint private price; //price of tokens (how many tokens per ETH)\n  uint public minEther; //minimum amount of Ether required for a purchase (0 for no minimum) 18 places\n\n  event EtherAccepted(address seller, address buyer, uint amount);\n  event TokensSent(address seller, address buyer, uint amount);\n\n  function XYTokenSale(address _token, uint _price, uint _minEther) public {\n    token = ERC20(_token);\n    price = _price;\n    minEther = _minEther;\n  }\n\n  function purchase() public notKilled payable {\n    uint ethAmount = msg.value;\n    uint tokenAmount = _tokensFromEther(ethAmount);\n\n    require(tokenAmount <= getAvailableTokens());\n    require(tokenAmount <= token.balanceOf(owner));\n    require(ethAmount >= minEther || minEther == 0);\n\n    _purchase(ethAmount, tokenAmount);\n  }\n\n  function getAvailableTokens() public view notKilled returns(uint) {\n    return token.allowance(owner, this);\n  }\n\n  function setMinEther(uint _minEther) public onlyOwner notKilled {\n    minEther = _minEther;\n  }\n\n  function setPrice(uint _price) public onlyOwner notKilled {\n    price = _price;\n  }\n\n  function getPrice() public view notKilled returns(uint) {\n    return price;\n  }\n\n  function kill() public onlyOwner {\n    token.transferFrom(this, owner, token.balanceOf(this));\n    super.kill();\n  }\n\n  function _tokensFromEther(uint _ethAmount) internal notKilled view returns(uint){\n    return SafeMath.div(_ethAmount, 1000000000) * SafeMath.div(getPrice(), 1000000000);\n  }\n\n  function _purchase(uint _ethAmount, uint _tokenAmount) internal notKilled {\n    _acceptEther(_ethAmount);\n    _sendTokens(_tokenAmount);\n  }\n\n  function _acceptEther(uint _amount) internal notKilled {\n    owner.transfer(_amount);\n    EtherAccepted(owner, msg.sender, _amount);\n  }\n\n  function _sendTokens(uint _amount) internal notKilled {\n    token.transferFrom(owner, msg.sender, _amount);\n    TokensSent(owner, msg.sender, _amount);\n  }\n\n}\n",
  "sourcePath": "/Users/arietrouw/xyoraclenetwork/xyo-solidity/src/contracts/TokenSale/XYTokenSale.sol",
  "compiler": {
    "name": "solc",
    "version": "0.4.19+commit.c4cbbb05.Emscripten.clang"
  },
  "schemaVersion": "2.0.0",
  "updatedAt": "2018-03-17T21:53:36.030Z"
}