{
  "contractName": "XYTokenSale",
  "abi": [
    {
      "constant": true,
      "inputs": [],
      "name": "minEther",
      "outputs": [
        {
          "name": "",
          "type": "uint256"
        }
      ],
      "payable": false,
      "stateMutability": "view",
      "type": "function"
    },
    {
      "constant": true,
      "inputs": [],
      "name": "killed",
      "outputs": [
        {
          "name": "",
          "type": "bool"
        }
      ],
      "payable": false,
      "stateMutability": "view",
      "type": "function"
    },
    {
      "constant": true,
      "inputs": [],
      "name": "owner",
      "outputs": [
        {
          "name": "",
          "type": "address"
        }
      ],
      "payable": false,
      "stateMutability": "view",
      "type": "function"
    },
    {
      "constant": false,
      "inputs": [
        {
          "name": "newOwner",
          "type": "address"
        }
      ],
      "name": "transferOwnership",
      "outputs": [],
      "payable": false,
      "stateMutability": "nonpayable",
      "type": "function"
    },
    {
      "constant": true,
      "inputs": [],
      "name": "token",
      "outputs": [
        {
          "name": "",
          "type": "address"
        }
      ],
      "payable": false,
      "stateMutability": "view",
      "type": "function"
    },
    {
      "inputs": [
        {
          "name": "_token",
          "type": "address"
        },
        {
          "name": "_price",
          "type": "uint256"
        },
        {
          "name": "_minEther",
          "type": "uint256"
        }
      ],
      "payable": false,
      "stateMutability": "nonpayable",
      "type": "constructor"
    },
    {
      "payable": true,
      "stateMutability": "payable",
      "type": "fallback"
    },
    {
      "anonymous": false,
      "inputs": [
        {
          "indexed": false,
          "name": "seller",
          "type": "address"
        },
        {
          "indexed": false,
          "name": "buyer",
          "type": "address"
        },
        {
          "indexed": false,
          "name": "amount",
          "type": "uint256"
        }
      ],
      "name": "EtherAccepted",
      "type": "event"
    },
    {
      "anonymous": false,
      "inputs": [
        {
          "indexed": false,
          "name": "seller",
          "type": "address"
        },
        {
          "indexed": false,
          "name": "buyer",
          "type": "address"
        },
        {
          "indexed": false,
          "name": "amount",
          "type": "uint256"
        }
      ],
      "name": "TokensSent",
      "type": "event"
    },
    {
      "anonymous": false,
      "inputs": [
        {
          "indexed": true,
          "name": "previousOwner",
          "type": "address"
        },
        {
          "indexed": true,
          "name": "newOwner",
          "type": "address"
        }
      ],
      "name": "OwnershipTransferred",
      "type": "event"
    },
    {
      "constant": false,
      "inputs": [],
      "name": "purchase",
      "outputs": [],
      "payable": true,
      "stateMutability": "payable",
      "type": "function"
    },
    {
      "constant": true,
      "inputs": [],
      "name": "getAvailableTokens",
      "outputs": [
        {
          "name": "",
          "type": "uint256"
        }
      ],
      "payable": false,
      "stateMutability": "view",
      "type": "function"
    },
    {
      "constant": false,
      "inputs": [
        {
          "name": "_minEther",
          "type": "uint256"
        }
      ],
      "name": "setMinEther",
      "outputs": [],
      "payable": false,
      "stateMutability": "nonpayable",
      "type": "function"
    },
    {
      "constant": false,
      "inputs": [
        {
          "name": "_price",
          "type": "uint256"
        }
      ],
      "name": "setPrice",
      "outputs": [],
      "payable": false,
      "stateMutability": "nonpayable",
      "type": "function"
    },
    {
      "constant": true,
      "inputs": [],
      "name": "getPrice",
      "outputs": [
        {
          "name": "",
          "type": "uint256"
        }
      ],
      "payable": false,
      "stateMutability": "view",
      "type": "function"
    },
    {
      "constant": false,
      "inputs": [],
      "name": "kill",
      "outputs": [],
      "payable": false,
      "stateMutability": "nonpayable",
      "type": "function"
    }
  ],
  "bytecode": "0x6060604052341561000f57600080fd5b60405160608061111083398101604052808051906020019091908051906020019091908051906020019091905050336000806101000a81548173ffffffffffffffffffffffffffffffffffffffff021916908373ffffffffffffffffffffffffffffffffffffffff16021790555082600160006101000a81548173ffffffffffffffffffffffffffffffffffffffff021916908373ffffffffffffffffffffffffffffffffffffffff1602179055508160028190555080600381905550505050611032806100de6000396000f3006060604052600436106100af576000357c0100000000000000000000000000000000000000000000000000000000900463ffffffff168063051af15d146100d55780631f3a0e41146100fe57806341c0e1b51461012b57806364edfbf0146101405780637aef1d4d1461014a5780638da5cb5b1461016d57806391b7f5ed146101c257806398d5fdca146101e5578063e35568cb1461020e578063f2fde38b14610237578063fc0c546a14610270575b600060149054906101000a900460ff161515156100cb57600080fd5b6100d36102c5565b005b34156100e057600080fd5b6100e8610443565b6040518082815260200191505060405180910390f35b341561010957600080fd5b610111610449565b604051808215151515815260200191505060405180910390f35b341561013657600080fd5b61013e61045c565b005b6101486102c5565b005b341561015557600080fd5b61016b60048080359060200190919050506106de565b005b341561017857600080fd5b61018061075f565b604051808273ffffffffffffffffffffffffffffffffffffffff1673ffffffffffffffffffffffffffffffffffffffff16815260200191505060405180910390f35b34156101cd57600080fd5b6101e36004808035906020019091905050610784565b005b34156101f057600080fd5b6101f8610805565b6040518082815260200191505060405180910390f35b341561021957600080fd5b61022161082a565b6040518082815260200191505060405180910390f35b341561024257600080fd5b61026e600480803573ffffffffffffffffffffffffffffffffffffffff16906020019091905050610981565b005b341561027b57600080fd5b610283610ad6565b604051808273ffffffffffffffffffffffffffffffffffffffff1673ffffffffffffffffffffffffffffffffffffffff16815260200191505060405180910390f35b600080600060149054906101000a900460ff161515156102e457600080fd5b3491506102f082610afc565b90506102fa61082a565b811115151561030857600080fd5b600160009054906101000a900473ffffffffffffffffffffffffffffffffffffffff1673ffffffffffffffffffffffffffffffffffffffff166370a082316000809054906101000a900473ffffffffffffffffffffffffffffffffffffffff166000604051602001526040518263ffffffff167c0100000000000000000000000000000000000000000000000000000000028152600401808273ffffffffffffffffffffffffffffffffffffffff1673ffffffffffffffffffffffffffffffffffffffff168152602001915050602060405180830381600087803b15156103ee57600080fd5b6102c65a03f115156103ff57600080fd5b50505060405180519050811115151561041757600080fd5b6003548210158061042a57506000600354145b151561043557600080fd5b61043f8282610b44565b5050565b60035481565b600060149054906101000a900460ff1681565b6000809054906101000a900473ffffffffffffffffffffffffffffffffffffffff1673ffffffffffffffffffffffffffffffffffffffff163373ffffffffffffffffffffffffffffffffffffffff161415156104b757600080fd5b600160009054906101000a900473ffffffffffffffffffffffffffffffffffffffff1673ffffffffffffffffffffffffffffffffffffffff166323b872dd306000809054906101000a900473ffffffffffffffffffffffffffffffffffffffff16600160009054906101000a900473ffffffffffffffffffffffffffffffffffffffff1673ffffffffffffffffffffffffffffffffffffffff166370a08231306000604051602001526040518263ffffffff167c0100000000000000000000000000000000000000000000000000000000028152600401808273ffffffffffffffffffffffffffffffffffffffff1673ffffffffffffffffffffffffffffffffffffffff168152602001915050602060405180830381600087803b15156105dd57600080fd5b6102c65a03f115156105ee57600080fd5b505050604051805190506000604051602001526040518463ffffffff167c0100000000000000000000000000000000000000000000000000000000028152600401808473ffffffffffffffffffffffffffffffffffffffff1673ffffffffffffffffffffffffffffffffffffffff1681526020018373ffffffffffffffffffffffffffffffffffffffff1673ffffffffffffffffffffffffffffffffffffffff1681526020018281526020019350505050602060405180830381600087803b15156106b857600080fd5b6102c65a03f115156106c957600080fd5b50505060405180519050506106dc610b76565b565b6000809054906101000a900473ffffffffffffffffffffffffffffffffffffffff1673ffffffffffffffffffffffffffffffffffffffff163373ffffffffffffffffffffffffffffffffffffffff1614151561073957600080fd5b600060149054906101000a900460ff1615151561075557600080fd5b8060038190555050565b6000809054906101000a900473ffffffffffffffffffffffffffffffffffffffff1681565b6000809054906101000a900473ffffffffffffffffffffffffffffffffffffffff1673ffffffffffffffffffffffffffffffffffffffff163373ffffffffffffffffffffffffffffffffffffffff161415156107df57600080fd5b600060149054906101000a900460ff161515156107fb57600080fd5b8060028190555050565b60008060149054906101000a900460ff1615151561082257600080fd5b600254905090565b60008060149054906101000a900460ff1615151561084757600080fd5b600160009054906101000a900473ffffffffffffffffffffffffffffffffffffffff1673ffffffffffffffffffffffffffffffffffffffff1663dd62ed3e6000809054906101000a900473ffffffffffffffffffffffffffffffffffffffff16306000604051602001526040518363ffffffff167c0100000000000000000000000000000000000000000000000000000000028152600401808373ffffffffffffffffffffffffffffffffffffffff1673ffffffffffffffffffffffffffffffffffffffff1681526020018273ffffffffffffffffffffffffffffffffffffffff1673ffffffffffffffffffffffffffffffffffffffff16815260200192505050602060405180830381600087803b151561096157600080fd5b6102c65a03f1151561097257600080fd5b50505060405180519050905090565b6000809054906101000a900473ffffffffffffffffffffffffffffffffffffffff1673ffffffffffffffffffffffffffffffffffffffff163373ffffffffffffffffffffffffffffffffffffffff161415156109dc57600080fd5b600073ffffffffffffffffffffffffffffffffffffffff168173ffffffffffffffffffffffffffffffffffffffff1614151515610a1857600080fd5b8073ffffffffffffffffffffffffffffffffffffffff166000809054906101000a900473ffffffffffffffffffffffffffffffffffffffff1673ffffffffffffffffffffffffffffffffffffffff167f8be0079c531659141344cd1fd0a4f28419497f9722a3daafe3b4186f6b6457e060405160405180910390a3806000806101000a81548173ffffffffffffffffffffffffffffffffffffffff021916908373ffffffffffffffffffffffffffffffffffffffff16021790555050565b600160009054906101000a900473ffffffffffffffffffffffffffffffffffffffff1681565b60008060149054906101000a900460ff16151515610b1957600080fd5b610b2e610b24610805565b633b9aca00610c82565b610b3c83633b9aca00610c82565b029050919050565b600060149054906101000a900460ff16151515610b6057600080fd5b610b6982610ca9565b610b7281610de9565b5050565b6000809054906101000a900473ffffffffffffffffffffffffffffffffffffffff1673ffffffffffffffffffffffffffffffffffffffff163373ffffffffffffffffffffffffffffffffffffffff16141515610bd157600080fd5b600060149054906101000a900460ff16151515610bed57600080fd5b6001600060146101000a81548160ff0219169083151502179055506000809054906101000a900473ffffffffffffffffffffffffffffffffffffffff1673ffffffffffffffffffffffffffffffffffffffff166108fc3073ffffffffffffffffffffffffffffffffffffffff16319081150290604051600060405180830381858888f193505050501515610c8057600080fd5b565b600080600083111515610c9157fe5b8284811515610c9c57fe5b0490508091505092915050565b600060149054906101000a900460ff16151515610cc557600080fd5b6000809054906101000a900473ffffffffffffffffffffffffffffffffffffffff1673ffffffffffffffffffffffffffffffffffffffff166108fc829081150290604051600060405180830381858888f193505050501515610d2657600080fd5b7f01a6dd555a0168dd57f865ff16599bedf1cbe954ed60757e28cf137f079c70a86000809054906101000a900473ffffffffffffffffffffffffffffffffffffffff163383604051808473ffffffffffffffffffffffffffffffffffffffff1673ffffffffffffffffffffffffffffffffffffffff1681526020018373ffffffffffffffffffffffffffffffffffffffff1673ffffffffffffffffffffffffffffffffffffffff168152602001828152602001935050505060405180910390a150565b600060149054906101000a900460ff16151515610e0557600080fd5b600160009054906101000a900473ffffffffffffffffffffffffffffffffffffffff1673ffffffffffffffffffffffffffffffffffffffff166323b872dd6000809054906101000a900473ffffffffffffffffffffffffffffffffffffffff1633846000604051602001526040518463ffffffff167c0100000000000000000000000000000000000000000000000000000000028152600401808473ffffffffffffffffffffffffffffffffffffffff1673ffffffffffffffffffffffffffffffffffffffff1681526020018373ffffffffffffffffffffffffffffffffffffffff1673ffffffffffffffffffffffffffffffffffffffff1681526020018281526020019350505050602060405180830381600087803b1515610f2757600080fd5b6102c65a03f11515610f3857600080fd5b50505060405180519050507fe607861baff3d292b19188affe88c1a72bdcb69d3015f18bb2cd0bf5349cc3e16000809054906101000a900473ffffffffffffffffffffffffffffffffffffffff163383604051808473ffffffffffffffffffffffffffffffffffffffff1673ffffffffffffffffffffffffffffffffffffffff1681526020018373ffffffffffffffffffffffffffffffffffffffff1673ffffffffffffffffffffffffffffffffffffffff168152602001828152602001935050505060405180910390a1505600a165627a7a723058206bdd38f55d2a840ebed482cb6a3d657559ff482001dbe8ca072b4ac5a8394c5f0029",
  "source": "pragma solidity ^0.4.19;\n\nimport \"./ERC20.sol\";\nimport \"./XYKillable.sol\";\nimport \"./lib/SafeMath.sol\";\n\n\ncontract XYTokenSale is XYKillable {\n  using SafeMath\n  for * ;\n\n  ERC20 public token; //address of the ERC20 token\n  uint private price; //price of tokens (how many tokens per ETH)\n  uint public minEther; //minimum amount of Ether required for a purchase (0 for no minimum) 18 places\n\n  event EtherAccepted(address seller, address buyer, uint amount);\n  event TokensSent(address seller, address buyer, uint amount);\n\n  function XYTokenSale(address _token, uint _price, uint _minEther) public {\n    token = ERC20(_token);\n    price = _price;\n    minEther = _minEther;\n  }\n\n  function () public onlyNotKilled payable {\n    purchase();\n  }\n\n  function purchase() public onlyNotKilled payable {\n    uint ethAmount = msg.value;\n    uint tokenAmount = _tokensFromEther(ethAmount);\n\n    require(tokenAmount <= getAvailableTokens());\n    require(tokenAmount <= token.balanceOf(owner));\n    require(ethAmount >= minEther || minEther == 0);\n\n    _purchase(ethAmount, tokenAmount);\n  }\n\n  function getAvailableTokens() public view onlyNotKilled returns(uint) {\n    return token.allowance(owner, this);\n  }\n\n  function setMinEther(uint _minEther) public onlyOwner onlyNotKilled {\n    minEther = _minEther;\n  }\n\n  function setPrice(uint _price) public onlyOwner onlyNotKilled {\n    price = _price;\n  }\n\n  function getPrice() public view onlyNotKilled returns(uint) {\n    return price;\n  }\n\n  function kill() public onlyOwner {\n    token.transferFrom(this, owner, token.balanceOf(this));\n    super.kill();\n  }\n\n  function _tokensFromEther(uint _ethAmount) internal onlyNotKilled view returns(uint){\n    return SafeMath.div(_ethAmount, 1000000000) * SafeMath.div(getPrice(), 1000000000);\n  }\n\n  function _purchase(uint _ethAmount, uint _tokenAmount) internal onlyNotKilled {\n    _acceptEther(_ethAmount);\n    _sendTokens(_tokenAmount);\n  }\n\n  function _acceptEther(uint _amount) internal onlyNotKilled {\n    owner.transfer(_amount);\n    EtherAccepted(owner, msg.sender, _amount);\n  }\n\n  function _sendTokens(uint _amount) internal onlyNotKilled {\n    token.transferFrom(owner, msg.sender, _amount);\n    TokensSent(owner, msg.sender, _amount);\n  }\n\n}\n",
  "sourcePath": "/Users/arietrouw/xyoraclenetwork/xyo-solidity/contracts/XYTokenSale.sol",
  "compiler": {
    "name": "solc",
    "version": "0.4.19+commit.c4cbbb05.Emscripten.clang"
  },
  "schemaVersion": "2.0.0",
  "updatedAt": "2018-03-18T22:38:15.311Z"
}