{
  "contractName": "XY",
  "abi": [
    {
      "constant": true,
      "inputs": [
        {
          "name": "",
          "type": "address"
        }
      ],
      "name": "answeredQueries",
      "outputs": [
        {
          "name": "xyoAddress",
          "type": "address"
        },
        {
          "name": "latitude",
          "type": "int256"
        },
        {
          "name": "longitude",
          "type": "int256"
        },
        {
          "name": "altitude",
          "type": "int256"
        },
        {
          "name": "accuracy",
          "type": "uint256"
        },
        {
          "name": "certainty",
          "type": "uint256"
        },
        {
          "name": "epoch",
          "type": "uint256"
        }
      ],
      "payable": false,
      "stateMutability": "view",
      "type": "function"
    },
    {
      "constant": true,
      "inputs": [
        {
          "name": "",
          "type": "address"
        }
      ],
      "name": "pendingQueries",
      "outputs": [
        {
          "name": "xyoValue",
          "type": "uint256"
        },
        {
          "name": "xyoAddress",
          "type": "address"
        },
        {
          "name": "accuracyThreshold",
          "type": "uint256"
        },
        {
          "name": "certaintyThreshold",
          "type": "uint256"
        },
        {
          "name": "minimumDelay",
          "type": "uint256"
        },
        {
          "name": "epoch",
          "type": "uint256"
        },
        {
          "name": "xynotify",
          "type": "address"
        },
        {
          "name": "expireTime",
          "type": "uint256"
        }
      ],
      "payable": false,
      "stateMutability": "view",
      "type": "function"
    },
    {
      "constant": true,
      "inputs": [
        {
          "name": "",
          "type": "uint256"
        }
      ],
      "name": "answerList",
      "outputs": [
        {
          "name": "",
          "type": "address"
        }
      ],
      "payable": false,
      "stateMutability": "view",
      "type": "function"
    },
    {
      "anonymous": false,
      "inputs": [
        {
          "indexed": false,
          "name": "xyoValue",
          "type": "uint256"
        },
        {
          "indexed": false,
          "name": "xyoAddress",
          "type": "address"
        },
        {
          "indexed": false,
          "name": "accuracy",
          "type": "uint256"
        },
        {
          "indexed": false,
          "name": "certainty",
          "type": "uint256"
        },
        {
          "indexed": false,
          "name": "delay",
          "type": "uint256"
        },
        {
          "indexed": false,
          "name": "epoch",
          "type": "uint256"
        },
        {
          "indexed": false,
          "name": "expireTime",
          "type": "uint256"
        }
      ],
      "name": "QueryReceived",
      "type": "event"
    },
    {
      "anonymous": false,
      "inputs": [
        {
          "indexed": false,
          "name": "xyoAddress",
          "type": "address"
        },
        {
          "indexed": false,
          "name": "latitude",
          "type": "int256"
        },
        {
          "indexed": false,
          "name": "longitude",
          "type": "int256"
        },
        {
          "indexed": false,
          "name": "altitude",
          "type": "int256"
        },
        {
          "indexed": false,
          "name": "accuracy",
          "type": "uint256"
        },
        {
          "indexed": false,
          "name": "certainty",
          "type": "uint256"
        },
        {
          "indexed": false,
          "name": "epoch",
          "type": "uint256"
        }
      ],
      "name": "AnswerReceived",
      "type": "event"
    },
    {
      "constant": false,
      "inputs": [
        {
          "name": "_xyoValue",
          "type": "uint256"
        },
        {
          "name": "_xyoAddress",
          "type": "address"
        },
        {
          "name": "_accuracy",
          "type": "uint256"
        },
        {
          "name": "_certainty",
          "type": "uint256"
        },
        {
          "name": "_delay",
          "type": "uint256"
        },
        {
          "name": "_epoch",
          "type": "uint256"
        },
        {
          "name": "_xynotify",
          "type": "address"
        },
        {
          "name": "_expireTime",
          "type": "uint256"
        }
      ],
      "name": "publishQuery",
      "outputs": [
        {
          "name": "",
          "type": "bool"
        }
      ],
      "payable": false,
      "stateMutability": "nonpayable",
      "type": "function"
    },
    {
      "constant": false,
      "inputs": [
        {
          "name": "_xyoAddress",
          "type": "address"
        },
        {
          "name": "_latitude",
          "type": "int256"
        },
        {
          "name": "_longitude",
          "type": "int256"
        },
        {
          "name": "_altitude",
          "type": "int256"
        },
        {
          "name": "_accuracy",
          "type": "uint256"
        },
        {
          "name": "_certainty",
          "type": "uint256"
        },
        {
          "name": "_epoch",
          "type": "uint256"
        }
      ],
      "name": "publishAnswer",
      "outputs": [
        {
          "name": "",
          "type": "bool"
        }
      ],
      "payable": false,
      "stateMutability": "nonpayable",
      "type": "function"
    },
    {
      "constant": true,
      "inputs": [],
      "name": "hasPendingQuery",
      "outputs": [
        {
          "name": "",
          "type": "bool"
        }
      ],
      "payable": false,
      "stateMutability": "view",
      "type": "function"
    }
  ],
  "bytecode": "0x6060604052341561000f57600080fd5b610c988061001e6000396000f300606060405260043610610078576000357c0100000000000000000000000000000000000000000000000000000000900463ffffffff16806312b749321461007d5780632afe70fd146101045780635a10805e146101a75780637fc4077e1461024d578063c9930ee014610323578063e491650e14610386575b600080fd5b341561008857600080fd5b6100ea600480803573ffffffffffffffffffffffffffffffffffffffff169060200190919080359060200190919080359060200190919080359060200190919080359060200190919080359060200190919080359060200190919050506103b3565b604051808215151515815260200191505060405180910390f35b341561010f57600080fd5b61013b600480803573ffffffffffffffffffffffffffffffffffffffff16906020019091905050610824565b604051808873ffffffffffffffffffffffffffffffffffffffff1673ffffffffffffffffffffffffffffffffffffffff16815260200187815260200186815260200185815260200184815260200183815260200182815260200197505050505050505060405180910390f35b34156101b257600080fd5b610233600480803590602001909190803573ffffffffffffffffffffffffffffffffffffffff1690602001909190803590602001909190803590602001909190803590602001909190803590602001909190803573ffffffffffffffffffffffffffffffffffffffff16906020019091908035906020019091905050610886565b604051808215151515815260200191505060405180910390f35b341561025857600080fd5b610284600480803573ffffffffffffffffffffffffffffffffffffffff16906020019091905050610aab565b604051808981526020018873ffffffffffffffffffffffffffffffffffffffff1673ffffffffffffffffffffffffffffffffffffffff1681526020018781526020018681526020018581526020018481526020018373ffffffffffffffffffffffffffffffffffffffff1673ffffffffffffffffffffffffffffffffffffffff1681526020018281526020019850505050505050505060405180910390f35b341561032e57600080fd5b6103446004808035906020019091905050610b33565b604051808273ffffffffffffffffffffffffffffffffffffffff1673ffffffffffffffffffffffffffffffffffffffff16815260200191505060405180910390f35b341561039157600080fd5b610399610b72565b604051808215151515815260200191505060405180910390f35b60008060003373ffffffffffffffffffffffffffffffffffffffff1673ffffffffffffffffffffffffffffffffffffffff168152602001908152602001600020600701544211156104075760009050610819565b60e0604051908101604052808973ffffffffffffffffffffffffffffffffffffffff16815260200188815260200187815260200186815260200185815260200184815260200183815250600160008a73ffffffffffffffffffffffffffffffffffffffff1673ffffffffffffffffffffffffffffffffffffffff16815260200190815260200160002060008201518160000160006101000a81548173ffffffffffffffffffffffffffffffffffffffff021916908373ffffffffffffffffffffffffffffffffffffffff1602179055506020820151816001015560408201518160020155606082015181600301556080820151816004015560a0820151816005015560c082015181600601559050506002805480600101828161052a9190610c1b565b916000526020600020900160008a909190916101000a81548173ffffffffffffffffffffffffffffffffffffffff021916908373ffffffffffffffffffffffffffffffffffffffff1602179055505060008060003373ffffffffffffffffffffffffffffffffffffffff1673ffffffffffffffffffffffffffffffffffffffff1681526020019081526020016000206000018190555060008060003373ffffffffffffffffffffffffffffffffffffffff1673ffffffffffffffffffffffffffffffffffffffff16815260200190815260200160002060060160009054906101000a900473ffffffffffffffffffffffffffffffffffffffff1673ffffffffffffffffffffffffffffffffffffffff16141515610781576000803373ffffffffffffffffffffffffffffffffffffffff1673ffffffffffffffffffffffffffffffffffffffff16815260200190815260200160002060060160009054906101000a900473ffffffffffffffffffffffffffffffffffffffff1673ffffffffffffffffffffffffffffffffffffffff166371975d61898989898989896040518863ffffffff167c0100000000000000000000000000000000000000000000000000000000028152600401808873ffffffffffffffffffffffffffffffffffffffff1673ffffffffffffffffffffffffffffffffffffffff168152602001878152602001868152602001858152602001848152602001838152602001828152602001975050505050505050600060405180830381600087803b151561076c57600080fd5b6102c65a03f1151561077d57600080fd5b5050505b7fd9fc59387261346eaef71cb06e6c131973f262bd4f463dd327006a4d0a13fdf388888888888888604051808873ffffffffffffffffffffffffffffffffffffffff1673ffffffffffffffffffffffffffffffffffffffff16815260200187815260200186815260200185815260200184815260200183815260200182815260200197505050505050505060405180910390a1600190505b979650505050505050565b60016020528060005260406000206000915090508060000160009054906101000a900473ffffffffffffffffffffffffffffffffffffffff16908060010154908060020154908060030154908060040154908060050154908060060154905087565b6000808911151561089657600080fd5b610100604051908101604052808a81526020018973ffffffffffffffffffffffffffffffffffffffff1681526020018881526020018781526020018681526020018581526020018473ffffffffffffffffffffffffffffffffffffffff168152602001838152506000803373ffffffffffffffffffffffffffffffffffffffff1673ffffffffffffffffffffffffffffffffffffffff1681526020019081526020016000206000820151816000015560208201518160010160006101000a81548173ffffffffffffffffffffffffffffffffffffffff021916908373ffffffffffffffffffffffffffffffffffffffff16021790555060408201518160020155606082015181600301556080820151816004015560a0820151816005015560c08201518160060160006101000a81548173ffffffffffffffffffffffffffffffffffffffff021916908373ffffffffffffffffffffffffffffffffffffffff16021790555060e082015181600701559050507fb283e1891ac745ca25fa65cb07e7b1ddb72bc940c6c6848b63361310fc54a1da89898989898988604051808881526020018773ffffffffffffffffffffffffffffffffffffffff1673ffffffffffffffffffffffffffffffffffffffff16815260200186815260200185815260200184815260200183815260200182815260200197505050505050505060405180910390a16001905098975050505050505050565b60006020528060005260406000206000915090508060000154908060010160009054906101000a900473ffffffffffffffffffffffffffffffffffffffff16908060020154908060030154908060040154908060050154908060060160009054906101000a900473ffffffffffffffffffffffffffffffffffffffff16908060070154905088565b600281815481101515610b4257fe5b90600052602060002090016000915054906101000a900473ffffffffffffffffffffffffffffffffffffffff1681565b6000806000803373ffffffffffffffffffffffffffffffffffffffff1673ffffffffffffffffffffffffffffffffffffffff16815260200190815260200160002060000154118015610c0557506000803373ffffffffffffffffffffffffffffffffffffffff1673ffffffffffffffffffffffffffffffffffffffff168152602001908152602001600020600701544211155b15610c135760019050610c18565b600090505b90565b815481835581811511610c4257818360005260206000209182019101610c419190610c47565b5b505050565b610c6991905b80821115610c65576000816000905550600101610c4d565b5090565b905600a165627a7a72305820af9c8849f3797678139497f227e969766ed89c12afcdbfea3e63b25b22372fd00029",
  "source": "pragma solidity ^0.4.19;\n\nimport './SafeMath.sol';\n\n\ninterface XYNotify {\n    function answer(address xyoAddress, int latitude, int longitude, int altitude, uint accuracy, uint certainty, uint epoch) external;\n}\n\n\ncontract XY {\n    using SafeMath for *;\n\n    struct PendingQuery {\n        uint xyoValue;\n        address xyoAddress;\n        uint accuracyThreshold;\n        uint certaintyThreshold;\n        uint minimumDelay;\n        uint epoch;\n        address xynotify;\n        uint expireTime;\n    }\n\n    struct Answer {\n        address xyoAddress;\n        int latitude;\n        int longitude;\n        int altitude;\n        uint accuracy;\n        uint certainty;\n        uint epoch;\n    }\n\n    // Stores a mapping of pending queries\n    mapping (address => PendingQuery) public pendingQueries;\n\n    // Stores a mapping of xyoAddresses to answers\n    mapping (address => Answer) public answeredQueries;\n    address[] public answerList;\n\n    event QueryReceived(uint xyoValue, address xyoAddress, uint accuracy, uint certainty, uint delay, uint epoch, uint expireTime);\n    event AnswerReceived(address xyoAddress, int latitude, int longitude, int altitude, uint accuracy, uint certainty, uint epoch);\n\n    function publishQuery(uint _xyoValue, address _xyoAddress, uint _accuracy, uint _certainty, uint _delay, uint _epoch, address _xynotify, uint _expireTime) public returns(bool) {\n        require(_xyoValue > 0);\n        pendingQueries[msg.sender] = PendingQuery(_xyoValue, _xyoAddress, _accuracy, _certainty, _delay, _epoch, _xynotify, _expireTime);\n        QueryReceived(_xyoValue, _xyoAddress, _accuracy, _certainty, _delay, _epoch, _expireTime);\n        return true;\n    }\n\n    // this is how a diviner sets the answer.  Need to implement the origin proof\n    function publishAnswer(address _xyoAddress, int _latitude, int _longitude, int _altitude, uint _accuracy, uint _certainty, uint _epoch) public returns(bool) {\n        if (now > pendingQueries[msg.sender].expireTime) {\n            return false;\n        }\n        // TODO: Have to verify before returning\n        answeredQueries[_xyoAddress] = Answer(_xyoAddress, _latitude, _longitude, _altitude, _accuracy, _certainty, _epoch);\n        answerList.push(_xyoAddress);\n        pendingQueries[msg.sender].xyoValue = 0;\n        if (pendingQueries[msg.sender].xynotify != 0) {\n            XYNotify(pendingQueries[msg.sender].xynotify).answer(_xyoAddress, _latitude, _longitude, _altitude, _accuracy, _certainty, _epoch);\n        }\n        AnswerReceived(_xyoAddress, _latitude, _longitude, _altitude, _accuracy, _certainty, _epoch);\n        return true;\n    }\n\n    function hasPendingQuery() view public returns(bool) {\n       if(pendingQueries[msg.sender].xyoValue > 0 && now <= pendingQueries[msg.sender].expireTime) {\n           return true;\n       }\n       return false;\n    }\n\n}\n",
  "sourcePath": "/Users/arietrouw/xyoraclenetwork/xyo-solidity/contracts/XY.sol",
  "compiler": {
    "name": "solc",
    "version": "0.4.19+commit.c4cbbb05.Emscripten.clang"
  },
  "schemaVersion": "2.0.0",
  "updatedAt": "2018-03-19T01:33:45.213Z"
}