{
  "contractName": "XYFencedQuery",
  "abi": [
    {
      "constant": true,
      "inputs": [
        {
          "name": "",
          "type": "address"
        }
      ],
      "name": "answeredQueries",
      "outputs": [
        {
          "name": "xyoAddress",
          "type": "address"
        },
        {
          "name": "latitude",
          "type": "int256"
        },
        {
          "name": "longitude",
          "type": "int256"
        },
        {
          "name": "altitude",
          "type": "int256"
        },
        {
          "name": "accuracy",
          "type": "uint256"
        },
        {
          "name": "certainty",
          "type": "uint256"
        },
        {
          "name": "epoch",
          "type": "uint256"
        }
      ],
      "payable": false,
      "stateMutability": "view",
      "type": "function"
    },
    {
      "constant": true,
      "inputs": [
        {
          "name": "",
          "type": "address"
        }
      ],
      "name": "pendingQueries",
      "outputs": [
        {
          "name": "xyoValue",
          "type": "uint256"
        },
        {
          "name": "xyoAddress",
          "type": "address"
        },
        {
          "name": "accuracyThreshold",
          "type": "uint256"
        },
        {
          "name": "certaintyThresold",
          "type": "uint256"
        },
        {
          "name": "minimumDelay",
          "type": "uint256"
        },
        {
          "name": "epoch",
          "type": "uint256"
        },
        {
          "name": "xynotify",
          "type": "address"
        }
      ],
      "payable": false,
      "stateMutability": "view",
      "type": "function"
    },
    {
      "constant": true,
      "inputs": [
        {
          "name": "",
          "type": "uint256"
        }
      ],
      "name": "answerList",
      "outputs": [
        {
          "name": "",
          "type": "address"
        }
      ],
      "payable": false,
      "stateMutability": "view",
      "type": "function"
    },
    {
      "anonymous": false,
      "inputs": [
        {
          "indexed": false,
          "name": "xyoValue",
          "type": "uint256"
        },
        {
          "indexed": false,
          "name": "xyoAddress",
          "type": "address"
        },
        {
          "indexed": false,
          "name": "accuracy",
          "type": "uint256"
        },
        {
          "indexed": false,
          "name": "certainty",
          "type": "uint256"
        },
        {
          "indexed": false,
          "name": "delay",
          "type": "uint256"
        },
        {
          "indexed": false,
          "name": "epoch",
          "type": "uint256"
        }
      ],
      "name": "QueryReceived",
      "type": "event"
    },
    {
      "anonymous": false,
      "inputs": [
        {
          "indexed": false,
          "name": "xyoAddress",
          "type": "address"
        },
        {
          "indexed": false,
          "name": "latitude",
          "type": "int256"
        },
        {
          "indexed": false,
          "name": "longitude",
          "type": "int256"
        },
        {
          "indexed": false,
          "name": "altitude",
          "type": "int256"
        },
        {
          "indexed": false,
          "name": "accuracy",
          "type": "uint256"
        },
        {
          "indexed": false,
          "name": "certainty",
          "type": "uint256"
        },
        {
          "indexed": false,
          "name": "epoch",
          "type": "uint256"
        }
      ],
      "name": "AnswerReceived",
      "type": "event"
    },
    {
      "constant": false,
      "inputs": [
        {
          "name": "_xyoValue",
          "type": "uint256"
        },
        {
          "name": "_xyoAddress",
          "type": "address"
        },
        {
          "name": "_accuracy",
          "type": "uint256"
        },
        {
          "name": "_certainty",
          "type": "uint256"
        },
        {
          "name": "_delay",
          "type": "uint256"
        },
        {
          "name": "_epoch",
          "type": "uint256"
        },
        {
          "name": "_xynotify",
          "type": "address"
        }
      ],
      "name": "publishQuery",
      "outputs": [
        {
          "name": "",
          "type": "bool"
        }
      ],
      "payable": false,
      "stateMutability": "nonpayable",
      "type": "function"
    },
    {
      "constant": false,
      "inputs": [
        {
          "name": "_xyoAddress",
          "type": "address"
        },
        {
          "name": "_latitude",
          "type": "int256"
        },
        {
          "name": "_longitude",
          "type": "int256"
        },
        {
          "name": "_altitude",
          "type": "int256"
        },
        {
          "name": "_accuracy",
          "type": "uint256"
        },
        {
          "name": "_certainty",
          "type": "uint256"
        },
        {
          "name": "_epoch",
          "type": "uint256"
        }
      ],
      "name": "publishAnswer",
      "outputs": [
        {
          "name": "",
          "type": "bool"
        }
      ],
      "payable": false,
      "stateMutability": "nonpayable",
      "type": "function"
    },
    {
      "constant": true,
      "inputs": [],
      "name": "hasPendingQuery",
      "outputs": [
        {
          "name": "",
          "type": "bool"
        }
      ],
      "payable": false,
      "stateMutability": "view",
      "type": "function"
    }
  ],
  "bytecode": "0x6060604052341561000f57600080fd5b610bc88061001e6000396000f300606060405260043610610078576000357c0100000000000000000000000000000000000000000000000000000000900463ffffffff16806312b749321461007d5780632afe70fd146101045780634540b9a3146101a75780637fc4077e14610244578063c9930ee014610313578063e491650e14610376575b600080fd5b341561008857600080fd5b6100ea600480803573ffffffffffffffffffffffffffffffffffffffff169060200190919080359060200190919080359060200190919080359060200190919080359060200190919080359060200190919080359060200190919050506103a3565b604051808215151515815260200191505060405180910390f35b341561010f57600080fd5b61013b600480803573ffffffffffffffffffffffffffffffffffffffff169060200190919050506107c1565b604051808873ffffffffffffffffffffffffffffffffffffffff1673ffffffffffffffffffffffffffffffffffffffff16815260200187815260200186815260200185815260200184815260200183815260200182815260200197505050505050505060405180910390f35b34156101b257600080fd5b61022a600480803590602001909190803573ffffffffffffffffffffffffffffffffffffffff1690602001909190803590602001909190803590602001909190803590602001909190803590602001909190803573ffffffffffffffffffffffffffffffffffffffff16906020019091905050610823565b604051808215151515815260200191505060405180910390f35b341561024f57600080fd5b61027b600480803573ffffffffffffffffffffffffffffffffffffffff16906020019091905050610a2e565b604051808881526020018773ffffffffffffffffffffffffffffffffffffffff1673ffffffffffffffffffffffffffffffffffffffff1681526020018681526020018581526020018481526020018381526020018273ffffffffffffffffffffffffffffffffffffffff1673ffffffffffffffffffffffffffffffffffffffff16815260200197505050505050505060405180910390f35b341561031e57600080fd5b6103346004808035906020019091905050610ab0565b604051808273ffffffffffffffffffffffffffffffffffffffff1673ffffffffffffffffffffffffffffffffffffffff16815260200191505060405180910390f35b341561038157600080fd5b610389610aef565b604051808215151515815260200191505060405180910390f35b600060e0604051908101604052808973ffffffffffffffffffffffffffffffffffffffff16815260200188815260200187815260200186815260200185815260200184815260200183815250600160008a73ffffffffffffffffffffffffffffffffffffffff1673ffffffffffffffffffffffffffffffffffffffff16815260200190815260200160002060008201518160000160006101000a81548173ffffffffffffffffffffffffffffffffffffffff021916908373ffffffffffffffffffffffffffffffffffffffff1602179055506020820151816001015560408201518160020155606082015181600301556080820151816004015560a0820151816005015560c08201518160060155905050600280548060010182816104c89190610b4b565b916000526020600020900160008a909190916101000a81548173ffffffffffffffffffffffffffffffffffffffff021916908373ffffffffffffffffffffffffffffffffffffffff1602179055505060008060003373ffffffffffffffffffffffffffffffffffffffff1673ffffffffffffffffffffffffffffffffffffffff1681526020019081526020016000206000018190555060008060003373ffffffffffffffffffffffffffffffffffffffff1673ffffffffffffffffffffffffffffffffffffffff16815260200190815260200160002060060160009054906101000a900473ffffffffffffffffffffffffffffffffffffffff1673ffffffffffffffffffffffffffffffffffffffff1614151561071f576000803373ffffffffffffffffffffffffffffffffffffffff1673ffffffffffffffffffffffffffffffffffffffff16815260200190815260200160002060060160009054906101000a900473ffffffffffffffffffffffffffffffffffffffff1673ffffffffffffffffffffffffffffffffffffffff166371975d61898989898989896040518863ffffffff167c0100000000000000000000000000000000000000000000000000000000028152600401808873ffffffffffffffffffffffffffffffffffffffff1673ffffffffffffffffffffffffffffffffffffffff168152602001878152602001868152602001858152602001848152602001838152602001828152602001975050505050505050600060405180830381600087803b151561070a57600080fd5b6102c65a03f1151561071b57600080fd5b5050505b7fd9fc59387261346eaef71cb06e6c131973f262bd4f463dd327006a4d0a13fdf388888888888888604051808873ffffffffffffffffffffffffffffffffffffffff1673ffffffffffffffffffffffffffffffffffffffff16815260200187815260200186815260200185815260200184815260200183815260200182815260200197505050505050505060405180910390a160019050979650505050505050565b60016020528060005260406000206000915090508060000160009054906101000a900473ffffffffffffffffffffffffffffffffffffffff16908060010154908060020154908060030154908060040154908060050154908060060154905087565b6000808811151561083357600080fd5b60e0604051908101604052808981526020018873ffffffffffffffffffffffffffffffffffffffff1681526020018781526020018681526020018581526020018481526020018373ffffffffffffffffffffffffffffffffffffffff168152506000803373ffffffffffffffffffffffffffffffffffffffff1673ffffffffffffffffffffffffffffffffffffffff1681526020019081526020016000206000820151816000015560208201518160010160006101000a81548173ffffffffffffffffffffffffffffffffffffffff021916908373ffffffffffffffffffffffffffffffffffffffff16021790555060408201518160020155606082015181600301556080820151816004015560a0820151816005015560c08201518160060160006101000a81548173ffffffffffffffffffffffffffffffffffffffff021916908373ffffffffffffffffffffffffffffffffffffffff1602179055509050507f7504dfe211cd7e5a51d6cdcb9245552a436b075780a13f65320a855106648f64888888888888604051808781526020018673ffffffffffffffffffffffffffffffffffffffff1673ffffffffffffffffffffffffffffffffffffffff168152602001858152602001848152602001838152602001828152602001965050505050505060405180910390a160019050979650505050505050565b60006020528060005260406000206000915090508060000154908060010160009054906101000a900473ffffffffffffffffffffffffffffffffffffffff16908060020154908060030154908060040154908060050154908060060160009054906101000a900473ffffffffffffffffffffffffffffffffffffffff16905087565b600281815481101515610abf57fe5b90600052602060002090016000915054906101000a900473ffffffffffffffffffffffffffffffffffffffff1681565b6000806000803373ffffffffffffffffffffffffffffffffffffffff1673ffffffffffffffffffffffffffffffffffffffff168152602001908152602001600020600001541115610b435760019050610b48565b600090505b90565b815481835581811511610b7257818360005260206000209182019101610b719190610b77565b5b505050565b610b9991905b80821115610b95576000816000905550600101610b7d565b5090565b905600a165627a7a7230582003b24cbb9b6849bbede8b1f5a9111a71bf9990047fe40cc40406bed7a1bf5a490029",
  "source": "pragma solidity ^0.4.19;\n\nimport './SafeMath.sol';\n\n\ninterface XYNotify {\n    function answer(address xyoAddress, int latitude, int longitude, int altitude, uint accuracy, uint certainty, uint epoch) external;\n}\n\n\ncontract XYFencedQuery {\n    using SafeMath for *;\n\n    struct PendingQuery {\n        uint xyoValue;\n        address xyoAddress;\n        uint accuracyThreshold;\n        uint certaintyThresold;\n        uint minimumDelay;\n        uint epoch;\n        address xynotify;\n    }\n\n    struct Answer {\n        address xyoAddress;\n        int latitude;\n        int longitude;\n        int altitude;\n        uint accuracy;\n        uint certainty;\n        uint epoch;\n    }\n\n    // Stores a mapping of pending queries\n    mapping (address => PendingQuery) public pendingQueries;\n    // Stores a mapping of xyoAddresses to answers\n    mapping (address => Answer) public answeredQueries;\n    address[] public answerList;\n\n    event QueryReceived(uint xyoValue, address xyoAddress, uint accuracy, uint certainty, uint delay, uint epoch);\n    event AnswerReceived(address xyoAddress, int latitude, int longitude, int altitude, uint accuracy, uint certainty, uint epoch);\n\n    function publishQuery(uint _xyoValue, address _xyoAddress, uint _accuracy, uint _certainty, uint _delay, uint _epoch, address _xynotify) public returns(bool) {\n        require(_xyoValue > 0);\n        pendingQueries[msg.sender] = PendingQuery(_xyoValue, _xyoAddress, _accuracy, _certainty, _delay, _epoch, _xynotify);\n        QueryReceived(_xyoValue, _xyoAddress, _accuracy, _certainty, _delay, _epoch);\n        return true;\n    }\n\n    // this is how a diviner sets the answer.  Need to implement the origin proof\n    function publishAnswer(address _xyoAddress, int _latitude, int _longitude, int _altitude, uint _accuracy, uint _certainty, uint _epoch) public returns(bool) {\n        // TODO: Have to verify before returning\n        answeredQueries[_xyoAddress] = Answer(_xyoAddress, _latitude, _longitude, _altitude, _accuracy, _certainty, _epoch);\n        answerList.push(_xyoAddress);\n        pendingQueries[msg.sender].xyoValue = 0;\n        if (pendingQueries[msg.sender].xynotify != 0) {\n            XYNotify(pendingQueries[msg.sender].xynotify).answer(_xyoAddress, _latitude, _longitude, _altitude, _accuracy, _certainty, _epoch);\n        }\n        AnswerReceived(_xyoAddress, _latitude, _longitude, _altitude, _accuracy, _certainty, _epoch);\n        return true;\n    }\n\n    function hasPendingQuery() view public returns(bool) {\n       if(pendingQueries[msg.sender].xyoValue > 0) {\n           return true;\n       }\n       return false;\n    }\n\n}\n",
  "sourcePath": "/Users/arietrouw/xyoraclenetwork/xyo-solidity/contracts/XYFencedQuery.sol",
  "compiler": {
    "name": "solc",
    "version": "0.4.19+commit.c4cbbb05.Emscripten.clang"
  },
  "schemaVersion": "2.0.0",
  "updatedAt": "2018-03-19T01:33:45.223Z"
}