{
  "contractName": "XYOfficialTokenSale",
  "abi": [
    {
      "constant": true,
      "inputs": [],
      "name": "minEther",
      "outputs": [
        {
          "name": "",
          "type": "uint256"
        }
      ],
      "payable": false,
      "stateMutability": "view",
      "type": "function"
    },
    {
      "constant": true,
      "inputs": [
        {
          "name": "",
          "type": "address"
        }
      ],
      "name": "approvers",
      "outputs": [
        {
          "name": "",
          "type": "bool"
        }
      ],
      "payable": false,
      "stateMutability": "view",
      "type": "function"
    },
    {
      "constant": true,
      "inputs": [],
      "name": "killed",
      "outputs": [
        {
          "name": "",
          "type": "bool"
        }
      ],
      "payable": false,
      "stateMutability": "view",
      "type": "function"
    },
    {
      "constant": false,
      "inputs": [
        {
          "name": "_buyer",
          "type": "address"
        },
        {
          "name": "_proofOfEligibility",
          "type": "bytes1[]"
        }
      ],
      "name": "approve",
      "outputs": [],
      "payable": false,
      "stateMutability": "nonpayable",
      "type": "function"
    },
    {
      "constant": true,
      "inputs": [],
      "name": "endTime",
      "outputs": [
        {
          "name": "",
          "type": "uint256"
        }
      ],
      "payable": false,
      "stateMutability": "view",
      "type": "function"
    },
    {
      "constant": true,
      "inputs": [
        {
          "name": "",
          "type": "address"
        },
        {
          "name": "",
          "type": "uint256"
        }
      ],
      "name": "eligible",
      "outputs": [
        {
          "name": "",
          "type": "bytes1"
        }
      ],
      "payable": false,
      "stateMutability": "view",
      "type": "function"
    },
    {
      "constant": true,
      "inputs": [],
      "name": "beneficiary",
      "outputs": [
        {
          "name": "",
          "type": "address"
        }
      ],
      "payable": false,
      "stateMutability": "view",
      "type": "function"
    },
    {
      "constant": false,
      "inputs": [
        {
          "name": "_startTime",
          "type": "uint256"
        }
      ],
      "name": "setStartTime",
      "outputs": [],
      "payable": false,
      "stateMutability": "nonpayable",
      "type": "function"
    },
    {
      "constant": false,
      "inputs": [],
      "name": "kill",
      "outputs": [],
      "payable": false,
      "stateMutability": "nonpayable",
      "type": "function"
    },
    {
      "constant": true,
      "inputs": [
        {
          "name": "",
          "type": "address"
        }
      ],
      "name": "pending",
      "outputs": [
        {
          "name": "eth",
          "type": "uint256"
        },
        {
          "name": "tokens",
          "type": "uint256"
        }
      ],
      "payable": false,
      "stateMutability": "view",
      "type": "function"
    },
    {
      "constant": false,
      "inputs": [],
      "name": "purchase",
      "outputs": [],
      "payable": true,
      "stateMutability": "payable",
      "type": "function"
    },
    {
      "constant": true,
      "inputs": [],
      "name": "numberSold",
      "outputs": [
        {
          "name": "",
          "type": "uint256"
        }
      ],
      "payable": false,
      "stateMutability": "view",
      "type": "function"
    },
    {
      "constant": true,
      "inputs": [],
      "name": "startTime",
      "outputs": [
        {
          "name": "",
          "type": "uint256"
        }
      ],
      "payable": false,
      "stateMutability": "view",
      "type": "function"
    },
    {
      "constant": false,
      "inputs": [
        {
          "name": "_minEther",
          "type": "uint256"
        }
      ],
      "name": "setMinEther",
      "outputs": [],
      "payable": false,
      "stateMutability": "nonpayable",
      "type": "function"
    },
    {
      "constant": true,
      "inputs": [],
      "name": "totalVariableTokens",
      "outputs": [
        {
          "name": "",
          "type": "uint256"
        }
      ],
      "payable": false,
      "stateMutability": "view",
      "type": "function"
    },
    {
      "constant": true,
      "inputs": [],
      "name": "owner",
      "outputs": [
        {
          "name": "",
          "type": "address"
        }
      ],
      "payable": false,
      "stateMutability": "view",
      "type": "function"
    },
    {
      "constant": false,
      "inputs": [
        {
          "name": "_wallet",
          "type": "address"
        },
        {
          "name": "_proof",
          "type": "bytes1[]"
        }
      ],
      "name": "setEligiblity",
      "outputs": [],
      "payable": false,
      "stateMutability": "nonpayable",
      "type": "function"
    },
    {
      "constant": false,
      "inputs": [
        {
          "name": "_address",
          "type": "address"
        }
      ],
      "name": "blockAddress",
      "outputs": [],
      "payable": false,
      "stateMutability": "nonpayable",
      "type": "function"
    },
    {
      "constant": true,
      "inputs": [],
      "name": "endPrice",
      "outputs": [
        {
          "name": "",
          "type": "uint256"
        }
      ],
      "payable": false,
      "stateMutability": "view",
      "type": "function"
    },
    {
      "constant": true,
      "inputs": [],
      "name": "isLive",
      "outputs": [
        {
          "name": "",
          "type": "bool"
        }
      ],
      "payable": false,
      "stateMutability": "view",
      "type": "function"
    },
    {
      "constant": false,
      "inputs": [
        {
          "name": "_endTime",
          "type": "uint256"
        }
      ],
      "name": "setEndTime",
      "outputs": [],
      "payable": false,
      "stateMutability": "nonpayable",
      "type": "function"
    },
    {
      "constant": true,
      "inputs": [],
      "name": "totalFixedTokens",
      "outputs": [
        {
          "name": "",
          "type": "uint256"
        }
      ],
      "payable": false,
      "stateMutability": "view",
      "type": "function"
    },
    {
      "constant": false,
      "inputs": [
        {
          "name": "_approver",
          "type": "address"
        },
        {
          "name": "_enabled",
          "type": "bool"
        }
      ],
      "name": "setApprover",
      "outputs": [],
      "payable": false,
      "stateMutability": "nonpayable",
      "type": "function"
    },
    {
      "constant": false,
      "inputs": [
        {
          "name": "_buyer",
          "type": "address"
        }
      ],
      "name": "approve",
      "outputs": [],
      "payable": false,
      "stateMutability": "nonpayable",
      "type": "function"
    },
    {
      "constant": true,
      "inputs": [],
      "name": "getAvailableTokens",
      "outputs": [
        {
          "name": "",
          "type": "uint256"
        }
      ],
      "payable": false,
      "stateMutability": "view",
      "type": "function"
    },
    {
      "constant": true,
      "inputs": [
        {
          "name": "",
          "type": "address"
        }
      ],
      "name": "blocked",
      "outputs": [
        {
          "name": "",
          "type": "bool"
        }
      ],
      "payable": false,
      "stateMutability": "view",
      "type": "function"
    },
    {
      "constant": true,
      "inputs": [],
      "name": "startPrice",
      "outputs": [
        {
          "name": "",
          "type": "uint256"
        }
      ],
      "payable": false,
      "stateMutability": "view",
      "type": "function"
    },
    {
      "constant": false,
      "inputs": [
        {
          "name": "newOwner",
          "type": "address"
        }
      ],
      "name": "transferOwnership",
      "outputs": [],
      "payable": false,
      "stateMutability": "nonpayable",
      "type": "function"
    },
    {
      "constant": true,
      "inputs": [],
      "name": "token",
      "outputs": [
        {
          "name": "",
          "type": "address"
        }
      ],
      "payable": false,
      "stateMutability": "view",
      "type": "function"
    },
    {
      "inputs": [
        {
          "name": "_token",
          "type": "address"
        },
        {
          "name": "_beneficiary",
          "type": "address"
        },
        {
          "name": "_minEther",
          "type": "uint256"
        },
        {
          "name": "_startTime",
          "type": "uint256"
        },
        {
          "name": "_endTime",
          "type": "uint256"
        },
        {
          "name": "_startPrice",
          "type": "uint256"
        },
        {
          "name": "_endPrice",
          "type": "uint256"
        },
        {
          "name": "_totalVariableTokens",
          "type": "uint256"
        },
        {
          "name": "_totalFixedTokens",
          "type": "uint256"
        }
      ],
      "payable": false,
      "stateMutability": "nonpayable",
      "type": "constructor"
    },
    {
      "payable": true,
      "stateMutability": "payable",
      "type": "fallback"
    },
    {
      "anonymous": false,
      "inputs": [
        {
          "indexed": false,
          "name": "buyer",
          "type": "address"
        }
      ],
      "name": "Approved",
      "type": "event"
    },
    {
      "anonymous": false,
      "inputs": [
        {
          "indexed": false,
          "name": "seller",
          "type": "address"
        },
        {
          "indexed": false,
          "name": "buyer",
          "type": "address"
        },
        {
          "indexed": false,
          "name": "amount",
          "type": "uint256"
        }
      ],
      "name": "EtherAccepted",
      "type": "event"
    },
    {
      "anonymous": false,
      "inputs": [
        {
          "indexed": false,
          "name": "seller",
          "type": "address"
        },
        {
          "indexed": false,
          "name": "buyer",
          "type": "address"
        },
        {
          "indexed": false,
          "name": "amount",
          "type": "uint256"
        }
      ],
      "name": "TokensSent",
      "type": "event"
    },
    {
      "anonymous": false,
      "inputs": [
        {
          "indexed": true,
          "name": "previousOwner",
          "type": "address"
        },
        {
          "indexed": true,
          "name": "newOwner",
          "type": "address"
        }
      ],
      "name": "OwnershipTransferred",
      "type": "event"
    },
    {
      "constant": false,
      "inputs": [
        {
          "name": "",
          "type": "uint256"
        }
      ],
      "name": "setPrice",
      "outputs": [],
      "payable": false,
      "stateMutability": "nonpayable",
      "type": "function"
    },
    {
      "constant": true,
      "inputs": [],
      "name": "getPrice",
      "outputs": [
        {
          "name": "",
          "type": "uint256"
        }
      ],
      "payable": false,
      "stateMutability": "view",
      "type": "function"
    },
    {
      "constant": true,
      "inputs": [
        {
          "name": "_ethAmount",
          "type": "uint256"
        }
      ],
      "name": "predictTokensForEther",
      "outputs": [
        {
          "name": "",
          "type": "uint256"
        }
      ],
      "payable": false,
      "stateMutability": "view",
      "type": "function"
    },
    {
      "constant": true,
      "inputs": [
        {
          "name": "_ethAmount",
          "type": "uint256"
        },
        {
          "name": "_numberSold",
          "type": "uint256"
        }
      ],
      "name": "predictTokensForEtherAtPoint",
      "outputs": [
        {
          "name": "",
          "type": "uint256"
        }
      ],
      "payable": false,
      "stateMutability": "view",
      "type": "function"
    }
  ],
  "bytecode": "0x6060604052341561000f57600080fd5b6040516101208061292d8339810160405280805190602001909190805190602001909190805190602001909190805190602001909190805190602001909190805190602001909190805190602001909190805190602001909190805190602001909190505088888589898985858585858585858585858585858585336000806101000a81548173ffffffffffffffffffffffffffffffffffffffff021916908373ffffffffffffffffffffffffffffffffffffffff16021790555083600160006101000a81548173ffffffffffffffffffffffffffffffffffffffff021916908373ffffffffffffffffffffffffffffffffffffffff160217905550816002819055508060038190555082600460006101000a81548173ffffffffffffffffffffffffffffffffffffffff021916908373ffffffffffffffffffffffffffffffffffffffff1602179055505050505081600581905550806006819055505050505050506001600760003373ffffffffffffffffffffffffffffffffffffffff1673ffffffffffffffffffffffffffffffffffffffff16815260200190815260200160002060006101000a81548160ff02191690831515021790555050505050505050505050505083600c8190555082600d8190555081600e8190555080600f819055505050505050505050506127238061020a6000396000f3006060604052600436106101a1576000357c0100000000000000000000000000000000000000000000000000000000900463ffffffff168063051af15d146101c75780630a144391146101f05780631f3a0e41146102415780631f66b71e1461026e5780633197cbb6146102e757806332b182c31461031057806338af3eed146103aa5780633e0a322d146103ff57806341c0e1b5146104225780635eebea201461043757806364edfbf01461048b5780636ab77f231461049557806378e97925146104be5780637aef1d4d146104e75780637f92527c1461050a5780638da5cb5b1461053357806391b7f5ed146105885780639448fa98146105ab57806398d5fdca14610624578063ad2bb1b31461064d578063b868723e14610686578063b8f7a665146106af578063c70aa62f146106dc578063ccb98ffc14610713578063ceb67a6114610736578063d76fd2e71461075f578063daea85c5146107a3578063e35568cb146107dc578063e596219514610805578063e99b095914610856578063f1a9af8914610896578063f2fde38b146108bf578063fc0c546a146108f8575b600060149054906101000a900460ff161515156101bd57600080fd5b6101c561094d565b005b34156101d257600080fd5b6101da610ace565b6040518082815260200191505060405180910390f35b34156101fb57600080fd5b610227600480803573ffffffffffffffffffffffffffffffffffffffff16906020019091905050610ad4565b604051808215151515815260200191505060405180910390f35b341561024c57600080fd5b610254610af4565b604051808215151515815260200191505060405180910390f35b341561027957600080fd5b6102e5600480803573ffffffffffffffffffffffffffffffffffffffff1690602001909190803590602001908201803590602001908080602002602001604051908101604052809392919081815260200183836020028082843782019150505050505091905050610b07565b005b34156102f257600080fd5b6102fa610beb565b6040518082815260200191505060405180910390f35b341561031b57600080fd5b610350600480803573ffffffffffffffffffffffffffffffffffffffff16906020019091908035906020019091905050610bf1565b60405180827effffffffffffffffffffffffffffffffffffffffffffffffffffffffffffff19167effffffffffffffffffffffffffffffffffffffffffffffffffffffffffffff1916815260200191505060405180910390f35b34156103b557600080fd5b6103bd610c52565b604051808273ffffffffffffffffffffffffffffffffffffffff1673ffffffffffffffffffffffffffffffffffffffff16815260200191505060405180910390f35b341561040a57600080fd5b6104206004808035906020019091905050610c78565b005b341561042d57600080fd5b610435610cf9565b005b341561044257600080fd5b61046e600480803573ffffffffffffffffffffffffffffffffffffffff16906020019091905050611008565b604051808381526020018281526020019250505060405180910390f35b61049361094d565b005b34156104a057600080fd5b6104a861102c565b6040518082815260200191505060405180910390f35b34156104c957600080fd5b6104d1611032565b6040518082815260200191505060405180910390f35b34156104f257600080fd5b6105086004808035906020019091905050611038565b005b341561051557600080fd5b61051d6110b9565b6040518082815260200191505060405180910390f35b341561053e57600080fd5b6105466110bf565b604051808273ffffffffffffffffffffffffffffffffffffffff1673ffffffffffffffffffffffffffffffffffffffff16815260200191505060405180910390f35b341561059357600080fd5b6105a960048080359060200190919050506110e4565b005b34156105b657600080fd5b610622600480803573ffffffffffffffffffffffffffffffffffffffff1690602001909190803590602001908201803590602001908080602002602001604051908101604052809392919081815260200183836020028082843782019150505050505091905050611160565b005b341561062f57600080fd5b610637611272565b6040518082815260200191505060405180910390f35b341561065857600080fd5b610684600480803573ffffffffffffffffffffffffffffffffffffffff169060200190919050506112a5565b005b341561069157600080fd5b61069961135b565b6040518082815260200191505060405180910390f35b34156106ba57600080fd5b6106c2611361565b604051808215151515815260200191505060405180910390f35b34156106e757600080fd5b6106fd60048080359060200190919050506113c9565b6040518082815260200191505060405180910390f35b341561071e57600080fd5b61073460048080359060200190919050506113f9565b005b341561074157600080fd5b61074961147a565b6040518082815260200191505060405180910390f35b341561076a57600080fd5b6107a1600480803573ffffffffffffffffffffffffffffffffffffffff169060200190919080351515906020019091905050611480565b005b34156107ae57600080fd5b6107da600480803573ffffffffffffffffffffffffffffffffffffffff16906020019091905050611552565b005b34156107e757600080fd5b6107ef6115af565b6040518082815260200191505060405180910390f35b341561081057600080fd5b61083c600480803573ffffffffffffffffffffffffffffffffffffffff16906020019091905050611706565b604051808215151515815260200191505060405180910390f35b341561086157600080fd5b6108806004808035906020019091908035906020019091905050611726565b6040518082815260200191505060405180910390f35b34156108a157600080fd5b6108a9611761565b6040518082815260200191505060405180910390f35b34156108ca57600080fd5b6108f6600480803573ffffffffffffffffffffffffffffffffffffffff16906020019091905050611767565b005b341561090357600080fd5b61090b6118bc565b604051808273ffffffffffffffffffffffffffffffffffffffff1673ffffffffffffffffffffffffffffffffffffffff16815260200191505060405180910390f35b600080600060149054906101000a900460ff1615151561096c57600080fd5b349150610978826118e2565b90506109826115af565b600282021115151561099357600080fd5b600160009054906101000a900473ffffffffffffffffffffffffffffffffffffffff1673ffffffffffffffffffffffffffffffffffffffff166370a082316000809054906101000a900473ffffffffffffffffffffffffffffffffffffffff166000604051602001526040518263ffffffff167c0100000000000000000000000000000000000000000000000000000000028152600401808273ffffffffffffffffffffffffffffffffffffffff1673ffffffffffffffffffffffffffffffffffffffff168152602001915050602060405180830381600087803b1515610a7957600080fd5b6102c65a03f11515610a8a57600080fd5b505050604051805190508111151515610aa257600080fd5b60035482101580610ab557506000600354145b1515610ac057600080fd5b610aca828261191e565b5050565b60035481565b60076020528060005260406000206000915054906101000a900460ff1681565b600060149054906101000a900460ff1681565b600760003373ffffffffffffffffffffffffffffffffffffffff1673ffffffffffffffffffffffffffffffffffffffff16815260200190815260200160002060009054906101000a900460ff161515610b5f57600080fd5b600060149054906101000a900460ff16151515610b7b57600080fd5b600860008373ffffffffffffffffffffffffffffffffffffffff1673ffffffffffffffffffffffffffffffffffffffff16815260200190815260200160002060009054906101000a900460ff16151515610bd457600080fd5b610bde8282611160565b610be7826119e0565b5050565b60065481565b600a60205281600052604060002081815481101515610c0c57fe5b9060005260206000209060209182820401919006915091509054906101000a90047f01000000000000000000000000000000000000000000000000000000000000000281565b600460009054906101000a900473ffffffffffffffffffffffffffffffffffffffff1681565b6000809054906101000a900473ffffffffffffffffffffffffffffffffffffffff1673ffffffffffffffffffffffffffffffffffffffff163373ffffffffffffffffffffffffffffffffffffffff16141515610cd357600080fd5b600060149054906101000a900460ff16151515610cef57600080fd5b8060058190555050565b6000809054906101000a900473ffffffffffffffffffffffffffffffffffffffff1673ffffffffffffffffffffffffffffffffffffffff163373ffffffffffffffffffffffffffffffffffffffff16141515610d5457600080fd5b600160009054906101000a900473ffffffffffffffffffffffffffffffffffffffff1673ffffffffffffffffffffffffffffffffffffffff166323b872dd30600460009054906101000a900473ffffffffffffffffffffffffffffffffffffffff16600160009054906101000a900473ffffffffffffffffffffffffffffffffffffffff1673ffffffffffffffffffffffffffffffffffffffff166370a08231306000604051602001526040518263ffffffff167c0100000000000000000000000000000000000000000000000000000000028152600401808273ffffffffffffffffffffffffffffffffffffffff1673ffffffffffffffffffffffffffffffffffffffff168152602001915050602060405180830381600087803b1515610e7b57600080fd5b6102c65a03f11515610e8c57600080fd5b505050604051805190506000604051602001526040518463ffffffff167c0100000000000000000000000000000000000000000000000000000000028152600401808473ffffffffffffffffffffffffffffffffffffffff1673ffffffffffffffffffffffffffffffffffffffff1681526020018373ffffffffffffffffffffffffffffffffffffffff1673ffffffffffffffffffffffffffffffffffffffff1681526020018281526020019350505050602060405180830381600087803b1515610f5657600080fd5b6102c65a03f11515610f6757600080fd5b5050506040518051905050600460009054906101000a900473ffffffffffffffffffffffffffffffffffffffff1673ffffffffffffffffffffffffffffffffffffffff166108fc3073ffffffffffffffffffffffffffffffffffffffff16319081150290604051600060405180830381858888f193505050501515610feb57600080fd5b6001600060146101000a81548160ff021916908315150217905550565b60096020528060005260406000206000915090508060000154908060010154905082565b600b5481565b60055481565b6000809054906101000a900473ffffffffffffffffffffffffffffffffffffffff1673ffffffffffffffffffffffffffffffffffffffff163373ffffffffffffffffffffffffffffffffffffffff1614151561109357600080fd5b600060149054906101000a900460ff161515156110af57600080fd5b8060038190555050565b600e5481565b6000809054906101000a900473ffffffffffffffffffffffffffffffffffffffff1681565b6000809054906101000a900473ffffffffffffffffffffffffffffffffffffffff1673ffffffffffffffffffffffffffffffffffffffff163373ffffffffffffffffffffffffffffffffffffffff1614151561113f57600080fd5b600060149054906101000a900460ff1615151561115b57600080fd5b600080fd5b600760003373ffffffffffffffffffffffffffffffffffffffff1673ffffffffffffffffffffffffffffffffffffffff16815260200190815260200160002060009054906101000a900460ff1615156111b857600080fd5b6000600a60008473ffffffffffffffffffffffffffffffffffffffff1673ffffffffffffffffffffffffffffffffffffffff1681526020019081526020016000208054905014151561120957600080fd5b608081511115151561121a57600080fd5b80600a60008473ffffffffffffffffffffffffffffffffffffffff1673ffffffffffffffffffffffffffffffffffffffff168152602001908152602001600020908051906020019061126d929190612600565b505050565b60008060149054906101000a900460ff1615151561128f57600080fd5b6112a0670de0b6b3a76400006118e2565b905090565b6000809054906101000a900473ffffffffffffffffffffffffffffffffffffffff1673ffffffffffffffffffffffffffffffffffffffff163373ffffffffffffffffffffffffffffffffffffffff1614151561130057600080fd5b6001600860008373ffffffffffffffffffffffffffffffffffffffff1673ffffffffffffffffffffffffffffffffffffffff16815260200190815260200160002060006101000a81548160ff02191690831515021790555050565b600d5481565b60008060019050600060149054906101000a900460ff161561138657600090506113c2565b600060055411156113a5574260055411156113a057600090505b6113c1565b600060065411156113c0574260065410156113bf57600090505b5b5b5b8091505090565b60008060149054906101000a900460ff161515156113e657600080fd5b6113f282600b54611726565b9050919050565b6000809054906101000a900473ffffffffffffffffffffffffffffffffffffffff1673ffffffffffffffffffffffffffffffffffffffff163373ffffffffffffffffffffffffffffffffffffffff1614151561145457600080fd5b600060149054906101000a900460ff1615151561147057600080fd5b8060068190555050565b600f5481565b6000809054906101000a900473ffffffffffffffffffffffffffffffffffffffff1673ffffffffffffffffffffffffffffffffffffffff163373ffffffffffffffffffffffffffffffffffffffff161415156114db57600080fd5b600060149054906101000a900460ff161515156114f757600080fd5b80600760008473ffffffffffffffffffffffffffffffffffffffff1673ffffffffffffffffffffffffffffffffffffffff16815260200190815260200160002060006101000a81548160ff0219169083151502179055505050565b600760003373ffffffffffffffffffffffffffffffffffffffff1673ffffffffffffffffffffffffffffffffffffffff16815260200190815260200160002060009054906101000a900460ff1615156115aa57600080fd5b600080fd5b60008060149054906101000a900460ff161515156115cc57600080fd5b600160009054906101000a900473ffffffffffffffffffffffffffffffffffffffff1673ffffffffffffffffffffffffffffffffffffffff1663dd62ed3e6000809054906101000a900473ffffffffffffffffffffffffffffffffffffffff16306000604051602001526040518363ffffffff167c0100000000000000000000000000000000000000000000000000000000028152600401808373ffffffffffffffffffffffffffffffffffffffff1673ffffffffffffffffffffffffffffffffffffffff1681526020018273ffffffffffffffffffffffffffffffffffffffff1673ffffffffffffffffffffffffffffffffffffffff16815260200192505050602060405180830381600087803b15156116e657600080fd5b6102c65a03f115156116f757600080fd5b50505060405180519050905090565b60086020528060005260406000206000915054906101000a900460ff1681565b60008060149054906101000a900460ff1615151561174357600080fd5b6117598284600c54600d54600e54600f54611c7d565b905092915050565b600c5481565b6000809054906101000a900473ffffffffffffffffffffffffffffffffffffffff1673ffffffffffffffffffffffffffffffffffffffff163373ffffffffffffffffffffffffffffffffffffffff161415156117c257600080fd5b600073ffffffffffffffffffffffffffffffffffffffff168173ffffffffffffffffffffffffffffffffffffffff16141515156117fe57600080fd5b8073ffffffffffffffffffffffffffffffffffffffff166000809054906101000a900473ffffffffffffffffffffffffffffffffffffffff1673ffffffffffffffffffffffffffffffffffffffff167f8be0079c531659141344cd1fd0a4f28419497f9722a3daafe3b4186f6b6457e060405160405180910390a3806000806101000a81548173ffffffffffffffffffffffffffffffffffffffff021916908373ffffffffffffffffffffffffffffffffffffffff16021790555050565b600160009054906101000a900473ffffffffffffffffffffffffffffffffffffffff1681565b60008060149054906101000a900460ff161515156118ff57600080fd5b611917600b5483600c54600d54600e54600f54611c7d565b9050919050565b6000600860003373ffffffffffffffffffffffffffffffffffffffff1673ffffffffffffffffffffffffffffffffffffffff16815260200190815260200160002060009054906101000a900460ff1615151561197957600080fd5b3390506119868383611d83565b6000600a60008373ffffffffffffffffffffffffffffffffffffffff1673ffffffffffffffffffffffffffffffffffffffff1681526020019081526020016000208054905011156119db576119da816119e0565b5b505050565b6000600960008373ffffffffffffffffffffffffffffffffffffffff1673ffffffffffffffffffffffffffffffffffffffff168152602001908152602001600020600101541115611c7a57600460009054906101000a900473ffffffffffffffffffffffffffffffffffffffff1673ffffffffffffffffffffffffffffffffffffffff166108fc600960008473ffffffffffffffffffffffffffffffffffffffff1673ffffffffffffffffffffffffffffffffffffffff168152602001908152602001600020600001549081150290604051600060405180830381858888f193505050501515611acf57600080fd5b600160009054906101000a900473ffffffffffffffffffffffffffffffffffffffff1673ffffffffffffffffffffffffffffffffffffffff1663a9059cbb82600960008573ffffffffffffffffffffffffffffffffffffffff1673ffffffffffffffffffffffffffffffffffffffff168152602001908152602001600020600101546040518363ffffffff167c0100000000000000000000000000000000000000000000000000000000028152600401808373ffffffffffffffffffffffffffffffffffffffff1673ffffffffffffffffffffffffffffffffffffffff16815260200182815260200192505050600060405180830381600087803b1515611bd557600080fd5b6102c65a03f11515611be657600080fd5b5050506000600960008373ffffffffffffffffffffffffffffffffffffffff1673ffffffffffffffffffffffffffffffffffffffff168152602001908152602001600020600101819055506000600960008373ffffffffffffffffffffffffffffffffffffffff1673ffffffffffffffffffffffffffffffffffffffff168152602001908152602001600020600001819055505b50565b600080600080600080600080670de0b6b3a76400008a029650670de0b6b3a7640000890295508587018e101515611cb75760009750611d72565b611cc18e88611dc0565b15611cf357611cd18e8888611dce565b15611cdf5760009750611d72565b611cec8e8e8d8a8a611de6565b9750611d72565b611cff8e8d8d8a611e42565b9450611d0e8e8e8e8e8b611e9e565b93508c851115611d2057839750611d72565b848d039250611d318e8c8989611f1a565b9150611d408e848d8a8a611de6565b90508c611d4d8387611f95565b1015611d6557611d5e8e8888611fb3565b9750611d72565b611d6f8482611f95565b97505b505050505050509695505050505050565b611d8b611361565b1515611d9657600080fd5b600060149054906101000a900460ff16151515611db257600080fd5b611dbc8282611feb565b5050565b600081831015905092915050565b6000611dda8383611f95565b84101590509392505050565b6000806000611df688868661201d565b9150611e20633b9aca0088811515611e0a57fe5b04633b9aca0088811515611e1a57fe5b0461206b565b90508181111515611e3357809250611e37565b8192505b505095945050505050565b600080600086841015611e585760009250611e94565b611e6284886120a6565b9150611e70878787876120bf565b9050611e91633b9aca008302633b9aca0083811515611e8b57fe5b04612143565b92505b5050949350505050565b6000806000808489101515611eb65760009350611f0e565b611ec2898888886120bf565b9250633b9aca00611ee289633b9aca0086811515611edc57fe5b0461206b565b811515611eeb57fe5b049150611ef8898661216a565b905080821115611f0a57809350611f0e565b8193505b50505095945050505050565b600084831115611f4857611f4182670de0b6b3a764000086811515611f3b57fe5b04612143565b9050611f8d565b84611f538484611f95565b111515611f635760009050611f8d565b611f8a611f7186858561201d565b670de0b6b3a764000086811515611f8457fe5b04612143565b90505b949350505050565b6000808284019050838110151515611fa957fe5b8091505092915050565b6000611fc0848484611dce565b15611fce5760009050611fe4565b611fe1611fdb8484611f95565b856120a6565b90505b9392505050565b600060149054906101000a900460ff1615151561200757600080fd5b61201082612190565b612019816122bd565b5050565b60008061202a8484611f95565b85111561203a5760009150612063565b8385101561204a57829150612063565b61205485856120a6565b905061206083826120a6565b91505b509392505050565b6000806000841415612080576000915061209f565b828402905082848281151561209157fe5b0414151561209b57fe5b8091505b5092915050565b60008282111515156120b457fe5b818303905092915050565b60008060008084881015156120d657859350612138565b6120e087876120a6565b92506120ff88670de0b6b3a7640000878115156120f957fe5b04612143565b9150612129633b9aca008381151561211357fe5b04633b9aca008581151561212357fe5b0461206b565b905061213587826120a6565b93505b505050949350505050565b60008060008311151561215257fe5b828481151561215d57fe5b0490508091505092915050565b6000828211156121855761217e82846120a6565b905061218a565b600090505b92915050565b80600960003373ffffffffffffffffffffffffffffffffffffffff1673ffffffffffffffffffffffffffffffffffffffff1681526020019081526020016000206000015401600960003373ffffffffffffffffffffffffffffffffffffffff1673ffffffffffffffffffffffffffffffffffffffff168152602001908152602001600020600001819055507f01a6dd555a0168dd57f865ff16599bedf1cbe954ed60757e28cf137f079c70a8303383604051808473ffffffffffffffffffffffffffffffffffffffff1673ffffffffffffffffffffffffffffffffffffffff1681526020018373ffffffffffffffffffffffffffffffffffffffff1673ffffffffffffffffffffffffffffffffffffffff168152602001828152602001935050505060405180910390a150565b6122c6816122d4565b80600b5401600b8190555050565b80600960003373ffffffffffffffffffffffffffffffffffffffff1673ffffffffffffffffffffffffffffffffffffffff1681526020019081526020016000206001015401600960003373ffffffffffffffffffffffffffffffffffffffff1673ffffffffffffffffffffffffffffffffffffffff16815260200190815260200160002060010181905550600160009054906101000a900473ffffffffffffffffffffffffffffffffffffffff1673ffffffffffffffffffffffffffffffffffffffff166323b872dd6000809054906101000a900473ffffffffffffffffffffffffffffffffffffffff16600460009054906101000a900473ffffffffffffffffffffffffffffffffffffffff16846000604051602001526040518463ffffffff167c0100000000000000000000000000000000000000000000000000000000028152600401808473ffffffffffffffffffffffffffffffffffffffff1673ffffffffffffffffffffffffffffffffffffffff1681526020018373ffffffffffffffffffffffffffffffffffffffff1673ffffffffffffffffffffffffffffffffffffffff1681526020018281526020019350505050602060405180830381600087803b15156124a357600080fd5b6102c65a03f115156124b457600080fd5b5050506040518051905050600160009054906101000a900473ffffffffffffffffffffffffffffffffffffffff1673ffffffffffffffffffffffffffffffffffffffff166323b872dd6000809054906101000a900473ffffffffffffffffffffffffffffffffffffffff1630846000604051602001526040518463ffffffff167c0100000000000000000000000000000000000000000000000000000000028152600401808473ffffffffffffffffffffffffffffffffffffffff1673ffffffffffffffffffffffffffffffffffffffff1681526020018373ffffffffffffffffffffffffffffffffffffffff1673ffffffffffffffffffffffffffffffffffffffff1681526020018281526020019350505050602060405180830381600087803b15156125e157600080fd5b6102c65a03f115156125f257600080fd5b505050604051805190505050565b82805482825590600052602060002090601f016020900481019282156126b65791602002820160005b8382111561268757835183826101000a81548160ff02191690837f0100000000000000000000000000000000000000000000000000000000000000900402179055509260200192600101602081600001049283019260010302612629565b80156126b45782816101000a81549060ff0219169055600101602081600001049283019260010302612687565b505b5090506126c391906126c7565b5090565b6126f491905b808211156126f057600081816101000a81549060ff0219169055506001016126cd565b5090565b905600a165627a7a72305820266efca982223cdc62858434b82824c2e1d36647432808fcbc3d592dd5df56b80029",
  "source": "pragma solidity ^0.4.19;\n\nimport \"./XYEligibleTokenSale.sol\";\nimport \"./lib/XYVariablePrice.sol\";\n\ncontract XYOfficialTokenSale is XYEligibleTokenSale {\n\n  uint public numberSold;\n  uint public startPrice; // 18 places\n  uint public endPrice; // 18 places\n  uint public totalVariableTokens; // 0 places\n  uint public totalFixedTokens; // 0 places\n\n  function XYOfficialTokenSale(\n      address _token,\n      address _beneficiary,\n      uint _minEther,\n      uint _startTime,\n      uint _endTime,\n      uint _startPrice,\n      uint _endPrice,\n      uint _totalVariableTokens,\n      uint _totalFixedTokens)\n  public XYEligibleTokenSale(_token, _beneficiary, _startPrice, _minEther, _startTime, _endTime) {\n    startPrice = _startPrice; //18 places\n    endPrice = _endPrice; //18 places\n    totalVariableTokens = _totalVariableTokens; //0 places\n    totalFixedTokens = _totalFixedTokens; //0 places\n  }\n\n  function _sendTokens(uint _amount) internal {\n    super._sendTokens(_amount);\n    numberSold = numberSold + _amount;\n  }\n\n  function setPrice(uint) public onlyOwner onlyNotKilled {\n    //price is not settable from outside\n    revert();\n  }\n\n  function getPrice() public view onlyNotKilled returns(uint) {\n    return _tokensFromEther(1000000000000000000);\n  }\n\n  function predictTokensForEther(uint _ethAmount) public view onlyNotKilled returns(uint) {\n    return predictTokensForEtherAtPoint(_ethAmount, numberSold);\n  }\n\n  function predictTokensForEtherAtPoint(uint _ethAmount, uint _numberSold) public view onlyNotKilled returns(uint) {\n    return XYVariablePrice.getTokensForEther(_numberSold, _ethAmount, startPrice, endPrice, totalVariableTokens, totalFixedTokens);\n  }\n\n  function _tokensFromEther(uint _ethAmount) internal view onlyNotKilled returns(uint){\n    return XYVariablePrice.getTokensForEther(numberSold, _ethAmount, startPrice, endPrice, totalVariableTokens, totalFixedTokens);\n  }\n\n}\n",
  "sourcePath": "/Users/arietrouw/xyoraclenetwork/xyo-solidity/contracts/XYOfficialTokenSale.sol",
  "compiler": {
    "name": "solc",
    "version": "0.4.19+commit.c4cbbb05.Emscripten.clang"
  },
  "schemaVersion": "2.0.0",
  "updatedAt": "2018-03-19T01:49:55.940Z"
}