{
  "contractName": "XYTokenSale",
  "abi": [
    {
      "constant": true,
      "inputs": [],
      "name": "minEther",
      "outputs": [
        {
          "name": "",
          "type": "uint256"
        }
      ],
      "payable": false,
      "stateMutability": "view",
      "type": "function"
    },
    {
      "constant": true,
      "inputs": [],
      "name": "killed",
      "outputs": [
        {
          "name": "",
          "type": "bool"
        }
      ],
      "payable": false,
      "stateMutability": "view",
      "type": "function"
    },
    {
      "constant": true,
      "inputs": [],
      "name": "beneficiary",
      "outputs": [
        {
          "name": "",
          "type": "address"
        }
      ],
      "payable": false,
      "stateMutability": "view",
      "type": "function"
    },
    {
      "constant": true,
      "inputs": [],
      "name": "owner",
      "outputs": [
        {
          "name": "",
          "type": "address"
        }
      ],
      "payable": false,
      "stateMutability": "view",
      "type": "function"
    },
    {
      "constant": false,
      "inputs": [
        {
          "name": "newOwner",
          "type": "address"
        }
      ],
      "name": "transferOwnership",
      "outputs": [],
      "payable": false,
      "stateMutability": "nonpayable",
      "type": "function"
    },
    {
      "constant": true,
      "inputs": [],
      "name": "token",
      "outputs": [
        {
          "name": "",
          "type": "address"
        }
      ],
      "payable": false,
      "stateMutability": "view",
      "type": "function"
    },
    {
      "inputs": [
        {
          "name": "_token",
          "type": "address"
        },
        {
          "name": "_beneficiary",
          "type": "address"
        },
        {
          "name": "_price",
          "type": "uint256"
        },
        {
          "name": "_minEther",
          "type": "uint256"
        }
      ],
      "payable": false,
      "stateMutability": "nonpayable",
      "type": "constructor"
    },
    {
      "payable": true,
      "stateMutability": "payable",
      "type": "fallback"
    },
    {
      "anonymous": false,
      "inputs": [
        {
          "indexed": false,
          "name": "seller",
          "type": "address"
        },
        {
          "indexed": false,
          "name": "buyer",
          "type": "address"
        },
        {
          "indexed": false,
          "name": "amount",
          "type": "uint256"
        }
      ],
      "name": "EtherAccepted",
      "type": "event"
    },
    {
      "anonymous": false,
      "inputs": [
        {
          "indexed": false,
          "name": "seller",
          "type": "address"
        },
        {
          "indexed": false,
          "name": "buyer",
          "type": "address"
        },
        {
          "indexed": false,
          "name": "amount",
          "type": "uint256"
        }
      ],
      "name": "TokensSent",
      "type": "event"
    },
    {
      "anonymous": false,
      "inputs": [
        {
          "indexed": true,
          "name": "previousOwner",
          "type": "address"
        },
        {
          "indexed": true,
          "name": "newOwner",
          "type": "address"
        }
      ],
      "name": "OwnershipTransferred",
      "type": "event"
    },
    {
      "constant": false,
      "inputs": [],
      "name": "purchase",
      "outputs": [],
      "payable": true,
      "stateMutability": "payable",
      "type": "function"
    },
    {
      "constant": true,
      "inputs": [],
      "name": "getAvailableTokens",
      "outputs": [
        {
          "name": "",
          "type": "uint256"
        }
      ],
      "payable": false,
      "stateMutability": "view",
      "type": "function"
    },
    {
      "constant": false,
      "inputs": [
        {
          "name": "_minEther",
          "type": "uint256"
        }
      ],
      "name": "setMinEther",
      "outputs": [],
      "payable": false,
      "stateMutability": "nonpayable",
      "type": "function"
    },
    {
      "constant": false,
      "inputs": [
        {
          "name": "_price",
          "type": "uint256"
        }
      ],
      "name": "setPrice",
      "outputs": [],
      "payable": false,
      "stateMutability": "nonpayable",
      "type": "function"
    },
    {
      "constant": true,
      "inputs": [],
      "name": "getPrice",
      "outputs": [
        {
          "name": "",
          "type": "uint256"
        }
      ],
      "payable": false,
      "stateMutability": "view",
      "type": "function"
    },
    {
      "constant": false,
      "inputs": [],
      "name": "kill",
      "outputs": [],
      "payable": false,
      "stateMutability": "nonpayable",
      "type": "function"
    }
  ],
  "bytecode": "0x6060604052341561000f57600080fd5b6040516080806112c783398101604052808051906020019091908051906020019091908051906020019091908051906020019091905050336000806101000a81548173ffffffffffffffffffffffffffffffffffffffff021916908373ffffffffffffffffffffffffffffffffffffffff16021790555083600160006101000a81548173ffffffffffffffffffffffffffffffffffffffff021916908373ffffffffffffffffffffffffffffffffffffffff160217905550816002819055508060038190555082600460006101000a81548173ffffffffffffffffffffffffffffffffffffffff021916908373ffffffffffffffffffffffffffffffffffffffff1602179055505050505061119e806101296000396000f3006060604052600436106100ba576000357c0100000000000000000000000000000000000000000000000000000000900463ffffffff168063051af15d146100e05780631f3a0e411461010957806338af3eed1461013657806341c0e1b51461018b57806364edfbf0146101a05780637aef1d4d146101aa5780638da5cb5b146101cd57806391b7f5ed1461022257806398d5fdca14610245578063e35568cb1461026e578063f2fde38b14610297578063fc0c546a146102d0575b600060149054906101000a900460ff161515156100d657600080fd5b6100de610325565b005b34156100eb57600080fd5b6100f36104a6565b6040518082815260200191505060405180910390f35b341561011457600080fd5b61011c6104ac565b604051808215151515815260200191505060405180910390f35b341561014157600080fd5b6101496104bf565b604051808273ffffffffffffffffffffffffffffffffffffffff1673ffffffffffffffffffffffffffffffffffffffff16815260200191505060405180910390f35b341561019657600080fd5b61019e6104e5565b005b6101a8610325565b005b34156101b557600080fd5b6101cb60048080359060200190919050506107f4565b005b34156101d857600080fd5b6101e0610875565b604051808273ffffffffffffffffffffffffffffffffffffffff1673ffffffffffffffffffffffffffffffffffffffff16815260200191505060405180910390f35b341561022d57600080fd5b610243600480803590602001909190505061089a565b005b341561025057600080fd5b61025861091b565b6040518082815260200191505060405180910390f35b341561027957600080fd5b610281610940565b6040518082815260200191505060405180910390f35b34156102a257600080fd5b6102ce600480803573ffffffffffffffffffffffffffffffffffffffff16906020019091905050610a97565b005b34156102db57600080fd5b6102e3610bec565b604051808273ffffffffffffffffffffffffffffffffffffffff1673ffffffffffffffffffffffffffffffffffffffff16815260200191505060405180910390f35b600080600060149054906101000a900460ff1615151561034457600080fd5b34915061035082610c12565b905061035a610940565b600282021115151561036b57600080fd5b600160009054906101000a900473ffffffffffffffffffffffffffffffffffffffff1673ffffffffffffffffffffffffffffffffffffffff166370a082316000809054906101000a900473ffffffffffffffffffffffffffffffffffffffff166000604051602001526040518263ffffffff167c0100000000000000000000000000000000000000000000000000000000028152600401808273ffffffffffffffffffffffffffffffffffffffff1673ffffffffffffffffffffffffffffffffffffffff168152602001915050602060405180830381600087803b151561045157600080fd5b6102c65a03f1151561046257600080fd5b50505060405180519050811115151561047a57600080fd5b6003548210158061048d57506000600354145b151561049857600080fd5b6104a28282610c5a565b5050565b60035481565b600060149054906101000a900460ff1681565b600460009054906101000a900473ffffffffffffffffffffffffffffffffffffffff1681565b6000809054906101000a900473ffffffffffffffffffffffffffffffffffffffff1673ffffffffffffffffffffffffffffffffffffffff163373ffffffffffffffffffffffffffffffffffffffff1614151561054057600080fd5b600160009054906101000a900473ffffffffffffffffffffffffffffffffffffffff1673ffffffffffffffffffffffffffffffffffffffff166323b872dd30600460009054906101000a900473ffffffffffffffffffffffffffffffffffffffff16600160009054906101000a900473ffffffffffffffffffffffffffffffffffffffff1673ffffffffffffffffffffffffffffffffffffffff166370a08231306000604051602001526040518263ffffffff167c0100000000000000000000000000000000000000000000000000000000028152600401808273ffffffffffffffffffffffffffffffffffffffff1673ffffffffffffffffffffffffffffffffffffffff168152602001915050602060405180830381600087803b151561066757600080fd5b6102c65a03f1151561067857600080fd5b505050604051805190506000604051602001526040518463ffffffff167c0100000000000000000000000000000000000000000000000000000000028152600401808473ffffffffffffffffffffffffffffffffffffffff1673ffffffffffffffffffffffffffffffffffffffff1681526020018373ffffffffffffffffffffffffffffffffffffffff1673ffffffffffffffffffffffffffffffffffffffff1681526020018281526020019350505050602060405180830381600087803b151561074257600080fd5b6102c65a03f1151561075357600080fd5b5050506040518051905050600460009054906101000a900473ffffffffffffffffffffffffffffffffffffffff1673ffffffffffffffffffffffffffffffffffffffff166108fc3073ffffffffffffffffffffffffffffffffffffffff16319081150290604051600060405180830381858888f1935050505015156107d757600080fd5b6001600060146101000a81548160ff021916908315150217905550565b6000809054906101000a900473ffffffffffffffffffffffffffffffffffffffff1673ffffffffffffffffffffffffffffffffffffffff163373ffffffffffffffffffffffffffffffffffffffff1614151561084f57600080fd5b600060149054906101000a900460ff1615151561086b57600080fd5b8060038190555050565b6000809054906101000a900473ffffffffffffffffffffffffffffffffffffffff1681565b6000809054906101000a900473ffffffffffffffffffffffffffffffffffffffff1673ffffffffffffffffffffffffffffffffffffffff163373ffffffffffffffffffffffffffffffffffffffff161415156108f557600080fd5b600060149054906101000a900460ff1615151561091157600080fd5b8060028190555050565b60008060149054906101000a900460ff1615151561093857600080fd5b600254905090565b60008060149054906101000a900460ff1615151561095d57600080fd5b600160009054906101000a900473ffffffffffffffffffffffffffffffffffffffff1673ffffffffffffffffffffffffffffffffffffffff1663dd62ed3e6000809054906101000a900473ffffffffffffffffffffffffffffffffffffffff16306000604051602001526040518363ffffffff167c0100000000000000000000000000000000000000000000000000000000028152600401808373ffffffffffffffffffffffffffffffffffffffff1673ffffffffffffffffffffffffffffffffffffffff1681526020018273ffffffffffffffffffffffffffffffffffffffff1673ffffffffffffffffffffffffffffffffffffffff16815260200192505050602060405180830381600087803b1515610a7757600080fd5b6102c65a03f11515610a8857600080fd5b50505060405180519050905090565b6000809054906101000a900473ffffffffffffffffffffffffffffffffffffffff1673ffffffffffffffffffffffffffffffffffffffff163373ffffffffffffffffffffffffffffffffffffffff16141515610af257600080fd5b600073ffffffffffffffffffffffffffffffffffffffff168173ffffffffffffffffffffffffffffffffffffffff1614151515610b2e57600080fd5b8073ffffffffffffffffffffffffffffffffffffffff166000809054906101000a900473ffffffffffffffffffffffffffffffffffffffff1673ffffffffffffffffffffffffffffffffffffffff167f8be0079c531659141344cd1fd0a4f28419497f9722a3daafe3b4186f6b6457e060405160405180910390a3806000806101000a81548173ffffffffffffffffffffffffffffffffffffffff021916908373ffffffffffffffffffffffffffffffffffffffff16021790555050565b600160009054906101000a900473ffffffffffffffffffffffffffffffffffffffff1681565b60008060149054906101000a900460ff16151515610c2f57600080fd5b610c44610c3a61091b565b633b9aca00610c8c565b610c5283633b9aca00610c8c565b029050919050565b600060149054906101000a900460ff16151515610c7657600080fd5b610c7f82610cb3565b610c8881610df5565b5050565b600080600083111515610c9b57fe5b8284811515610ca657fe5b0490508091505092915050565b600060149054906101000a900460ff16151515610ccf57600080fd5b600460009054906101000a900473ffffffffffffffffffffffffffffffffffffffff1673ffffffffffffffffffffffffffffffffffffffff166108fc829081150290604051600060405180830381858888f193505050501515610d3157600080fd5b7f01a6dd555a0168dd57f865ff16599bedf1cbe954ed60757e28cf137f079c70a8600460009054906101000a900473ffffffffffffffffffffffffffffffffffffffff163383604051808473ffffffffffffffffffffffffffffffffffffffff1673ffffffffffffffffffffffffffffffffffffffff1681526020018373ffffffffffffffffffffffffffffffffffffffff1673ffffffffffffffffffffffffffffffffffffffff168152602001828152602001935050505060405180910390a150565b600060149054906101000a900460ff16151515610e1157600080fd5b600160009054906101000a900473ffffffffffffffffffffffffffffffffffffffff1673ffffffffffffffffffffffffffffffffffffffff166323b872dd6000809054906101000a900473ffffffffffffffffffffffffffffffffffffffff16600460009054906101000a900473ffffffffffffffffffffffffffffffffffffffff16846000604051602001526040518463ffffffff167c0100000000000000000000000000000000000000000000000000000000028152600401808473ffffffffffffffffffffffffffffffffffffffff1673ffffffffffffffffffffffffffffffffffffffff1681526020018373ffffffffffffffffffffffffffffffffffffffff1673ffffffffffffffffffffffffffffffffffffffff1681526020018281526020019350505050602060405180830381600087803b1515610f5557600080fd5b6102c65a03f11515610f6657600080fd5b5050506040518051905050600160009054906101000a900473ffffffffffffffffffffffffffffffffffffffff1673ffffffffffffffffffffffffffffffffffffffff166323b872dd6000809054906101000a900473ffffffffffffffffffffffffffffffffffffffff1633846000604051602001526040518463ffffffff167c0100000000000000000000000000000000000000000000000000000000028152600401808473ffffffffffffffffffffffffffffffffffffffff1673ffffffffffffffffffffffffffffffffffffffff1681526020018373ffffffffffffffffffffffffffffffffffffffff1673ffffffffffffffffffffffffffffffffffffffff1681526020018281526020019350505050602060405180830381600087803b151561109357600080fd5b6102c65a03f115156110a457600080fd5b50505060405180519050507fe607861baff3d292b19188affe88c1a72bdcb69d3015f18bb2cd0bf5349cc3e16000809054906101000a900473ffffffffffffffffffffffffffffffffffffffff163383604051808473ffffffffffffffffffffffffffffffffffffffff1673ffffffffffffffffffffffffffffffffffffffff1681526020018373ffffffffffffffffffffffffffffffffffffffff1673ffffffffffffffffffffffffffffffffffffffff168152602001828152602001935050505060405180910390a1505600a165627a7a72305820e7ca357c37e8f42b4198cf0e56678a246e9e2d2ab0f443ed3c0775bad28cbcb80029",
  "source": "pragma solidity ^0.4.19;\n\nimport \"./ERC20.sol\";\nimport \"./XYKillable.sol\";\nimport \"./lib/SafeMath.sol\";\n\n\ncontract XYTokenSale is XYKillable {\n  using SafeMath\n  for * ;\n\n  ERC20 public token; //address of the ERC20 token\n  uint private price; //price of tokens (how many tokens per ETH)\n  uint public minEther; //minimum amount of Ether required for a purchase (0 for no minimum) 18 places\n  address public beneficiary; //where the duplicate tokens go\n\n  event EtherAccepted(address seller, address buyer, uint amount);\n  event TokensSent(address seller, address buyer, uint amount);\n\n  function XYTokenSale(address _token, address _beneficiary, uint _price, uint _minEther) public {\n    token = ERC20(_token);\n    price = _price;\n    minEther = _minEther;\n    beneficiary = _beneficiary;\n  }\n\n  function () public onlyNotKilled payable {\n    purchase();\n  }\n\n  function purchase() public onlyNotKilled payable {\n    uint ethAmount = msg.value;\n    uint tokenAmount = _tokensFromEther(ethAmount);\n\n    require(tokenAmount * 2 <= getAvailableTokens());\n    require(tokenAmount <= token.balanceOf(owner));\n    require(ethAmount >= minEther || minEther == 0);\n\n    _purchase(ethAmount, tokenAmount);\n  }\n\n  function getAvailableTokens() public view onlyNotKilled returns(uint) {\n    return token.allowance(owner, this);\n  }\n\n  function setMinEther(uint _minEther) public onlyOwner onlyNotKilled {\n    minEther = _minEther;\n  }\n\n  function setPrice(uint _price) public onlyOwner onlyNotKilled {\n    price = _price;\n  }\n\n  function getPrice() public view onlyNotKilled returns(uint) {\n    return price;\n  }\n\n  function kill() public onlyOwner {\n    token.transferFrom(this, beneficiary, token.balanceOf(this));\n    beneficiary.transfer(address(this).balance);\n    killed = true;\n  }\n\n  function _tokensFromEther(uint _ethAmount) internal onlyNotKilled view returns(uint){\n    return SafeMath.div(_ethAmount, 1000000000) * SafeMath.div(getPrice(), 1000000000);\n  }\n\n  function _purchase(uint _ethAmount, uint _tokenAmount) internal onlyNotKilled {\n    _acceptEther(_ethAmount);\n    _sendTokens(_tokenAmount);\n  }\n\n  function _acceptEther(uint _amount) internal onlyNotKilled {\n    beneficiary.transfer(_amount);\n    EtherAccepted(beneficiary, msg.sender, _amount);\n  }\n\n  function _sendTokens(uint _amount) internal onlyNotKilled {\n    token.transferFrom(owner, beneficiary, _amount);\n    token.transferFrom(owner, msg.sender, _amount);\n    TokensSent(owner, msg.sender, _amount);\n  }\n\n}\n",
  "sourcePath": "/Users/arietrouw/xyoraclenetwork/xyo-solidity/contracts/XYTokenSale.sol",
  "compiler": {
    "name": "solc",
    "version": "0.4.19+commit.c4cbbb05.Emscripten.clang"
  },
  "schemaVersion": "2.0.0",
  "updatedAt": "2018-03-19T01:42:17.917Z"
}