{
  "contractName": "XYVariablePriceTest",
  "abi": [
    {
      "constant": true,
      "inputs": [
        {
          "name": "_numberSold",
          "type": "uint256"
        },
        {
          "name": "_ether",
          "type": "uint256"
        },
        {
          "name": "_startVariablePrice",
          "type": "uint256"
        },
        {
          "name": "_endVariablePrice",
          "type": "uint256"
        },
        {
          "name": "_maxVariableAvailableIn",
          "type": "uint256"
        },
        {
          "name": "_maxFixedAvailableIn",
          "type": "uint256"
        }
      ],
      "name": "getTokensForEther",
      "outputs": [
        {
          "name": "",
          "type": "uint256"
        }
      ],
      "payable": false,
      "stateMutability": "pure",
      "type": "function"
    },
    {
      "constant": true,
      "inputs": [
        {
          "name": "_numberSold",
          "type": "uint256"
        },
        {
          "name": "_maxVariableAvailable",
          "type": "uint256"
        },
        {
          "name": "_maxFixedAvailable",
          "type": "uint256"
        }
      ],
      "name": "getMaxTokensAvailableForTransaction",
      "outputs": [
        {
          "name": "",
          "type": "uint256"
        }
      ],
      "payable": false,
      "stateMutability": "pure",
      "type": "function"
    },
    {
      "constant": true,
      "inputs": [
        {
          "name": "_numberSold",
          "type": "uint256"
        },
        {
          "name": "_maxVariableAvailable",
          "type": "uint256"
        }
      ],
      "name": "isVariableSoldOut",
      "outputs": [
        {
          "name": "",
          "type": "bool"
        }
      ],
      "payable": false,
      "stateMutability": "pure",
      "type": "function"
    },
    {
      "constant": true,
      "inputs": [
        {
          "name": "_numberSold",
          "type": "uint256"
        },
        {
          "name": "_maxVariableAvailable",
          "type": "uint256"
        },
        {
          "name": "_maxFixedAvailable",
          "type": "uint256"
        }
      ],
      "name": "isFixedSoldOut",
      "outputs": [
        {
          "name": "",
          "type": "bool"
        }
      ],
      "payable": false,
      "stateMutability": "pure",
      "type": "function"
    },
    {
      "constant": true,
      "inputs": [
        {
          "name": "_numberSold",
          "type": "uint256"
        },
        {
          "name": "_ether",
          "type": "uint256"
        },
        {
          "name": "_endVariablePrice",
          "type": "uint256"
        },
        {
          "name": "_maxVariableAvailable",
          "type": "uint256"
        },
        {
          "name": "_maxFixedAvailable",
          "type": "uint256"
        }
      ],
      "name": "getDesiredFixedTokensForEther",
      "outputs": [
        {
          "name": "",
          "type": "uint256"
        }
      ],
      "payable": false,
      "stateMutability": "pure",
      "type": "function"
    },
    {
      "constant": true,
      "inputs": [
        {
          "name": "_numberSold",
          "type": "uint256"
        },
        {
          "name": "_startPrice",
          "type": "uint256"
        },
        {
          "name": "_endPrice",
          "type": "uint256"
        },
        {
          "name": "_maxVariableAvailable",
          "type": "uint256"
        }
      ],
      "name": "getMaxEtherSpendableOnVariable",
      "outputs": [
        {
          "name": "",
          "type": "uint256"
        }
      ],
      "payable": false,
      "stateMutability": "pure",
      "type": "function"
    },
    {
      "constant": true,
      "inputs": [
        {
          "name": "_numberSold",
          "type": "uint256"
        },
        {
          "name": "_ether",
          "type": "uint256"
        },
        {
          "name": "_startVariablePrice",
          "type": "uint256"
        },
        {
          "name": "_endVariablePrice",
          "type": "uint256"
        },
        {
          "name": "_maxVariableAvailable",
          "type": "uint256"
        }
      ],
      "name": "getDesiredVariableTokensForEther",
      "outputs": [
        {
          "name": "",
          "type": "uint256"
        }
      ],
      "payable": false,
      "stateMutability": "pure",
      "type": "function"
    },
    {
      "constant": true,
      "inputs": [
        {
          "name": "_numberSold",
          "type": "uint256"
        },
        {
          "name": "_endPrice",
          "type": "uint256"
        },
        {
          "name": "_maxVariableAvailable",
          "type": "uint256"
        },
        {
          "name": "_maxFixedAvailable",
          "type": "uint256"
        }
      ],
      "name": "getMaxEtherSpendableOnFixed",
      "outputs": [
        {
          "name": "",
          "type": "uint256"
        }
      ],
      "payable": false,
      "stateMutability": "pure",
      "type": "function"
    },
    {
      "constant": true,
      "inputs": [
        {
          "name": "_numberSold",
          "type": "uint256"
        },
        {
          "name": "_maxVariableAvailable",
          "type": "uint256"
        },
        {
          "name": "_maxFixedAvailable",
          "type": "uint256"
        }
      ],
      "name": "getRemainingFixed",
      "outputs": [
        {
          "name": "",
          "type": "uint256"
        }
      ],
      "payable": false,
      "stateMutability": "pure",
      "type": "function"
    },
    {
      "constant": true,
      "inputs": [
        {
          "name": "_numberSold",
          "type": "uint256"
        },
        {
          "name": "_startPrice",
          "type": "uint256"
        },
        {
          "name": "_endPrice",
          "type": "uint256"
        },
        {
          "name": "_maxVariableAvailable",
          "type": "uint256"
        }
      ],
      "name": "getCurrentPrice",
      "outputs": [
        {
          "name": "",
          "type": "uint256"
        }
      ],
      "payable": false,
      "stateMutability": "pure",
      "type": "function"
    },
    {
      "constant": true,
      "inputs": [
        {
          "name": "_numberSold",
          "type": "uint256"
        },
        {
          "name": "_maxVariableAvailable",
          "type": "uint256"
        }
      ],
      "name": "getMaxVariableAvailableForTransaction",
      "outputs": [
        {
          "name": "",
          "type": "uint256"
        }
      ],
      "payable": false,
      "stateMutability": "pure",
      "type": "function"
    }
  ],
  "bytecode": "0x6060604052341561000f57600080fd5b6109f98061001e6000396000f3006060604052600436106100af576000357c0100000000000000000000000000000000000000000000000000000000900463ffffffff16806304f7c2dd146100b457806343cbbeae146101015780634ba6719b1461015c57806359ce7603146101a05780638070ca0014610204578063b5b7d1211461024d578063c73f63511461029f578063d1b2a67c146102df578063d9550bb814610331578063e83c91171461037a578063f7cc47d1146103cc575b600080fd5b34156100bf57600080fd5b6100e76004808035906020019091908035906020019091908035906020019091905050610427565b604051808215151515815260200191505060405180910390f35b341561010c57600080fd5b610146600480803590602001909190803590602001909190803590602001909190803590602001909190803590602001909190505061043d565b6040518082815260200191505060405180910390f35b341561016757600080fd5b6101866004808035906020019091908035906020019091905050610457565b604051808215151515815260200191505060405180910390f35b34156101ab57600080fd5b6101ee600480803590602001909190803590602001909190803590602001909190803590602001909190803590602001909190803590602001909190505061046b565b6040518082815260200191505060405180910390f35b341561020f57600080fd5b6102376004808035906020019091908035906020019091908035906020019091905050610487565b6040518082815260200191505060405180910390f35b341561025857600080fd5b610289600480803590602001909190803590602001909190803590602001909190803590602001909190505061049d565b6040518082815260200191505060405180910390f35b34156102aa57600080fd5b6102c960048080359060200190919080359060200190919050506104b5565b6040518082815260200191505060405180910390f35b34156102ea57600080fd5b61031b60048080359060200190919080359060200190919080359060200190919080359060200190919050506104c9565b6040518082815260200191505060405180910390f35b341561033c57600080fd5b61036460048080359060200190919080359060200190919080359060200190919050506104e1565b6040518082815260200191505060405180910390f35b341561038557600080fd5b6103b660048080359060200190919080359060200190919080359060200190919080359060200190919050506104f7565b6040518082815260200191505060405180910390f35b34156103d757600080fd5b610411600480803590602001909190803590602001909190803590602001909190803590602001909190803590602001909190505061050f565b6040518082815260200191505060405180910390f35b6000610434848484610529565b90509392505050565b600061044c8686868686610541565b905095945050505050565b6000610463838361059d565b905092915050565b600061047b8787878787876105ab565b90509695505050505050565b60006104948484846106b1565b90509392505050565b60006104ab858585856106ff565b9050949350505050565b60006104c1838361077a565b905092915050565b60006104d7858585856107a0565b9050949350505050565b60006104ee848484610824565b90509392505050565b60006105058585858561085c565b9050949350505050565b600061051e86868686866108b8565b905095945050505050565b60006105358383610934565b84101590509392505050565b60008060006105518886866106b1565b915061057b633b9aca008881151561056557fe5b04633b9aca008881151561057557fe5b04610952565b9050818111151561058e57809250610592565b8192505b505095945050505050565b600081831015905092915050565b600080600080600080600080670de0b6b3a76400008a029650670de0b6b3a7640000890295508587018e1015156105e557600097506106a0565b6105ef8e8861059d565b15610621576105ff8e8888610529565b1561060d57600097506106a0565b61061a8e8e8d8a8a610541565b97506106a0565b61062d8e8d8d8a61085c565b945061063c8e8e8e8e8b6108b8565b93508c85111561064e578397506106a0565b848d03925061065f8e8c89896106ff565b915061066e8e848d8a8a610541565b90508c61067b8387610934565b10156106935761068c8e8888610824565b97506106a0565b61069d8482610934565b97505b505050505050509695505050505050565b6000806106be8484610934565b8511156106ce57600091506106f7565b838510156106de578291506106f7565b6106e8858561098d565b90506106f4838261098d565b91505b509392505050565b60008483111561072d5761072682670de0b6b3a76400008681151561072057fe5b046109a6565b9050610772565b846107388484610934565b1115156107485760009050610772565b61076f6107568685856106b1565b670de0b6b3a76400008681151561076957fe5b046109a6565b90505b949350505050565b6000828211156107955761078e828461098d565b905061079a565b600090505b92915050565b60008060008084881015156107b757859350610819565b6107c1878761098d565b92506107e088670de0b6b3a7640000878115156107da57fe5b046109a6565b915061080a633b9aca00838115156107f457fe5b04633b9aca008581151561080457fe5b04610952565b9050610816878261098d565b93505b505050949350505050565b6000610831848484610529565b1561083f5760009050610855565b61085261084c8484610934565b8561098d565b90505b9392505050565b60008060008684101561087257600092506108ae565b61087c848861098d565b915061088a878787876107a0565b90506108ab633b9aca008302633b9aca00838115156108a557fe5b046109a6565b92505b5050949350505050565b60008060008084891015156108d05760009350610928565b6108dc898888886107a0565b9250633b9aca006108fc89633b9aca00868115156108f657fe5b04610952565b81151561090557fe5b049150610912898661077a565b90508082111561092457809350610928565b8193505b50505095945050505050565b600080828401905083811015151561094857fe5b8091505092915050565b60008060008414156109675760009150610986565b828402905082848281151561097857fe5b0414151561098257fe5b8091505b5092915050565b600082821115151561099b57fe5b818303905092915050565b6000806000831115156109b557fe5b82848115156109c057fe5b04905080915050929150505600a165627a7a723058206f51c09a43f51bf531a8ccbf0e4ca035e5935732a43be4bc7f60f7a30dccbf000029",
  "source": "pragma solidity ^0.4.19;\n\nimport \"./lib/XYVariablePrice.sol\";\n\n\ncontract XYVariablePriceTest {\n  using XYVariablePrice\n  for * ;\n\n  function getTokensForEther(\n    uint _numberSold, // 18 places, total Tokens sold to-date\n    uint _ether, // 18 places, Ether input into Transaction\n    uint _startVariablePrice, // 18 places, Variable Token start price at beginning of Token Sale\n    uint _endVariablePrice, // 18 places, Variable Token end price at beginning of Token Sale\n    uint _maxVariableAvailableIn, // 0 places, total Variable-priced Tokens available at start of Token Sale\n    uint _maxFixedAvailableIn) // 0 places, total Fixed-priced Tokens available at start of Token Sale prior\n  public pure returns(uint) {\n    return XYVariablePrice.getTokensForEther(\n      _numberSold,\n      _ether,\n      _startVariablePrice,\n      _endVariablePrice,\n      _maxVariableAvailableIn,\n      _maxFixedAvailableIn);\n  }\n\n  function getMaxTokensAvailableForTransaction(uint _numberSold, uint _maxVariableAvailable, uint _maxFixedAvailable) public pure returns(uint) {\n    return XYVariablePrice._getMaxTokensAvailableForTransaction(\n      _numberSold,\n      _maxVariableAvailable,\n      _maxFixedAvailable\n      );\n  }\n  function isVariableSoldOut(uint _numberSold, uint _maxVariableAvailable) public pure returns(bool)\n  {\n    return XYVariablePrice._isVariableSoldOut(\n      _numberSold,\n      _maxVariableAvailable\n      );\n  }\n  function isFixedSoldOut(uint _numberSold, uint _maxVariableAvailable, uint _maxFixedAvailable) public pure returns(bool)\n  {\n    return XYVariablePrice._isFixedSoldOut(\n      _numberSold,\n      _maxVariableAvailable,\n      _maxFixedAvailable\n      );\n  }\n  // desired amount of Fixed-priced Tokens given Ether input, potentially for the final Transaction if Ether input is larger than Token availability\n  function getDesiredFixedTokensForEther(uint _numberSold, uint _ether, uint _endVariablePrice, uint _maxVariableAvailable, uint _maxFixedAvailable) public pure returns(uint) {\n    return XYVariablePrice._getDesiredFixedTokensForEther(\n      _numberSold,\n      _ether,\n      _endVariablePrice,\n      _maxVariableAvailable,\n      _maxFixedAvailable\n      );\n  }\n  // the maximum amount of Ether a buyer can spend on Variable-priced Tokens\n  function getMaxEtherSpendableOnVariable(uint _numberSold, uint _startPrice, uint _endPrice, uint _maxVariableAvailable) public pure returns(uint) {\n    return XYVariablePrice._getMaxEtherSpendableOnVariable(\n      _numberSold,\n      _startPrice,\n      _endPrice,\n      _maxVariableAvailable\n      );\n  }\n  // desired amount of Variable-priced Tokens given Ether input\n  function getDesiredVariableTokensForEther(uint _numberSold, uint _ether, uint _startVariablePrice, uint _endVariablePrice, uint _maxVariableAvailable) public pure returns(uint) {\n    return XYVariablePrice._getDesiredVariableTokensForEther(\n      _numberSold,\n      _ether,\n      _startVariablePrice,\n      _endVariablePrice,\n      _maxVariableAvailable\n      );\n  }\n  // the maximum amount of Ether a buyer can spend on Fixed-priced Tokens\n  function getMaxEtherSpendableOnFixed(uint _numberSold, uint _endPrice, uint _maxVariableAvailable, uint _maxFixedAvailable) public pure returns(uint) {\n    return XYVariablePrice._getMaxEtherSpendableOnFixed(\n      _numberSold,\n      _endPrice,\n      _maxVariableAvailable,\n      _maxFixedAvailable\n      );\n  }\n  // the maximum amount of Fixed-priced Tokens remaining to-date\n  function getRemainingFixed(uint _numberSold, uint _maxVariableAvailable, uint _maxFixedAvailable) public pure returns(uint) {\n    return XYVariablePrice._getRemainingFixed(\n      _numberSold,\n      _maxVariableAvailable,\n      _maxFixedAvailable\n      );\n  }\n  // this calculates the Token Price at the number of Tokens sold to-date\n  function getCurrentPrice(uint _numberSold, uint _startPrice, uint _endPrice, uint _maxVariableAvailable) public pure returns(uint) {\n    return XYVariablePrice._getCurrentPrice(\n      _numberSold,\n      _startPrice,\n      _endPrice,\n      _maxVariableAvailable\n      );\n  }\n  // the maximum amoung of Variable-priced Tokens available to-date\n  function getMaxVariableAvailableForTransaction(uint _numberSold, uint _maxVariableAvailable) public pure returns(uint) {\n    return XYVariablePrice._getMaxVariableAvailableForTransaction(\n      _numberSold,\n      _maxVariableAvailable\n      );\n  }\n\n}\n",
  "sourcePath": "/Users/arietrouw/xyoraclenetwork/xyo-solidity/contracts/XYVariablePriceTest.sol",
  "compiler": {
    "name": "solc",
    "version": "0.4.19+commit.c4cbbb05.Emscripten.clang"
  },
  "schemaVersion": "2.0.0",
  "updatedAt": "2018-03-19T01:49:55.943Z"
}